:100000000C9442010C9473010C9473010C947301D1
:100010000C9473010C9473010C9473010C94730190
:100020000C9473010C9473010C9473010C94730180
:100030000C9473010C9473010C9473010C94730170
:100040000C9473010C9473010C9473010C94730160
:100050000C9473010C9473010C9473010C94FC05C3
:100060000C9473010C949F090C946B0A0C9473010B
:100070000C9473010C9473010C9473010C94730130
:100080000C9473010C9473010C9473010C94730120
:100090000C94D2090C94AA0A0C9473010C94730169
:1000A0000C9473010C9473010C9473010C94730100
:1000B0000C9473010C9473010C9473010C947301F0
:1000C0000C9473010C9473010C9473010C94050A45
:1000D0000C94E90A0C9473010C94380A0C94280BC4
:1000E0000C9473013B073E0731073507750742073C
:1000F00046074C07500754075A075E076207750703
:1001000068076C0770070C94FC080C944C070C945F
:1001100068070C9443090C94EC080C9438090C946F
:100120005A070C9475070C943E070C9442070C94E4
:100130003B070C9418090C9450070C9470070C940E
:1001400054070C94EF0B0C946C070C9431070C942F
:1001500062070C9435070C945E070C940B080C9402
:1001600046070000090A02080B0C0D0706030401EC
:10017000000000000000000000000000000000007F
:10018000000000000000000000000000000011104E
:100190000F00000000000000000000000000000050
:1001A00000000000000000000102102020080810DC
:1001B00020401020408002010201080402010102D7
:1001C00004081020408080402010080402018004B0
:1001D000020180402010080402010804020101020B
:1001E000040810204080010204081020408005050A
:1001F0000505070508080808020202020A0A08089D
:1002000004040404010101010101010103030303CA
:1002100003030303040707070C0C0C0C0C0C0C0C59
:100220000202020206060606060606060B0B0B0B6A
:100230000B0B0B0B000020002300260029002C00D4
:100240002F00320000010000030106010901000037
:100250002200250028002B002E003100340002016E
:100260000000050108010B01000021002400270007
:100270002A002D00300033000101000004010701B5
:100280000A01EF0B11241FBECFEFD1E2DEBFCDBFBD
:1002900000E00CBF12E0A0E0B2E0E4E1FAE100E02F
:1002A0000BBF02C007900D92A038B107D9F725E027
:1002B000A0E8B2E001C01D92A134B207E1F711E05D
:1002C000C2E4D1E000E006C021970109802FFE01C1
:1002D0000E94E60CC134D10780E00807A9F70E940C
:1002E000E9050C94C10C0C940000DC01ED91FC912B
:1002F0000190F081E02D1994CF92DF92EF92FF925E
:10030000CF93DF93C0E0D0E0C12CD12C760181E007
:100310000E94FF06817099270C2E02C0880F991F3A
:100320000A94E2F7092E000CAA0BBB0BC82AD92AA3
:10033000EA2AFB2A62E370E080E090E00E94770600
:100340002196C032D10519F7C701B601DF91CF91CF
:10035000FF90EF90DF90CF9008954F925F926F9251
:100360007F928F929F92AF92BF92CF92DF92EF9245
:10037000FF920F931F93CF93DF9300D01F92CDB7BF
:10038000DEB72B013C01CA01B901A80197010E9407
:10039000C40C69837A838B839C83C301B201A80157
:1003A00097010E94C40C4B015C01C12CD12C412C43
:1003B000512C320181E090E0A0E0B0E00C2C04C0B0
:1003C000880F991FAA1FBB1F0A94D2F78821992171
:1003D000AA21BB21892B8A2B8B2B91F069817A81F1
:1003E0008B819C81A80197010E94C40C640D751D2E
:1003F000861D971DA80197010E94C40C2B013C018A
:1004000069817A818B819C81660F771F881F991F74
:10041000A80197010E94C40C69837A838B839C8313
:100420002FEFC21AD20A8FE1C816D10419F6C30100
:10043000B2010F900F900F900F90DF91CF911F910D
:100440000F91FF90EF90DF90CF90BF90AF909F9073
:100450008F907F906F905F904F9008954F925F9232
:100460006F927F928F929F92AF92BF92EF92FF9284
:100470000F931F93CF93DF93CDB7DEB728970FB6B7
:10048000F894DEBF0FBECDBF2B013C0129833A8318
:100490004B835C834701580161E070E080E090E0AD
:1004A000A80197010E94C40C6D837E838F83988777
:1004B000C301B201A80197010E94C40C2B013C01A9
:1004C00089819A81AB81BC81892B8A2B8B2B41F14D
:1004D000898180FF0EC085017401A30192016D81A5
:1004E0007E818F8198850E94AD016D837E838F838D
:1004F000988785017401A3019201C301B2010E9492
:10050000AD012B013C0189819A81AB81BC81B695FB
:10051000A7959795879589839A83AB83BC83D0CF22
:100520006D817E818F819885A50194010E94C40C04
:1005300028960FB6F894DEBF0FBECDBFDF91CF91E6
:100540001F910F91FF90EF90BF90AF909F908F9071
:100550007F906F905F904F9008951F93CF93DF939C
:10056000172FD82FC92F062E000C770B89E992E0A0
:100570000E947501612F110F770B89E992E00E94AB
:1005800075016D2FDD0F770B89E992E00E947501EF
:100590006C2FCC0F770B89E992E0DF91CF911F91FF
:1005A0000C9475014F925F926F927F928F929F92FF
:1005B000AF92BF92CF92DF92EF92FF924B015C011C
:1005C000950144275527AFE8BCEB0E94EE0C6B0168
:1005D0007C012B013C019FE07694679457944794EB
:1005E0009A95D1F7A5019401442755270E94EE0C56
:1005F000DC01CB01840D951DA61DB71DE894D7F82D
:10060000EE24FF247601DD24CC24BC01CD016C0D49
:100610007D1D8E1D9F1D97FF04C06F5F7F4F8F4F05
:100620009F47FF90EF90DF90CF90BF90AF909F904B
:100630008F907F906F905F904F900895EF92FF9210
:100640001F93CF93DF93182FCB017901C0E0D0E047
:10065000CE15DF0534F4BA010E94D202AB01219617
:10066000F7CF812F8427DF91CF911F91FF90EF90DB
:1006700008958F929F92AF92BF92CF92DF92EF92A6
:10068000FF92CF93DF93C82F4A015B010E94460679
:100690006B017C01C80CD91CEA1CFB1CD0E089E969
:1006A00092E00E94EC088C179D0754F089E992E0D3
:1006B0000E94EC0821E08C179D079CF420E011C0FB
:1006C000B7FE07C061E070E080E090E00E9477062E
:1006D000E6CF0E9446066C157D058E059F0590F3BA
:1006E000E5CF822FDF91CF91FF90EF90DF90CF90F9
:1006F000BF90AF909F908F900895CF92DF92EF922E
:10070000FF920F931F93CF93DF9389E992E00E94AA
:100710001809EC0189E992E00E9418098C0189E925
:1007200092E00E941809A801110F660B770B762F33
:10073000652F542F44278C01990F220B330B9801FE
:1007400011270027402B512B622B732BCE01DD0F7D
:10075000AA0BBB0B6A017B01C82AD92AEA2AFB2A09
:1007600089E992E00E941809092E000CAA0BBB0B24
:10077000B82FAA2799278827BC01CD016C297D298C
:100780008E299F29DF91CF911F910F91FF90EF90BC
:10079000DF90CF900895CF938FEF92E00E941809D9
:1007A000C82F682F8FEF92E00E94430920918202A8
:1007B0003091830240918C0250918D0260918E02A3
:1007C00070918F028C2F0E941E03682F89E992E09E
:1007D0000E94430920918202309183022F5F3F4F94
:1007E0003093830220938202CD30F1F440918C0249
:1007F00050918D0260918E0270918F028AE00E946A
:100800001E03682F89E992E00E94430980918202C9
:1008100090918302019690938302809382028FEFDE
:1008200092E0CF910C945108CF91089589E992E01C
:100830000E941809209180023091810240918C021F
:1008400050918D0260918E0270918F020E941E0362
:10085000682F8FEF92E00E9443098091800290916F
:1008600081020196909381028093800208951F93E4
:10087000CF93DF93C0E0D0E010E0C130D10529F183
:1008800044F4CD2B09F07BC089E992E00E9438093D
:1008900009C0C230D10509F445C0C330D10509F4FF
:1008A00066C06DC089E992E00E94EC08892BD1F303
:1008B00089E992E00E94180920910002022E000CA2
:1008C000330B82179307A1F75DC048EE53E060E059
:1008D00070E084E00E943903882309F450C00E942C
:1008E0007D03609388027093890280938A029093BB
:1008F0008B0260910102062E000C770B89E992E0D1
:100900000E947501111138C06091840270918502B6
:1009100080918602909187020E94AD02C2E0D0E0F1
:1009200011E0ABCF48EE53E060E070E081E00E9460
:100930003903882321F189E992E00E941809992757
:1009400020910102022E000C330B8217930739F419
:1009500089E992E0DF91CF911F910C9438092091A1
:100960000002022E000C330B8217930759F0C3309C
:10097000D10509F082CFECCFC2E0D0E07ECFC0E05D
:10098000D0E07BCFC1E0D0E078CF80E090E001976D
:10099000B1F060910002062E000C770B89E992E01D
:1009A0000E94750160918402709185028091860297
:1009B000909187020E94AD0281E090E0E8CF48EE7E
:1009C00053E060E070E081E00E9439038823E9F29F
:1009D00089E992E00E94180920910102022E000C80
:1009E000330B8217930789F648EE53E060E070E01E
:1009F00084E00E9439038823B9F30E947D03609349
:100A000088027093890280938A0290938B0260918E
:100A10000102062E000C770B89E992E00E94750115
:100A200089E992E00C9438098DE00E94E207019771
:100A300011F40C9437040C94C5048F929F92AF92DA
:100A4000BF92EF92FF920F931F930E949D0660E06A
:100A500081E00E94760761E081E00E94B20760E0D9
:100A60008DE00E94760740E855E260E070E08FEF8D
:100A700092E00E94670B40E855E260E070E089E98F
:100A800092E00E94670B69E072E08FEF92E00E94B3
:100A900065080E947C014B015C01E0900402F0902B
:100AA0000502009106021091070260910202709106
:100AB0000302072E000C880B990BA50194010E94DC
:100AC0002E02609384027093850280938602909335
:100AD000870261E272E08FEF92E00E9448082AE00C
:100AE00030E0B501A4018FEF92E00E94DA0867E3DD
:100AF00072E08FEF92E00E9448084091840250918A
:100B0000850260918602709187022AE030E08FEFC3
:100B100092E00E94DA088FEF92E00E9451080E9452
:100B20001405E0900402F090050200910602109175
:100B30000702609188027091890280918A029091E7
:100B40008B02A50194010E942E0260938C02709387
:100B50008D0280938E0290938F026CE472E08FEF8F
:100B600092E00E9448084091880250918902609169
:100B70008A0270918B022AE030E08FEF92E00E94AF
:100B8000CD088FEF92E00E9451086BE572E08FEF85
:100B900092E00E94480840918C0250918D02609131
:100BA0008E0270918F022AE030E08FEF92E00E9477
:100BB000DA088FEF92E00E9451088FEF92E01F91C8
:100BC0000F91FF90EF90BF90AF909F908F900C94FB
:100BD00051080E941D058FEF92E00E94EC08892BBE
:100BE00011F00E94CB0389E992E00E94EC08892B66
:100BF00091F30E941604EFCF1F920F920FB60F923F
:100C000011242F933F938F939F93AF93BF93809122
:100C1000910290919202A0919302B091940230912E
:100C2000900223E0230F2D3720F40196A11DB11D62
:100C300005C026E8230F0296A11DB11D2093900246
:100C40008093910290939202A0939302B0939402A6
:100C50008091950290919602A0919702B09198028E
:100C60000196A11DB11D8093950290939602A093C9
:100C70009702B0939802BF91AF919F918F913F914E
:100C80002F910F900FBE0F901F9018952FB7F894CB
:100C900060919102709192028091930290919402DE
:100CA0002FBF08953FB7F8948091950290919602D6
:100CB000A0919702B091980226B5A89B05C02F3F3E
:100CC00019F00196A11DB11D3FBFBA2FA92F982F72
:100CD0008827820F911DA11DB11DBC01CD0142E0ED
:100CE000660F771F881F991F4A95D1F70895CF92F5
:100CF000DF92EF92FF92CF93DF936B017C010E9412
:100D00005206EB01C114D104E104F10479F00E9410
:100D100052066C1B7D0B683E7340A0F381E0C81A3D
:100D2000D108E108F108C851DC4FECCFDF91CF9139
:100D3000FF90EF90DF90CF900895789484B5826013
:100D400084BD84B5816084BD85B5826085BD85B56F
:100D5000816085BDEEE6F0E0808181608083E1E81E
:100D6000F0E0108280818260808380818160808356
:100D7000E0E8F0E0808181608083E1EBF0E0808159
:100D800084608083E0EBF0E0808181608083E1E932
:100D9000F0E0808182608083808181608083E0E9EF
:100DA000F0E0808181608083E1EAF0E08081826010
:100DB0008083808181608083E0EAF0E080818160CF
:100DC0008083E1E2F1E080818260808380818160C4
:100DD0008083E0E2F1E0808181608083EAE7F0E0F7
:100DE0008081846080838081826080838081816053
:100DF00080838081806880831092C100089586334B
:100E000008F0865390917B00282F2870977F922BB3
:100E100090937B0087702091080290E4299F9001B5
:100E20001124822B80937C0080917A0080648093CF
:100E30007A0080917A0086FDFCCF80917800209125
:100E4000790090E0922B089590E0FC013197E13118
:100E5000F10508F04AC08827EE58FF4F8F4F0C94D9
:100E6000E60C809180008F7703C0809180008F7D99
:100E700080938000089584B58F7702C084B58F7DFC
:100E800084BD08958091B0008F7703C08091B00039
:100E90008F7D8093B0000895809190008F7707C078
:100EA000809190008F7D03C080919000877F809318
:100EB000900008958091A0008F7707C08091A000D6
:100EC0008F7D03C08091A000877F8093A00008954C
:100ED000809120018F7707C0809120018F7D03C012
:100EE00080912001877F809320010895CF93DF9325
:100EF00090E0FC01E855FE4F2491FC01E251FE4FC9
:100F00008491882361F190E0880F991FFC01E859D2
:100F1000FD4FC591D491FC01E25BFD4FA591B491C9
:100F2000611109C09FB7F894888120958223888336
:100F3000EC912E230BC0623061F49FB7F894388196
:100F4000822F809583238883EC912E2B2C939FBF37
:100F500006C08FB7F894E8812E2B28838FBFDF91CE
:100F6000CF9108951F93CF93DF93282F30E0F9019D
:100F7000EE59FE4F8491F901E855FE4FD491F901E5
:100F8000E251FE4FC491CC23C9F0162F81110E946B
:100F90002407EC2FF0E0EE0FFF1FE25BFD4FA59161
:100FA000B4918FB7F894111105C09C91ED2FE09585
:100FB000E92302C0EC91ED2BEC938FBFDF91CF9131
:100FC0001F910895CF93DF93282F30E0F901EE5958
:100FD000FE4F8491F901E855FE4FD491F901E25199
:100FE000FE4FC491CC2391F081110E942407EC2F75
:100FF000F0E0EE0FFF1FEC5CFD4FA591B491EC917A
:10100000ED2381E090E021F480E002C080E090E0F8
:10101000DF91CF910895CF92DF92EF92FF920F93DD
:101020001F93CF93DF936C01EB017B01E40EF51E60
:1010300000E010E0CE15DF0561F06991D601ED9179
:10104000FC910190F081E02DC6011995080F191F40
:10105000F1CFC801DF91CF911F910F91FF90EF90D9
:10106000DF90CF9008956115710579F0FB01019033
:101070000020E9F73197AF01461B570BDC01ED91DA
:10108000FC910280F381E02D199480E090E00895B6
:101090000C943308DC01ED91FC910190F081E02D7E
:1010A00019940F931F93CF93DF93EC016DE00E948F
:1010B0004A088C016AE0CE010E944A08800F911F05
:1010C000DF91CF911F910F9108950F931F93CF93AD
:1010D000DF93EC010E9433088C01CE010E9451087D
:1010E000800F911FDF91CF911F910F9108958F92E3
:1010F0009F92AF92BF92CF92DF92EF92FF920F93A7
:101100001F93CF93DF93CDB7DEB7A1970FB6F894B7
:10111000DEBF0FBECDBF6C01142FE52FCB01022F18
:1011200019A2223008F40AE07E0121E2E20EF11C4D
:10113000802E912CA12CB12C612F7E2FA501940122
:101140000E94C40C029F1019112481E0E81AF108D2
:101150001A3014F4105D01C0195CF7011083122FCE
:10116000E32FCA01232B242B252B31F7B701C6010E
:101170000E943308A1960FB6F894DEBF0FBECDBF14
:10118000DF91CF911F910F91FF90EF90DF90CF9063
:10119000BF90AF909F908F9008952115310541F435
:1011A000DC01ED91FC910190F081E02D642F199408
:1011B0000C9477080F931F93CF93DF93EC010E9459
:1011C000CD088C01CE010E945108800F911FDF9144
:1011D000CF911F910F910895FC0124853585F90168
:1011E000E05CFF4F80819181329620813181821BAA
:1011F000930B8F7399270895DC011C96ED91FC9158
:101200001D97DF01A05CBF4F2D913C911197129665
:101210008D919C9111972817390739F08D919C91E8
:10122000E80FF91F808190E008958FEF9FEF0895F8
:10123000FC01A485B585FD01E05CFF4F2081318173
:101240003296808191812817390779F080819181C8
:10125000A80FB91F8C91208131812F5F3F4F2F73D1
:1012600033273183208390E008958FEF9FEF089517
:10127000FC0181A1882329F0A489B5898C9186FF7E
:10128000FBCF11A208950F931F93CF93DF93FC011F
:10129000A685B7858D01005C1F4FE8018881998183
:1012A00001968F739927AD014E5B5F4FEA0128814C
:1012B000398182179307D1F3E80128813981A20F80
:1012C000B31F6C93A685B785A05CBF4F11969C9306
:1012D0008E93A689B7892C9181E090E0078C02C09B
:1012E000880F991F0A94E2F7822B8C9381E081A3E7
:1012F0000488F589E02D80818064808381E090E01E
:10130000DF91CF911F910F910895FB01E05CFF4F9A
:10131000208131812F5F3F4F2F733327DB01AE5B7D
:10132000BF4F4D915C912417350741F040815181A9
:10133000DB01A40FB51F8C933183208308951F9286
:101340000F920FB60F9211240BB60F922F933F936B
:101350004F935F936F937F938F939F93AF93BF93BD
:10136000EF93FF938091C00082FD07C08091C6007B
:101370006DEF74E00E94850902C08091C600FF9164
:10138000EF91BF91AF919F918F917F916F915F91FD
:101390004F913F912F910F900BBE0F900FBE0F906A
:1013A0001F9018951F920F920FB60F9211240BB633
:1013B0000F922F933F934F935F936F937F938F93EE
:1013C0009F93AF93BF93EF93FF938091C80082FDEB
:1013D00007C08091CE0065E774E00E94850902C0D5
:1013E0008091CE00FF91EF91BF91AF919F918F912E
:1013F0007F916F915F914F913F912F910F900BBE15
:101400000F900FBE0F901F9018951F920F920FB65E
:101410000F9211240BB60F922F933F934F935F932C
:101420006F937F938F939F93AF93BF93EF93FF93AC
:101430008091D00082FD07C08091D6006DEE73E0F0
:101440000E94850902C08091D600FF91EF91BF9163
:10145000AF919F918F917F916F915F914F913F914C
:101460002F910F900BBE0F900FBE0F901F901895ED
:101470001F920F920FB60F9211240BB60F922F935B
:101480003F934F935F936F937F938F939F93AF930C
:10149000BF93EF93FF938091300182FD07C080914D
:1014A000360165E673E00E94850902C0809136012D
:1014B000FF91EF91BF91AF919F918F917F916F912C
:1014C0005F914F913F912F910F900BBE0F900FBEE8
:1014D0000F901F9018951F920F920FB60F92112424
:1014E0000BB60F922F933F938F939F93EF93FF939E
:1014F0002091F9043091FA048091FB049091FC044E
:101500002817390731F48091C1008F7D8093C10085
:1015100014C0E091FB04F091FC04E754FB4F2081E0
:101520008091FB049091FC0401968F73992790930E
:10153000FC048093FB042093C600FF91EF919F91E0
:101540008F913F912F910F900BBE0F900FBE0F9078
:101550001F9018951F920F920FB60F9211240BB681
:101560000F922F933F938F939F93EF93FF9320912D
:10157000710430917204809173049091740428175F
:10158000390731F48091C9008F7D8093C90014C060
:10159000E0917304F0917404EF5CFB4F2081809123
:1015A00073049091740401968F7399279093740437
:1015B000809373042093CE00FF91EF919F918F91C0
:1015C0003F912F910F900BBE0F900FBE0F901F9069
:1015D00018951F920F920FB60F9211240BB60F920F
:1015E0002F933F938F939F93EF93FF932091E90362
:1015F0003091EA038091EB039091EC0328173907AF
:1016000031F48091D1008F7D8093D10014C0E0919E
:10161000EB03F091EC03E755FC4F20818091EB0345
:101620009091EC0301968F7399279093EC0380932C
:10163000EB032093D600FF91EF919F918F913F9103
:101640002F910F900BBE0F900FBE0F901F9018950B
:101650001F920F920FB60F9211240BB60F922F9379
:101660003F938F939F93EF93FF932091610330916A
:10167000620380916303909164032817390731F462
:10168000809131018F7D8093310114C0E09163031B
:10169000F0916403EF5DFC4F208180916303909192
:1016A000640301968F739927909364038093630377
:1016B00020933601FF91EF919F918F913F912F9150
:1016C0000F900BBE0F900FBE0F901F901895CF92EA
:1016D000DF92EF92FF920F931F93CF93DF93EC0172
:1016E0006A017B014115514E6105710509F1EC89D3
:1016F000FD8981E090E008A002C0880F991F0A943C
:10170000E2F7808360E079E08DE390E0A701960145
:101710000E94C40C89019A01015011092109310963
:101720003695279517950795980101151041A8F052
:10173000EC89FD89108260E874E88EE190E0A701F1
:1017400096010E94C40CDA01C9010197A109B109EF
:10175000B695A795979587959C01E889F989308377
:10176000EA89FB89208319A2EE89FF89408181E003
:1017700090E09C010C8C02C0220F331F0A94E2F708
:10178000242B2083EE89FF8940819C010D8C02C0AF
:10179000220F331F0A94E2F7242B2083EE89FF895E
:1017A00040819C010E8C02C0220F331F0A94E2F785
:1017B000242B2083EE89FF8920810F8C02C0880FA3
:1017C000991F0A94E2F7809582238083DF91CF915D
:1017D0001F910F91FF90EF90DF90CF900895CF92DF
:1017E000DF92EF92FF92EFEFF2E01382128288EE27
:1017F000C82E83E0D82EE12CF12CC482D582E6825B
:10180000F78264E772E0718360838DEF94E09587DF
:10181000848789EB94E09787868785EC90E0918BAD
:10182000808B84EC90E0938B828B80EC90E0958BA6
:10183000848B81EC90E0978B868B82EC90E0918F8B
:10184000808F86EC90E0938F828F44E0448F33E06A
:10185000358F27E0268F95E0978F81E080A3EDED0F
:10186000F2E013821282C482D582E682F78271830B
:101870006083A5E7B4E0B587A487A1E3B4E0B787A8
:10188000A687ADECB0E0B18BA08BACECB0E0B38B35
:10189000A28BA8ECB0E0B58BA48BA9ECB0E0B78B21
:1018A000A68BAAECB0E0B18FA08FAEECB0E0B38F06
:1018B000A28F448F358F268F978F80A3EBEBF2E0BA
:1018C00013821282C482D582E682F782718360839A
:1018D000ADEEB3E0B587A487A9EAB3E0B787A687E2
:1018E000A5EDB0E0B18BA08BA4EDB0E0B38BA28BE3
:1018F000A0EDB0E0B58BA48BA1EDB0E0B78BA68BCB
:10190000A2EDB0E0B18FA08FA6EDB0E0B38FA28FB3
:10191000448F358F268F978F80A3E9E9F2E01382F9
:101920001282C482D582E682F7827183608365E683
:1019300073E07587648761E273E07787668765E3A4
:1019400071E0718B608B64E371E0738B628B60E399
:1019500071E0758B648B61E371E0778B668B62E37A
:1019600071E0718F608F66E371E0738F628F448FD7
:10197000358F268F978F80A3FF90EF90DF90CF90C9
:101980000895F8940C94080DA1E21A2EAA1BBB1B13
:10199000FD010DC0AA1FBB1FEE1FFF1FA217B3073B
:1019A000E407F50720F0A21BB30BE40BF50B661F51
:1019B000771F881F991F1A9469F760957095809515
:1019C00090959B01AC01BD01CF010895EE0FFF1F63
:1019D000881F8BBF0790F691E02D19940E94F90C97
:1019E000A59F900DB49F900DA49F800D911D112473
:1019F0000895A29FB001B39FC001A39F700D811DE8
:101A00001124911DB29F700D811D1124911D089507
:041A1000F894FFCF78
:101A14004341A741FFFFFF7F0157656C636F6D650D
:101A240020746F2041726475696E6F2063686174FD
:101A340000596F75722070726976617465206B65E8
:101A4400792069733A2000596F7572207075626C41
:101A54006963206B65792069733A20004F74686567
:101A640072206B65792069733A2000596F75722072
:101A7400736861726564206B65792069733A20002C
:101A84000000000043090B08EC081809FC08380999
:00000001FF
