:100000000C9435010C9466010C9466010C94660105
:100010000C9466010C9466010C9466010C946601C4
:100020000C9466010C9466010C9466010C946601B4
:100030000C9466010C9466010C9466010C946601A4
:100040000C9466010C9466010C9466010C94660194
:100050000C9466010C9466010C9466010C942B03BD
:100060000C9466010C9401070C94CD070C94660166
:100070000C9466010C9466010C9466010C94660164
:100080000C9466010C9466010C9466010C94660154
:100090000C9434070C940C080C9466010C946601C3
:1000A0000C9466010C9466010C9466010C94660134
:1000B0000C9466010C9466010C9466010C94660124
:1000C0000C9466010C9466010C9466010C9467070D
:1000D0000C944B080C9466010C949A070C948A08B3
:1000E0000C9466015E046104540458049804650489
:1000F00069046F04730477047D0481048504980403
:100100008B048F0493040C9477040C9451090C9481
:100110007A060C9485040C948B040C947D040C9446
:1001200069040C9405050C948F040C949A060C94A5
:100130006F040C944E060C945E060C9458040C94B8
:1001400098040C9454040C945E040C9473040C9462
:10015000A5060C9481040C9461040C9493040C94F3
:1001600065040000090A02080B0C0D0706030401D0
:10017000000000000000000000000000000000007F
:10018000000000000000000000000000000011104E
:100190000F00000000000000000000000000000050
:1001A00000000000000000000102102020080810DC
:1001B00020401020408002010201080402010102D7
:1001C00004081020408080402010080402018004B0
:1001D000020180402010080402010804020101020B
:1001E000040810204080010204081020408005050A
:1001F0000505070508080808020202020A0A08089D
:1002000004040404010101010101010103030303CA
:1002100003030303040707070C0C0C0C0C0C0C0C59
:100220000202020206060606060606060B0B0B0B6A
:100230000B0B0B0B00002200250028002B002E00CA
:100240003100340002010000050108010B0100002B
:100250002100240027002A002D0030003300010176
:100260000000040107010A01510911241FBECFEF4C
:10027000D1E2DEBFCDBF00E00CBF12E0A0E0B2E0F3
:10028000E0ECF5E100E00BBF02C007900D92AA3A46
:10029000B107D9F725E0AAEAB2E001C01D92AD3559
:1002A000B207E1F711E0C5E3D1E000E006C0219715
:1002B0000109802FFE010E94A80AC433D10780E003
:1002C0000807A9F70E94E9020C944A0A0C9400005E
:1002D0000F931F93CF93DF93C0E0D0E000E010E0D6
:1002E00081E00E942204817099270C2E02C0880FA1
:1002F000991F0A94E2F7082B192B62E370E080E063
:1003000090E00E949A032196C031D10549F7C801B7
:10031000DF91CF911F910F9108954F925F926F924D
:100320007F928F929F92AF92BF92CF92DF92EF9285
:10033000FF92CF93DF9300D01F92CDB7DEB74B0172
:100340006A01BA010E94720AFC0181E090E0B601E4
:100350000E94720ABC01990F880B990B412C512CF9
:100360003201A12CB12C9F01FF0F440B550B2983A7
:100370003A834B835C830D2C000CEE08FF08481475
:1003800059046A047B0490F49B01AC0169817A8171
:100390008B819C810E94620AA70196010E94860AB5
:1003A0003FEF431A530A630A730AE9CF0F900F9085
:1003B0000F900F90DF91CF91FF90EF90DF90CF9053
:1003C000BF90AF909F908F907F906F905F904F9075
:1003D0000895CF92DF92EF92FF920F931F93CF93E6
:1003E000DF937C016C01C0E0D0E08B01015011096A
:1003F000C017D1076CF48BE193E00E944E061816EB
:100400001906B4F78BE193E00E947A068D3061F40F
:10041000CE0DDF1D1882DF91CF911F910F91FF90BC
:10042000EF90DF90CF900895F60181936F012196B0
:10043000DFCFCF93DF93CDB7DEB760970FB6F894D9
:10044000DEBF0FBECDBF60E170E0CE0101960E941D
:10045000E901CE0101960E94230ACB0160960FB6F6
:10046000F894DEBF0FBECDBFDF91CF9108954F92BC
:100470005F926F927F928F929F92AF92BF92CF9234
:10048000DF92EF92FF92CF93DF930E94C00360E070
:1004900081E00E94990461E081E00E94D50440E877
:1004A00055E260E070E08BE193E00E94C90840E80B
:1004B00055E260E070E085EB92E00E94C90861E0DF
:1004C00072E08BE193E00E945F050E946801EC01FD
:1004D000812C912C5401C12CD12C7601C3942E0176
:1004E000612C712C84149504A604B704A0F4A6E032
:1004F000B0E0A70196010E94B00A2BE03BE440E087
:1005000050E00E94860A6B017C018FEF881A980ADE
:10051000A80AB80AE7CF69E172E08BE193E00E9494
:1005200042052AE030E0B701A6018BE193E00E948A
:100530003C068BE193E00E944B056EE272E08BE19A
:1005400093E00E945F0567E572E08BE193E00E9413
:1005500042058BE193E00E944E06892BD1F30E9465
:1005600019027C014AE050E0BC018BE193E00E945B
:1005700018064BE05BE4BE01C7010E948D01709339
:10058000AB026093AA0265E872E08BE193E00E94FF
:1005900042056091AA027091AB024AE050E08BE103
:1005A00093E00E9418068BE193E00E944B058BE1DB
:1005B00093E0DF91CF91FF90EF90DF90CF90BF90CD
:1005C000AF909F908F907F906F905F904F900C9422
:1005D0004B050E943702CAE08BE193E00E944E0671
:1005E000181619060CF58BE193E00E947A066091CB
:1005F000AA028D30A1F48627682F70E04AE050E00F
:1006000085EB92E00E9411066091AA026C2770E0CF
:100610004AE050E085EB92E00E94110605C0682791
:1006200085EB92E00E94A50685EB92E00E944E06C3
:10063000181619068CF68BE193E00E947A066091F9
:10064000AA028627682F70E04AE050E08BE193E031
:100650000E941106C1CF1F920F920FB60F92112464
:100660002F933F938F939F93AF93BF938091AD024E
:100670009091AE02A091AF02B091B0023091AC0265
:1006800023E0230F2D3720F40196A11DB11D05C0D5
:1006900026E8230F0296A11DB11D2093AC02809382
:1006A000AD029093AE02A093AF02B093B0028091DE
:1006B000B1029091B202A091B302B091B40201963E
:1006C000A11DB11D8093B1029093B202A093B30219
:1006D000B093B402BF91AF919F918F913F912F91B1
:1006E0000F900FBE0F901F9018953FB7F894809110
:1006F000B1029091B202A091B302B091B40226B5BA
:10070000A89B05C02F3F19F00196A11DB11D3FBF49
:10071000BA2FA92F982F8827820F911DA11DB11DD7
:10072000BC01CD0142E0660F771F881F991F4A95D3
:10073000D1F70895CF92DF92EF92FF92CF93DF939C
:100740006B017C010E947503EB01C114D104E1042B
:10075000F10479F00E9475036C1B7D0B683E7340B9
:10076000A0F381E0C81AD108E108F108C851DC4FB4
:10077000ECCFDF91CF91FF90EF90DF90CF90089575
:10078000789484B5826084BD84B5816084BD85B56C
:10079000826085BD85B5816085BDEEE6F0E0808133
:1007A00081608083E1E8F0E0108280818260808354
:1007B000808181608083E0E8F0E0808181608083D7
:1007C000E1EBF0E0808184608083E0EBF0E0808109
:1007D00081608083E1E9F0E08081826080838081B4
:1007E00081608083E0E9F0E0808181608083E1EADC
:1007F000F0E0808182608083808181608083E0EA94
:10080000F0E0808181608083E1E2F1E080818260BC
:100810008083808181608083E0E2F1E0808181607B
:100820008083EAE7F0E08081846080838081826059
:100830008083808181608083808180688083109242
:10084000C1000895863308F0865390917B00282FCD
:100850002870977F922B90937B00877020910002E5
:1008600090E4299F90011124822B80937C00809139
:100870007A00806480937A0080917A0086FDFCCFB4
:10088000809178002091790090E0922B089590E07B
:10089000FC013197E131F10508F04AC08827EE5894
:1008A000FF4F8F4F0C94A80A809180008F7703C070
:1008B000809180008F7D80938000089584B58F772C
:1008C00002C084B58F7D84BD08958091B0008F777C
:1008D00003C08091B0008F7D8093B0000895809117
:1008E00090008F7707C0809190008F7D03C080912A
:1008F0009000877F8093900008958091A0008F776B
:1009000007C08091A0008F7D03C08091A000877FE9
:100910008093A0000895809120018F7707C0809177
:1009200020018F7D03C080912001877F809320016B
:100930000895CF93DF9390E0FC01E855FE4F24919A
:10094000FC01E251FE4F8491882361F190E0880F11
:10095000991FFC01E25BFD4FC591D491FC01EC5C59
:10096000FD4FA591B491611109C09FB7F89488819A
:10097000209582238883EC912E230BC0623061F492
:100980009FB7F8943881822F809583238883EC91D8
:100990002E2B2C939FBF06C08FB7F894E8812E2B87
:1009A00028838FBFDF91CF9108951F93CF93DF935B
:1009B000282F30E0F901EE59FE4F8491F901E855F6
:1009C000FE4FD491F901E251FE4FC491CC23C9F0FE
:1009D000162F81110E944704EC2FF0E0EE0FFF1F4D
:1009E000EC5CFD4FA591B4918FB7F894111105C03F
:1009F0009C91ED2FE095E92302C0EC91ED2BEC9357
:100A00008FBFDF91CF911F910895CF92DF92EF9228
:100A1000FF920F931F93CF93DF936C01EB017B0148
:100A2000E40EF51E00E010E0CE15DF0561F06991DF
:100A3000D601ED91FC910190F081E02DC601199550
:100A4000080F191FF1CFC801DF91CF911F910F91AE
:100A5000FF90EF90DF90CF9008956115710579F0C8
:100A6000FB0101900020E9F73197AF01461B570BBE
:100A7000DC01ED91FC910280F381E02D199480E07E
:100A800090E008950C942D05DC01ED91FC9101900E
:100A9000F081E02D19940F931F93CF93DF93EC0116
:100AA0006DE00E9444058C016AE0CE010E9444057D
:100AB000800F911FDF91CF911F910F9108950F9398
:100AC0001F93CF93DF93EC010E942D058C01CE0183
:100AD0000E944B05800F911FDF91CF911F910F91C5
:100AE00008958F929F92AF92BF92CF92DF92EF9232
:100AF000FF920F931F93CF93DF93CDB7DEB7A197EC
:100B00000FB6F894DEBF0FBECDBF6C01142FE52FDA
:100B1000CB01022F19A2223008F40AE07E0121E263
:100B2000E20EF11C802E912CA12CB12C612F7E2F76
:100B3000A50194010E94860A029F1019112481E0E8
:100B4000E81AF1081A3014F4105D01C0195CF701BD
:100B50001083122FE32FCA01232B242B252B31F7CF
:100B6000B701C6010E942D05A1960FB6F894DEBF0D
:100B70000FBECDBFDF91CF911F910F91FF90EF90EE
:100B8000DF90CF90BF90AF909F908F900895CF92BD
:100B9000DF92EF92FF920F931F93CF93DF93EC01BD
:100BA0006A017B012115310579F4E881F981019011
:100BB000F081E02D642FDF91CF911F910F91FF9075
:100BC000EF90DF90CF9019942A303105E9F477FF48
:100BD0001AC06DE20E9444058C0144275527BA01D2
:100BE0004C195D096E097F092AE0CE010E9471054A
:100BF000800F911FDF91CF911F910F91FF90EF9088
:100C0000DF90CF9008952AE0B701A601CE01DF91D1
:100C1000CF911F910F91FF90EF90DF90CF900C94A8
:100C200071059A01AB01770F660B770B0C94C70522
:100C30000F931F93CF93DF93EC019A01AB01770FD2
:100C4000660B770B0E94C7058C01CE010E944B05F5
:100C5000800F911FDF91CF911F910F910895211562
:100C6000310541F4DC01ED91FC910190F081E02D22
:100C7000642F19940C9471050F931F93CF93DF93F6
:100C8000EC010E942F068C01CE010E944B05800FC3
:100C9000911FDF91CF911F910F910895FC01248541
:100CA0003585F901E05CFF4F80819181329620818A
:100CB0003181821B930B8F7399270895DC011C9659
:100CC000ED91FC911D97DF01A05CBF4F2D913C91F0
:100CD000119712968D919C9111972817390739F029
:100CE0008D919C91E80FF91F808190E008958FEF1E
:100CF0009FEF0895FC01A485B585FD01E05CFF4FE1
:100D0000208131813296808191812817390779F0CD
:100D100080819181A80FB91F8C91208131812F5F33
:100D20003F4F2F7333273183208390E008958FEF57
:100D30009FEF0895FC0181A1882329F0A489B5893A
:100D40008C9186FFFBCF11A208950F931F93CF9331
:100D5000DF93FC01A685B7858D01005C1F4FE8017C
:100D60008881998101968F739927AD014E5B5F4F02
:100D7000EA012881398182179307D1F3E80128819C
:100D80003981A20FB31F6C93A685B785A05CBF4FB6
:100D900011969C938E93A689B7892C9181E090E05F
:100DA000078C02C0880F991F0A94E2F7822B8C935C
:100DB00081E081A30488F589E02D808180648083AF
:100DC00081E090E0DF91CF911F910F910895FB0199
:100DD000E05CFF4F208131812F5F3F4F2F7333271E
:100DE000DB01AE5BBF4F4D915C912417350741F09D
:100DF00040815181DB01A40FB51F8C933183208387
:100E000008951F920F920FB60F9211240BB60F92F6
:100E10002F933F934F935F936F937F938F939F9302
:100E2000AF93BF93EF93FF938091C00082FD07C003
:100E30008091C60069E175E00E94E70602C08091DA
:100E4000C600FF91EF91BF91AF919F918F917F91DC
:100E50006F915F914F913F912F910F900BBE0F902B
:100E60000FBE0F901F9018951F920F920FB60F9202
:100E700011240BB60F922F933F934F935F936F9371
:100E80007F938F939F93AF93BF93EF93FF93809143
:100E9000C80082FD07C08091CE0061E974E00E9425
:100EA000E70602C08091CE00FF91EF91BF91AF9114
:100EB0009F918F917F916F915F914F913F912F9172
:100EC0000F900BBE0F900FBE0F901F9018951F92A2
:100ED0000F920FB60F9211240BB60F922F933F93E0
:100EE0004F935F936F937F938F939F93AF93BF9332
:100EF000EF93FF938091D00082FD07C08091D600D0
:100F000069E074E00E94E70602C08091D600FF917C
:100F1000EF91BF91AF919F918F917F916F915F9171
:100F20004F913F912F910F900BBE0F900FBE0F90DE
:100F30001F9018951F920F920FB60F9211240BB6A7
:100F40000F922F933F934F935F936F937F938F9362
:100F50009F93AF93BF93EF93FF938091300182FDF6
:100F600007C08091360161E873E00E94E70602C085
:100F700080913601FF91EF91BF91AF919F918F9139
:100F80007F916F915F914F913F912F910F900BBE89
:100F90000F900FBE0F901F9018951F920F920FB6D3
:100FA0000F9211240BB60F922F933F938F939F9321
:100FB000EF93FF9320911505309116058091170549
:100FC000909118052817390731F48091C1008F7D61
:100FD0008093C10014C0E0911705F0911805EB5201
:100FE000FB4F2081809117059091180501968F7312
:100FF000992790931805809317052093C600FF91B9
:10100000EF919F918F913F912F910F900BBE0F9079
:101010000FBE0F901F9018951F920F920FB60F9250
:1010200011240BB60F922F933F938F939F93EF93BF
:10103000FF9320918D0430918E0480918F049091C4
:1010400090042817390731F48091C9008F7D80936F
:10105000C90014C0E0918F04F0919004E35BFB4F52
:10106000208180918F049091900401968F7399272D
:101070009093900480938F042093CE00FF91EF9182
:101080009F918F913F912F910F900BBE0F900FBEAC
:101090000F901F9018951F920F920FB60F92112468
:1010A0000BB60F922F933F938F939F93EF93FF93E2
:1010B0002091050430910604809107049091080462
:1010C0002817390731F48091D1008F7D8093D100AA
:1010D00014C0E0910704F0910804EB53FC4F208109
:1010E000809107049091080401968F73992790933B
:1010F0000804809307042093D600FF91EF919F91FD
:101100008F913F912F910F900BBE0F900FBE0F90BC
:101110001F9018951F920F920FB60F9211240BB6C5
:101120000F922F933F938F939F93EF93FF93209171
:101130007D0330917E0380917F0390918003281777
:10114000390731F4809131018F7D8093310114C0D2
:10115000E0917F03F0918003E35CFC4F208180915C
:101160007F039091800301968F739927909380035A
:1011700080937F0320933601FF91EF919F918F9190
:101180003F912F910F900BBE0F900FBE0F901F90AD
:101190001895CF92DF92EF92FF920F931F93CF9308
:1011A000DF93EC016A017B014115514E6105710528
:1011B00009F1EC89FD8981E090E008A002C0880F68
:1011C000991F0A94E2F7808360E079E08DE390E074
:1011D000A70196010E94860A89019A01015011090E
:1011E000210931093695279517950795980101151D
:1011F0001041A8F0EC89FD89108260E874E88EE166
:1012000090E0A70196010E94860ADA01C9010197C0
:10121000A109B109B695A795979587959C01E8898D
:10122000F9893083EA89FB89208319A2EE89FF8935
:10123000408181E090E09C010C8C02C0220F331FA2
:101240000A94E2F7242B2083EE89FF8940819C01D8
:101250000D8C02C0220F331F0A94E2F7242B208347
:10126000EE89FF8940819C010E8C02C0220F331F42
:101270000A94E2F7242B2083EE89FF8920810F8CCA
:1012800002C0880F991F0A94E2F780958223808319
:10129000DF91CF911F910F91FF90EF90DF90CF9052
:1012A0000895CF92DF92EF92FF92EBE1F3E0138289
:1012B000128288EEC82E83E0D82EE12CF12CC48255
:1012C000D582E682F7826EE972E07183608389E1FC
:1012D00095E09587848785ED94E09787868785ECF0
:1012E00090E0918B808B84EC90E0938B828B80ECF0
:1012F00090E0958B848B81EC90E0978B868B82ECD1
:1013000090E0918F808F86EC90E0938F828F44E005
:10131000448F33E0358F27E0268F95E0978F81E06B
:1013200080A3E9EFF2E013821282C482D582E682C2
:10133000F78271836083A1E9B4E0B587A487ADE447
:10134000B4E0B787A687ADECB0E0B18BA08BACEC76
:10135000B0E0B38BA28BA8ECB0E0B58BA48BA9EC6A
:10136000B0E0B78BA68BAAECB0E0B18FA08FAEEC4B
:10137000B0E0B38FA28F448F358F268F978F80A3D5
:10138000E7EDF2E013821282C482D582E682F78210
:1013900071836083A9E0B4E0B587A487A5ECB3E0CE
:1013A000B787A687A5EDB0E0B18BA08BA4EDB0E028
:1013B000B38BA28BA0EDB0E0B58BA48BA1EDB0E018
:1013C000B78BA68BA2EDB0E0B18FA08FA6EDB0E0F9
:1013D000B38FA28F448F358F268F978F80A3E5EB35
:1013E000F2E013821282C482D582E682F782718390
:1013F000608361E873E0758764876DE373E07787E6
:10140000668765E371E0718B608B64E371E0738BD9
:10141000628B60E371E0758B648B61E371E0778BC5
:10142000668B62E371E0718F608F66E371E0738FAA
:10143000628F448F358F268F978F80A3FF90EF9018
:10144000DF90CF9008951F93FC0199278827BC0156
:10145000E89411911032E9F3193010F01E30C8F3FE
:101460001B3251F01D3249F4689406C00E944D0AA7
:10147000610F711D811D911D119110531A30B0F330
:101480003EF490958095709561957F4F8F4F9F4F5B
:101490001F910895F8940C94DE0A592F482F372F86
:1014A000262F660F771F881F991F660F771F881FCB
:1014B000991F620F731F841F951F660F771F881F68
:1014C000991F0895DB018F939F930E94B00ABF91EB
:1014D000AF91A29F800D911DA39F900DB29F900D83
:1014E0001124089597FB072E16F4009407D077FD7A
:1014F00009D00E94BB0A07FC05D03EF49095819567
:101500009F4F0895709561957F4F0895A1E21A2E1F
:10151000AA1BBB1BFD010DC0AA1FBB1FEE1FFF1F97
:10152000A217B307E407F50720F0A21BB30BE40BE7
:10153000F50B661F771F881F991F1A9469F760952E
:101540007095809590959B01AC01BD01CF010895E8
:10155000EE0FFF1F881F8BBF0790F691E02D1994A7
:101560000E94CF0AA59F900DB49F900DA49F800D5F
:10157000911D11240895AA1BBB1B51E107C0AA1F8E
:10158000BB1FA617B70710F0A61BB70B881F991F24
:101590005A95A9F780959095BC01CD010895A29F19
:1015A000B001B39FC001A39F700D811D1124911D37
:1015B000B29F700D811D1124911D0895F894FFCFE5
:1015C0000157656C636F6D6520746F20417264759F
:1015D000696E6F206368617400596F757220707551
:1015E000626C6963206B65792069733A20004E6FE5
:1015F0007720656E74657220746865206F74686505
:10160000722041726475696E6F2773207075626C09
:101610006963206B65790049742077696C6C206E72
:101620006F7420646973706C617920756E74696C75
:1016300020796F75207072657373203C656E7465D8
:10164000723E3A2000596F7572207368617265644A
:10165000206B65792069733A200000000000A50620
:0A16600005054E067A065E069A069E
:00000001FF
