:100000000C9442010C9473010C9473010C947301D1
:100010000C9473010C9473010C9473010C94730190
:100020000C9473010C9473010C9473010C94730180
:100030000C9473010C9473010C9473010C94730170
:100040000C9473010C9473010C9473010C94730160
:100050000C9473010C9473010C9473010C94E805D7
:100060000C9473010C94A1090C946D0A0C94730107
:100070000C9473010C9473010C9473010C94730130
:100080000C9473010C9473010C9473010C94730120
:100090000C94D4090C94AC0A0C9473010C94730165
:1000A0000C9473010C9473010C9473010C94730100
:1000B0000C9473010C9473010C9473010C947301F0
:1000C0000C9473010C9473010C9473010C94070A43
:1000D0000C94EB0A0C9473010C943A0A0C942A0BBE
:1000E0000C94730127072A071D07210761072E07B4
:1000F000320738073C07400746074A074E076107A3
:10010000540758075C070C94FE080C9438070C94AD
:1001100054070C9445090C94EE080C943A090C947D
:1001200046070C9461070C942A070C942E070C9434
:1001300027070C941A090C943C070C945C070C9448
:1001400040070C94F10B0C9458070C941D070C9469
:100150004E070C9421070C944A070C94F7070C9453
:1001600032070000090A02080B0C0D070603040100
:10017000000000000000000000000000000000007F
:10018000000000000000000000000000000011104E
:100190000F00000000000000000000000000000050
:1001A00000000000000000000102102020080810DC
:1001B00020401020408002010201080402010102D7
:1001C00004081020408080402010080402018004B0
:1001D000020180402010080402010804020101020B
:1001E000040810204080010204081020408005050A
:1001F0000505070508080808020202020A0A08089D
:1002000004040404010101010101010103030303CA
:1002100003030303040707070C0C0C0C0C0C0C0C59
:100220000202020206060606060606060B0B0B0B6A
:100230000B0B0B0B000020002300260029002C00D4
:100240002F00320000010000030106010901000037
:100250002200250028002B002E003100340002016E
:100260000000050108010B01000021002400270007
:100270002A002D00300033000101000004010701B5
:100280000A01F10B11241FBECFEFD1E2DEBFCDBFBB
:1002900000E00CBF13E0A0E0B2E0E8E1FAE100E02A
:1002A0000BBF02C007900D92A233B107D9F725E02A
:1002B000A2E3B3E001C01D92A33FB207E1F711E052
:1002C000C2E4D1E000E006C021970109802FFE01C1
:1002D0000E94E80CC134D10780E00807A9F70E940A
:1002E000D5050C94C30C0C940000DC01ED91FC913D
:1002F0000190F081E02D1994CF92DF92EF92FF925E
:10030000CF93DF93C0E0D0E0C12CD12C760181E007
:100310000E94EB0681709927AC010C2E02C0440F9D
:10032000551F0A94E2F7052E000C660B770BC42AC2
:10033000D52AE62AF72A62E370E080E090E00E9486
:1003400063062196C032D10511F7C601DF91CF9126
:10035000FF90EF90DF90CF9008954F925F926F9251
:100360007F928F929F92AF92BF92CF92DF92EF9245
:10037000FF920F931F93CF93DF9300D01F92CDB7BF
:10038000DEB72B013C01CA01B901A80197010E9407
:10039000C60C69837A838B839C83C301B201A80155
:1003A00097010E94C60C4B015C01C12CD12C412C41
:1003B000512C320181E090E0A0E0B0E00C2C04C0B0
:1003C000880F991FAA1FBB1F0A94D2F78821992171
:1003D000AA21BB21892B8A2B8B2B91F069817A81F1
:1003E0008B819C81A80197010E94C60C640D751D2C
:1003F000861D971DA80197010E94C60C2B013C0188
:1004000069817A818B819C81660F771F881F991F74
:10041000A80197010E94C60C69837A838B839C8311
:100420002FEFC21AD20A8FE1C816D10419F6C30100
:10043000B2010F900F900F900F90DF91CF911F910D
:100440000F91FF90EF90DF90CF90BF90AF909F9073
:100450008F907F906F905F904F9008954F925F9232
:100460006F927F928F929F92AF92BF92EF92FF9284
:100470000F931F93CF93DF93CDB7DEB728970FB6B7
:10048000F894DEBF0FBECDBF2B013C0129833A8318
:100490004B835C834701580161E070E080E090E0AD
:1004A000A80197010E94C60C6D837E838F83988775
:1004B000C301B201A80197010E94C60C2B013C01A7
:1004C00089819A81AB81BC81892B8A2B8B2B41F14D
:1004D000898180FF0EC085017401A30192016D81A5
:1004E0007E818F8198850E94AD016D837E838F838D
:1004F000988785017401A3019201C301B2010E9492
:10050000AD012B013C0189819A81AB81BC81B695FB
:10051000A7959795879589839A83AB83BC83D0CF22
:100520006D817E818F819885A50194010E94C60C02
:1005300028960FB6F894DEBF0FBECDBFDF91CF91E6
:100540001F910F91FF90EF90BF90AF909F908F9071
:100550007F906F905F904F9008951F93CF93DF939C
:10056000172FD82FC92F062E000C770B8BE493E0A2
:100570000E947501612F110F770B8BE493E00E94AD
:1005800075016D2FDD0F770B8BE493E00E947501F1
:100590006C2FCC0F770B8BE493E0DF91CF911F9101
:1005A0000C9475014F925F926F927F928F929F92FF
:1005B000AF92BF92CF92DF92EF92FF924B015C011C
:1005C000950144275527AFE8BCEB0E94F00C6B0166
:1005D0007C012B013C019FE07694679457944794EB
:1005E0009A95D1F7A5019401442755270E94F00C54
:1005F000DC01CB01840D951DA61DB71DE894D7F82D
:10060000EE24FF247601DD24CC24BC01CD016C0D49
:100610007D1D8E1D9F1D97FF04C06F5F7F4F8F4F05
:100620009F47FF90EF90DF90CF90BF90AF909F904B
:100630008F907F906F905F904F900895EF92FF9210
:100640001F93CF93DF93182FCB017901C0E0D0E047
:10065000CE15DF0534F4BA010E94D202AB01219617
:10066000F7CF812F8427DF91CF911F91FF90EF90DB
:1006700008958F929F92AF92BF92CF92DF92EF92A6
:10068000FF92CF93DF93C82F4A015B010E9432068D
:100690006B017C01C80CD91CEA1CFB1CD0E08BE46C
:1006A00093E00E94EE088C179D0754F08BE493E0D2
:1006B0000E94EE0821E08C179D079CF420E011C0F9
:1006C000B7FE07C061E070E080E090E00E94630642
:1006D000E6CF0E9432066C157D058E059F0590F3CE
:1006E000E5CF822FDF91CF91FF90EF90DF90CF90F9
:1006F000BF90AF909F908F900895CF92DF92EF922E
:10070000FF920F931F93CF93DF938BE493E00E94AC
:100710001A09EC018BE493E00E941A098C018BE426
:1007200093E00E941A09A801110F660B770B762F30
:10073000652F542F44278C01990F220B330B9801FE
:1007400011270027402B512B622B732BCE01DD0F7D
:10075000AA0BBB0B6A017B01C82AD92AEA2AFB2A09
:100760008BE493E00E941A09092E000CAA0BBB0B24
:10077000B82FAA2799278827BC01CD016C297D298C
:100780008E299F29DF91CF911F910F91FF90EF90BC
:10079000DF90CF900895609100028BE493E00E9477
:1007A0004509609136037091370380913803909129
:1007B00039030E94AD0269E072E081EB93E00E9490
:1007C000510848EE53E060E070E081E00E94390398
:1007D000882309F36EE172E081EB93E00E945108F7
:1007E0008BE493E00E94EE08892BD1F30E947D03F5
:1007F00060933A0370933B0380933C0390933D03D3
:10080000609101028BE493E00C9445096AE272E086
:1008100081EB93E00E9451088BE493E00E94EE0884
:10082000892BD1F38BE493E00E941A0967E372E00D
:1008300081EB93E00E94510848EE53E060E070E0E5
:1008400084E00E943903882341F16AE472E081EB7D
:1008500093E00E9451080E947D03AB01BC014093CC
:100860003A0350933B0360933C0370933D032AE0AB
:1008700030E081EB93E00E94DC08609101028BE4A0
:1008800093E00E944509609136037091370380918F
:100890003803909139030E94AD0248EE53E060E0C6
:1008A00070E081E00E943903882319F16EE172E063
:1008B00081EB93E00E9451088BE493E00E941A09B7
:1008C0002091010230E08217930719F46BE572E082
:1008D0000CC08BE493E00E941A092091000230E0E2
:1008E0008217930731F464E672E081EB93E00E9493
:1008F00051086CE672E081EB93E00C94510861E8DA
:1009000072E081EB93E00E9451088DE00E94CE07D7
:10091000019771F462E972E081EB93E00E94510863
:100920000E9406046DE972E081EB93E00C9451089B
:100930006FEA72E081EB93E00E9451080C94CB03C4
:100940008F929F92AF92BF92CF92DF92EF92FF92DF
:100950000F931F93CF93DF930E94890660E081E09D
:100960000E94620761E081E00E949E0760E08DE0E6
:100970000E94620740E855E260E070E081EB93E09E
:100980000E94690B40E855E260E070E08BE493E080
:100990000E94690B6AEB72E081EB93E00E945108C0
:1009A0000E947C01EC014C01A12CB12CE0900402CE
:1009B000F090050200910602109107026091020278
:1009C00070910302072E000C880B990BA50194016E
:1009D0000E942E026B017C0162ED72E081EB93E0DC
:1009E0000E9434084AE050E0BE0181EB93E00E948F
:1009F000C60868EE72E081EB93E00E9434082AE0BA
:100A000030E0B701A60181EB93E00E94DC0881EBA6
:100A100093E00E943D080E947F04E0900402F09061
:100A20000502009106021091070260913A0370914D
:100A30003B0380913C0390913D03A50194010E94EA
:100A40002E0260933E0370933F0380934003909384
:100A500041036DEF72E081EB93E00E943408409116
:100A60003A0350913B0360913C0370913D032AE0AF
:100A700030E081EB93E00E94B90881EB93E00E94A3
:100A80003D086CE073E081EB93E00E9434084091F4
:100A90003E0350913F0360914003709141032AE06F
:100AA00030E081EB93E00E94DC0881EB93E00E9450
:100AB0003D0881EB93E0DF91CF911F910F91FF9063
:100AC000EF90DF90CF90BF90AF909F908F900C945D
:100AD0003D08CF9381EB93E00E941A09C82F682F3D
:100AE00081EB93E00E944509209134033091350356
:100AF00040913E0350913F03609140037091410348
:100B00008C2F0E941E03682F8BE493E00E944509FE
:100B100020913403309135032F5F3F4F30933503DD
:100B200020933403CD30F1F440913E0350913F03C4
:100B300060914003709141038AE00E941E03682F78
:100B40008BE493E00E944509809134039091350332
:100B50000196909335038093340381EB93E0CF911A
:100B60000C943D08CF9108958BE493E00E941A09FC
:100B7000209132033091330340913E0350913F0363
:100B800060914003709141030E941E03682F81EB26
:100B900093E00E94450980913203909133030196BE
:100BA000909333038093320308950E94A00481EB55
:100BB00093E00E94EE08892B11F00E9469058BE4F6
:100BC00093E00E94EE08892B91F30E94B405EFCFC9
:100BD0001F920F920FB60F9211242F933F938F9372
:100BE0009F93AF93BF938091430390914403A0914F
:100BF0004503B09146033091420323E0230F2D3784
:100C000020F40196A11DB11D05C026E8230F029610
:100C1000A11DB11D2093420380934303909344038D
:100C2000A0934503B09346038091470390914803F6
:100C3000A0914903B0914A030196A11DB11D809373
:100C4000470390934803A0934903B0934A03BF918D
:100C5000AF919F918F913F912F910F900FBE0F9069
:100C60001F9018952FB7F894609143037091440337
:100C700080914503909146032FBF08953FB7F894A4
:100C80008091470390914803A0914903B0914A0392
:100C900026B5A89B05C02F3F19F00196A11DB11DD7
:100CA0003FBFBA2FA92F982F8827820F911DA11D12
:100CB000B11DBC01CD0142E0660F771F881F991F4F
:100CC0004A95D1F70895CF92DF92EF92FF92CF939A
:100CD000DF936B017C010E943E06EB01C114D1043D
:100CE000E104F10479F00E943E066C1B7D0B683E26
:100CF0007340A0F381E0C81AD108E108F108C85197
:100D0000DC4FECCFDF91CF91FF90EF90DF90CF9051
:100D10000895789484B5826084BD84B5816084BD73
:100D200085B5826085BD85B5816085BDEEE6F0E064
:100D3000808181608083E1E8F0E0108280818260C0
:100D40008083808181608083E0E8F0E08081816041
:100D50008083E1EBF0E0808184608083E0EBF0E071
:100D6000808181608083E1E9F0E08081826080831E
:100D7000808181608083E0E9F0E080818160808310
:100D8000E1EAF0E0808182608083808181608083FD
:100D9000E0EAF0E0808181608083E1E2F1E080813F
:100DA00082608083808181608083E0E2F1E08081E5
:100DB00081608083EAE7F0E08081846080838081C5
:100DC000826080838081816080838081806880836D
:100DD0001092C1000895863308F0865390917B00ED
:100DE000282F2870977F922B90937B0087702091FB
:100DF000080290E4299F90011124822B80937C00AB
:100E000080917A00806480937A0080917A0086FDD8
:100E1000FCCF809178002091790090E0922B08958A
:100E200090E0FC013197E131F10508F04AC08827D4
:100E3000EE58FF4F8F4F0C94E80C809180008F7715
:100E400003C0809180008F7D80938000089584B5D9
:100E50008F7702C084B58F7D84BD08958091B000E6
:100E60008F7703C08091B0008F7D8093B00008958C
:100E7000809190008F7707C0809190008F7D03C094
:100E800080919000877F8093900008958091A000CA
:100E90008F7707C08091A0008F7D03C08091A00054
:100EA000877F8093A0000895809120018F7707C0ED
:100EB000809120018F7D03C080912001877F8093E6
:100EC00020010895CF93DF9390E0FC01E855FE4F99
:100ED0002491FC01E251FE4F8491882361F190E05E
:100EE000880F991FFC01E859FD4FC591D491FC0171
:100EF000E25BFD4FA591B491611109C09FB7F894D1
:100F00008881209582238883EC912E230BC0623048
:100F100061F49FB7F8943881822F8095832388836A
:100F2000EC912E2B2C939FBF06C08FB7F894E881CD
:100F30002E2B28838FBFDF91CF9108951F93CF93DE
:100F4000DF93282F30E0F901EE59FE4F8491F9012B
:100F5000E855FE4FD491F901E251FE4FC491CC23E4
:100F6000C9F0162F81110E941007EC2FF0E0EE0F50
:100F7000FF1FE25BFD4FA591B4918FB7F89411115B
:100F800005C09C91ED2FE095E92302C0EC91ED2B7B
:100F9000EC938FBFDF91CF911F910895CF93DF9393
:100FA000282F30E0F901EE59FE4F8491F901E85500
:100FB000FE4FD491F901E251FE4FC491CC2391F040
:100FC00081110E941007EC2FF0E0EE0FFF1FEC5C88
:100FD000FD4FA591B491EC91ED2381E090E021F4D7
:100FE00080E002C080E090E0DF91CF910895CF9241
:100FF000DF92EF92FF920F931F93CF93DF936C01D9
:10100000EB017B01E40EF51E00E010E0CE15DF05DC
:1010100061F06991D601ED91FC910190F081E02D94
:10102000C6011995080F191FF1CFC801DF91CF91A3
:101030001F910F91FF90EF90DF90CF900895611571
:10104000710579F0FB0101900020E9F73197AF01BC
:10105000461B570BDC01ED91FC910280F381E02DE2
:10106000199480E090E008950C941F08DC01ED9144
:10107000FC910190F081E02D19940F931F93CF9371
:10108000DF93EC016DE00E9436088C016AE0CE012E
:101090000E943608800F911FDF91CF911F910F9111
:1010A00008950F931F93CF93DF93EC010E941F08C5
:1010B0008C01CE010E943D08800F911FDF91CF91DE
:1010C0001F910F9108958F929F92AF92BF92CF92EE
:1010D000DF92EF92FF920F931F93CF93DF93CDB7E1
:1010E000DEB7A1970FB6F894DEBF0FBECDBF6C017F
:1010F000142FE52FCB01022F19A2223008F40AE0A9
:101100007E0121E2E20EF11C802E912CA12CB12C4B
:10111000612F7E2FA50194010E94C60C029F101919
:10112000112481E0E81AF1081A3014F4105D01C0AE
:10113000195CF7011083122FE32FCA01232B242BF4
:10114000252B31F7B701C6010E941F08A1960FB6E3
:10115000F894DEBF0FBECDBFDF91CF911F910F91ED
:10116000FF90EF90DF90CF90BF90AF909F908F90C7
:1011700008952115310541F4DC01ED91FC910190B8
:10118000F081E02D642F19940C9463080F931F9342
:10119000CF93DF93EC019A01AB0160E070E00E9415
:1011A000B9088C01CE010E943D08800F911FDF918C
:1011B000CF911F910F9108950F931F93CF93DF93BA
:1011C000EC010E94B9088C01CE010E943D08800FFD
:1011D000911FDF91CF911F910F910895FC012485FC
:1011E0003585F901E05CFF4F808191813296208145
:1011F0003181821B930B8F7399270895DC011C9614
:10120000ED91FC911D97DF01A05CBF4F2D913C91AA
:10121000119712968D919C9111972817390739F0E3
:101220008D919C91E80FF91F808190E008958FEFD8
:101230009FEF0895FC01A485B585FD01E05CFF4F9B
:10124000208131813296808191812817390779F088
:1012500080819181A80FB91F8C91208131812F5FEE
:101260003F4F2F7333273183208390E008958FEF12
:101270009FEF0895FC0181A1882329F0A489B589F5
:101280008C9186FFFBCF11A208950F931F93CF93EC
:10129000DF93FC01A685B7858D01005C1F4FE80137
:1012A0008881998101968F739927AD014E5B5F4FBD
:1012B000EA012881398182179307D1F3E801288157
:1012C0003981A20FB31F6C93A685B785A05CBF4F71
:1012D00011969C938E93A689B7892C9181E090E01A
:1012E000078C02C0880F991F0A94E2F7822B8C9317
:1012F00081E081A30488F589E02D8081806480836A
:1013000081E090E0DF91CF911F910F910895FB0153
:10131000E05CFF4F208131812F5F3F4F2F733327D8
:10132000DB01AE5BBF4F4D915C912417350741F057
:1013300040815181DB01A40FB51F8C933183208341
:1013400008951F920F920FB60F9211240BB60F92B1
:101350002F933F934F935F936F937F938F939F93BD
:10136000AF93BF93EF93FF938091C00082FD07C0BE
:101370008091C6006FEA75E00E94870902C08091E3
:10138000C600FF91EF91BF91AF919F918F917F9197
:101390006F915F914F913F912F910F900BBE0F90E6
:1013A0000FBE0F901F9018951F920F920FB60F92BD
:1013B00011240BB60F922F933F934F935F936F932C
:1013C0007F938F939F93AF93BF93EF93FF938091FE
:1013D000C80082FD07C08091CE0067E275E00E94E0
:1013E000870902C08091CE00FF91EF91BF91AF912C
:1013F0009F918F917F916F915F914F913F912F912D
:101400000F900BBE0F900FBE0F901F9018951F925C
:101410000F920FB60F9211240BB60F922F933F939A
:101420004F935F936F937F938F939F93AF93BF93EC
:10143000EF93FF938091D00082FD07C08091D6008A
:101440006FE974E00E94870902C08091D600FF9185
:10145000EF91BF91AF919F918F917F916F915F912C
:101460004F913F912F910F900BBE0F900FBE0F9099
:101470001F9018951F920F920FB60F9211240BB662
:101480000F922F933F934F935F936F937F938F931D
:101490009F93AF93BF93EF93FF938091300182FDB1
:1014A00007C08091360167E174E00E94870902C09D
:1014B00080913601FF91EF91BF91AF919F918F91F4
:1014C0007F916F915F914F913F912F910F900BBE44
:1014D0000F900FBE0F901F9018951F920F920FB68E
:1014E0000F9211240BB60F922F933F938F939F93DC
:1014F000EF93FF932091AB053091AC058091AD0542
:101500009091AE052817390731F48091C1008F7D85
:101510008093C10014C0E091AD05F091AE05E5598E
:10152000FA4F20818091AD059091AE0501968F73A1
:1015300099279093AE058093AD052093C600FF9147
:10154000EF919F918F913F912F910F900BBE0F9034
:101550000FBE0F901F9018951F920F920FB60F920B
:1015600011240BB60F922F933F938F939F93EF937A
:10157000FF932091230530912405809125059091BA
:1015800026052817390731F48091C9008F7D809393
:10159000C90014C0E0912505F0912605ED51FB4FDF
:1015A0002081809125059091260501968F739927BA
:1015B00090932605809325052093CE00FF91EF910F
:1015C0009F918F913F912F910F900BBE0F900FBE67
:1015D0000F901F9018951F920F920FB60F92112423
:1015E0000BB60F922F933F938F939F93EF93FF939D
:1015F00020919B0430919C0480919D0490919E04C5
:101600002817390731F48091D1008F7D8093D10064
:1016100014C0E0919D04F0919E04E55AFB4F208197
:1016200080919D0490919E0401968F7399279093C9
:101630009E0480939D042093D600FF91EF919F918B
:101640008F913F912F910F900BBE0F900FBE0F9077
:101650001F9018951F920F920FB60F9211240BB680
:101660000F922F933F938F939F93EF93FF9320912C
:1016700013043091140480911504909116042817D6
:10168000390731F4809131018F7D8093310114C08D
:10169000E0911504F0911604ED52FC4F20818091E9
:1016A00015049091160401968F7399279093160450
:1016B0008093150420933601FF91EF919F918F91B4
:1016C0003F912F910F900BBE0F900FBE0F901F9068
:1016D0001895CF92DF92EF92FF920F931F93CF93C3
:1016E000DF93EC016A017B014115514E61057105E3
:1016F00009F1EC89FD8981E090E008A002C0880F23
:10170000991F0A94E2F7808360E079E08DE390E02E
:10171000A70196010E94C60C89019A010150110986
:1017200021093109369527951795079598010115D7
:101730001041A8F0EC89FD89108260E874E88EE120
:1017400090E0A70196010E94C60CDA01C901019739
:10175000A109B109B695A795979587959C01E88948
:10176000F9893083EA89FB89208319A2EE89FF89F0
:10177000408181E090E09C010C8C02C0220F331F5D
:101780000A94E2F7242B2083EE89FF8940819C0193
:101790000D8C02C0220F331F0A94E2F7242B208302
:1017A000EE89FF8940819C010E8C02C0220F331FFD
:1017B0000A94E2F7242B2083EE89FF8920810F8C85
:1017C00002C0880F991F0A94E2F7809582238083D4
:1017D000DF91CF911F910F91FF90EF90DF90CF900D
:1017E0000895CF92DF92EF92FF92E1EBF3E0138244
:1017F000128288EEC82E83E0D82EE12CF12CC48210
:10180000D582E682F78265E273E0718360838FEAB6
:1018100095E0958784878BE695E09787868785ECAA
:1018200090E0918B808B84EC90E0938B828B80ECAA
:1018300090E0958B848B81EC90E0978B868B82EC8B
:1018400090E0918F808F86EC90E0938F828F44E0C0
:10185000448F33E0358F27E0268F95E0978F81E026
:1018600080A3EFE8F3E013821282C482D582E6827D
:10187000F78271836083A7E2B5E0B587A487A3EE02
:10188000B4E0B787A687ADECB0E0B18BA08BACEC31
:10189000B0E0B38BA28BA8ECB0E0B58BA48BA9EC25
:1018A000B0E0B78BA68BAAECB0E0B18FA08FAEEC06
:1018B000B0E0B38FA28F448F358F268F978F80A390
:1018C000EDE6F3E013821282C482D582E682F782CB
:1018D00071836083AFE9B4E0B587A487ABE5B4E07A
:1018E000B787A687A5EDB0E0B18BA08BA4EDB0E0E3
:1018F000B38BA28BA0EDB0E0B58BA48BA1EDB0E0D3
:10190000B78BA68BA2EDB0E0B18FA08FA6EDB0E0B3
:10191000B38FA28F448F358F268F978F80A3EBE4F0
:10192000F3E013821282C482D582E682F782718349
:10193000608367E174E07587648763ED73E07787A0
:10194000668765E371E0718B608B64E371E0738B94
:10195000628B60E371E0758B648B61E371E0778B80
:10196000668B62E371E0718F608F66E371E0738F65
:10197000628F448F358F268F978F80A3FF90EF90D3
:10198000DF90CF900895F8940C940A0DA1E21A2EDE
:10199000AA1BBB1BFD010DC0AA1FBB1FEE1FFF1F13
:1019A000A217B307E407F50720F0A21BB30BE40B63
:1019B000F50B661F771F881F991F1A9469F76095AA
:1019C0007095809590959B01AC01BD01CF01089564
:1019D000EE0FFF1F881F8BBF0790F691E02D199423
:1019E0000E94FB0CA59F900DB49F900DA49F800DAD
:1019F000911D11240895A29FB001B39FC001A39F20
:101A0000700D811D1124911DB29F700D811D112437
:081A1000911D0895F894FFCF29
:101A18004341A741FFFFFF7F017772697465206327
:101A28007220616E64206F776E206B657900676F36
:101A3800742061206279746521006C697374656E25
:101A4800696E672E2E2E0077616974696E6720664D
:101A58006F72206B65792E2E2E00676F74206120BF
:101A68003332626974206B65792100676F74206175
:101A7800636B2100676F7420637221006461746175
:101A88002065786368616E676520706F696E742E73
:101A980000676F7420746F2068616E647368616B8F
:101AA800650049276D2073657276657200676F74EB
:101AB800206F7574206F66207365727665720049B1
:101AC800276D20636C69656E740057656C636F6D74
:101AD8006520746F2041726475696E6F2063686158
:101AE8007400596F75722070726976617465206B25
:101AF80065792069733A2000596F75722070756294
:101B08006C6963206B65792069733A20004F7468AB
:101B18006572206B65792069733A2000596F757278
:101B280020736861726564206B65792069733A2057
:101B380000000000004509F707EE081A09FE083AF8
:021B4800090092
:00000001FF
