:100000000C9442010C9473010C9473010C947301D1
:100010000C9473010C9473010C9473010C94730190
:100020000C9473010C9473010C9473010C94730180
:100030000C9473010C9473010C9473010C94730170
:100040000C9473010C9473010C9473010C94730160
:100050000C9473010C9473010C9473010C94A60519
:100060000C9473010C9449090C94150A0C947301B7
:100070000C9473010C9473010C9473010C94730130
:100080000C9473010C9473010C9473010C94730120
:100090000C947C090C94540A0C9473010C94730115
:1000A0000C9473010C9473010C9473010C94730100
:1000B0000C9473010C9473010C9473010C947301F0
:1000C0000C9473010C9473010C9473010C94AF099C
:1000D0000C94930A0C9473010C94E2090C94D20AC8
:1000E0000C947301E506E806DB06DF061F07EC0645
:1000F000F006F606FA06FE06040708070C071F07B7
:10010000120716071A070C94ED080C94EC060C94D1
:1001100096080C94E2080C94FA060C94F6060C94DB
:10012000A6080C9412070C9416070C94C2080C94A1
:10013000B5070C94DB060C9404070C94DF060C94B2
:10014000E8060C94FE060C940C070C94F0060C9434
:100150001F070C941A070C94990B0C94E5060C9449
:1001600008070000090A02080B0C0D07060304012A
:10017000000000000000000000000000000000007F
:10018000000000000000000000000000000011104E
:100190000F00000000000000000000000000000050
:1001A00000000000000000000102102020080810DC
:1001B00020401020408002010201080402010102D7
:1001C00004081020408080402010080402018004B0
:1001D000020180402010080402010804020101020B
:1001E000040810204080010204081020408005050A
:1001F0000505070508080808020202020A0A08089D
:1002000004040404010101010101010103030303CA
:1002100003030303040707070C0C0C0C0C0C0C0C59
:100220000202020206060606060606060B0B0B0B6A
:100230000B0B0B0B000020002300260029002C00D4
:100240002F00320000010000030106010901000037
:100250002200250028002B002E003100340002016E
:100260000000050108010B01000021002400270007
:100270002A002D00300033000101000004010701B5
:100280000A01990B11241FBECFEFD1E2DEBFCDBF13
:1002900000E00CBF12E0A0E0B2E0E8E6F9E100E027
:1002A0000BBF02C007900D92AE33B107D9F724E01F
:1002B000AEE3B2E001C01D92AF3FB207E1F711E03B
:1002C000C2E4D1E000E006C021970109802FFE01C1
:1002D0000E94900CC134D10780E00807A9F70E9462
:1002E00087050C946B0C0C940000DC01ED91FC91E3
:1002F0000190F081E02D1994CF92DF92EF92FF925E
:10030000CF93DF93C0E0D0E0C12CD12C760181E007
:100310000E94A906817099270C2E02C0880F991F90
:100320000A94E2F7092E000CAA0BBB0BC82AD92AA3
:10033000EA2AFB2A62E370E080E090E00E94210656
:100340002196C032D10519F7C701B601DF91CF91CF
:10035000FF90EF90DF90CF9008954F925F926F9251
:100360007F928F929F92AF92BF92CF92DF92EF9245
:10037000FF920F931F93CF93DF9300D01F92CDB7BF
:10038000DEB72B013C01CA01B901A80197010E9407
:100390006E0C69837A838B839C83C301B201A801AD
:1003A00097010E946E0C4B015C01C12CD12C412C99
:1003B000512C320181E090E0A0E0B0E00C2C04C0B0
:1003C000880F991FAA1FBB1F0A94D2F78821992171
:1003D000AA21BB21892B8A2B8B2B91F069817A81F1
:1003E0008B819C81A80197010E946E0C640D751D84
:1003F000861D971DA80197010E946E0C2B013C01E0
:1004000069817A818B819C81660F771F881F991F74
:10041000A80197010E946E0C69837A838B839C8369
:100420002FEFC21AD20A8FE1C816D10419F6C30100
:10043000B2010F900F900F900F90DF91CF911F910D
:100440000F91FF90EF90DF90CF90BF90AF909F9073
:100450008F907F906F905F904F9008954F925F9232
:100460006F927F928F929F92AF92BF92EF92FF9284
:100470000F931F93CF93DF93CDB7DEB728970FB6B7
:10048000F894DEBF0FBECDBF2B013C0129833A8318
:100490004B835C834701580161E070E080E090E0AD
:1004A000A80197010E946E0C6D837E838F839887CD
:1004B000C301B201A80197010E946E0C2B013C01FF
:1004C00089819A81AB81BC81892B8A2B8B2B41F14D
:1004D000898180FF0EC085017401A30192016D81A5
:1004E0007E818F8198850E94AD016D837E838F838D
:1004F000988785017401A3019201C301B2010E9492
:10050000AD012B013C0189819A81AB81BC81B695FB
:10051000A7959795879589839A83AB83BC83D0CF22
:100520006D817E818F819885A50194010E946E0C5A
:1005300028960FB6F894DEBF0FBECDBFDF91CF91E6
:100540001F910F91FF90EF90BF90AF909F908F9071
:100550007F906F905F904F9008951F93CF93DF939C
:10056000172FD82FC92F062E000C770B87E592E0A6
:100570000E947501612F110F770B87E592E00E94B1
:1005800075016D2FDD0F770B87E592E00E947501F5
:100590006C2FCC0F770B87E592E0DF91CF911F9105
:1005A0000C9475014F925F926F927F928F929F92FF
:1005B000AF92BF92CF92DF92EF92FF924B015C011C
:1005C000950144275527AFE8BCEB0E94980C6B01BE
:1005D0007C012B013C019FE07694679457944794EB
:1005E0009A95D1F7A5019401442755270E94980CAC
:1005F000DC01CB01840D951DA61DB71DE894D7F82D
:10060000EE24FF247601DD24CC24BC01CD016C0D49
:100610007D1D8E1D9F1D97FF04C06F5F7F4F8F4F05
:100620009F47FF90EF90DF90CF90BF90AF909F904B
:100630008F907F906F905F904F900895EF92FF9210
:100640001F93CF93DF93182FCB017901C0E0D0E047
:10065000CE15DF0534F4BA010E94D202AB01219617
:10066000F7CF812F8427DF91CF911F91FF90EF90DB
:1006700008958F929F92AF92BF92CF92DF92EF92A6
:10068000FF92CF93DF93C82F4A015B010E94F005D0
:100690006B017C01C80CD91CEA1CFB1CD0E087E56F
:1006A00092E00E9496088C179D0754F087E592E02F
:1006B0000E94960821E08C179D079CF420E011C051
:1006C000B7FE07C061E070E080E090E00E94210684
:1006D000E6CF0E94F0056C157D058E059F0590F311
:1006E000E5CF822FDF91CF91FF90EF90DF90CF90F9
:1006F000BF90AF909F908F900895CF92DF92EF922E
:10070000FF920F931F93CF93DF9387E592E00E94B0
:10071000C208EC0187E592E00E94C2088C0187E5DF
:1007200092E00E94C208A801110F660B770B762F8A
:10073000652F542F44278C01990F220B330B9801FE
:1007400011270027402B512B622B732BCE01DD0F7D
:10075000AA0BBB0B6A017B01C82AD92AEA2AFB2A09
:1007600087E592E00E94C208092E000CAA0BBB0B81
:10077000B82FAA2799278827BC01CD016C297D298C
:100780008E299F29DF91CF911F910F91FF90EF90BC
:10079000DF90CF90089580E090E0019799F063E4B6
:1007A00070E087E592E00E947501609142027091CD
:1007B000430280914402909145020E94AD0281E083
:1007C00090E0EBCF48EE53E060E070E081E00E9403
:1007D0003903882301F387E592E00E94C20881343F
:1007E0009105C9F648EE53E060E070E084E00E94B5
:1007F00039038823B9F30E947D0360934602709306
:100800004702809348029093490261E470E087E5D3
:1008100092E00C947501CF938DEB92E00E94C20898
:10082000C82F682F8DEB92E00E94ED0820914002C6
:100830003091410240914A0250914B0260914C022A
:1008400070914D028C2F0E941E03682F87E592E065
:100850000E94ED0820914002309141022F5F3F4FEE
:100860003093410220934002CD30F1F440914A028E
:1008700050914B0260914C0270914D028AE00E94AF
:100880001E03682F87E592E00E94ED0880914002E8
:1008900090914102019690934102809340028DEB2A
:1008A00092E0CF910C94FB07CF91089587E592E0F9
:1008B0000E94C20820913E0230913F0240914A02BC
:1008C00050914B0260914C0270914D020E941E03A8
:1008D000682F8DEB92E00E94ED0880913E0290918E
:1008E0003F02019690933F0280933E0208951F932A
:1008F000CF93DF93C0E0D0E010E0C130D105F9F034
:1009000044F4CD2B09F05DC087E592E00E94E20837
:1009100008C0C230D105E1F1C330D10509F449C0A6
:1009200050C087E592E00E949608892BD1F387E5B5
:1009300092E00E94C20883349105C9F745C048EE91
:1009400053E060E070E084E00E9439038823C9F13D
:100950000E947D0360934602709347028093480291
:100960009093490261E470E087E592E00E9475018E
:10097000111124C06091420270914302809144029F
:10098000909145020E94AD02C2E0D0E011E0B5CFE7
:1009900048EE53E060E070E081E00E943903882374
:1009A00081F087E592E00E94C208813481F08334AF
:1009B00059F0C330D10509F0A0CF09C0C2E0D0E0A2
:1009C0009CCFC0E0D0E099CFC1E0D0E096CFDF91DE
:1009D000CF911F9108958DE00E948C07019711F42B
:1009E0000C9477040C94CB038F929F92AF92BF929A
:1009F000EF92FF920F931F9361E072E08DEB92E014
:100A00000E940F080E947C014B015C01EE24EA94D5
:100A1000FE2C0FEF1FE7A501940167EA71E480E067
:100A200090E00E942E0260934202709343028093F2
:100A300044029093450269E172E08DEB92E00E94DE
:100A4000F20740914202509143026091440270913A
:100A500045022AE030E08DEB92E00E9484088DEBA5
:100A600092E00E94FB070E94EB04409146025091E5
:100A7000470260914802709149022AE030E08DEB14
:100A800092E00E9484086091460270914702809132
:100A9000480290914902A50194010E942E02AB01E7
:100AA000BC0140934A0250934B0260934C027093F6
:100AB0004D022AE030E08DEB92E01F910F91FF9004
:100AC000EF90BF90AF909F908F900C9484080E94FD
:100AD000470660E081E00E94200761E081E00E941B
:100AE0005C0760E08DE00E94200740E855E260E08E
:100AF00070E08DEB92E00E94110B40E855E260E05F
:100B000070E087E592E00E94110B0C94F4040E94BF
:100B1000670587E592E00E949608181619066CF49E
:100B200087E592E00E94C208F4CF87E592E00E9438
:100B30009608892B11F00E9456048DEB92E00E94DA
:100B40009608892B91F30E940B04EFCF1F920F920E
:100B50000FB60F9211242F933F938F939F93AF93D0
:100B6000BF9380914F0290915002A0915102B09199
:100B7000520230914E0223E0230F2D3720F40196CC
:100B8000A11DB11D05C026E8230F0296A11DB11DB0
:100B900020934E0280934F0290935002A0935102F3
:100BA000B09352028091530290915402A091550249
:100BB000B09156020196A11DB11D809353029093EE
:100BC0005402A0935502B0935602BF91AF919F91EA
:100BD0008F913F912F910F900FBE0F901F901895FE
:100BE0002FB7F89460914F0270915002809151029A
:100BF000909152022FBF08953FB7F894809153020D
:100C000090915402A0915502B091560226B5A89B2E
:100C100005C02F3F19F00196A11DB11D3FBFBA2F8E
:100C2000A92F982F8827820F911DA11DB11DBC01EE
:100C3000CD0142E0660F771F881F991F4A95D1F7B3
:100C40000895CF92DF92EF92FF92CF93DF936B01E3
:100C50007C010E94FC05EB01C114D104E104F10404
:100C600079F00E94FC056C1B7D0B683E7340A0F37D
:100C700081E0C81AD108E108F108C851DC4FECCF77
:100C8000DF91CF91FF90EF90DF90CF90089578940F
:100C900084B5826084BD84B5816084BD85B5826081
:100CA00085BD85B5816085BDEEE6F0E0808181601F
:100CB0008083E1E8F0E0108280818260808380811F
:100CC00081608083E0E8F0E0808181608083E1EBF7
:100CD000F0E0808184608083E0EBF0E080818160DF
:100CE0008083E1E9F0E0808182608083808181609F
:100CF0008083E0E9F0E0808181608083E1EAF0E0D8
:100D0000808182608083808181608083E0EAF0E07E
:100D1000808181608083E1E2F1E080818260808374
:100D2000808181608083E0E2F1E080818160808366
:100D3000EAE7F0E080818460808380818260808344
:100D40008081816080838081806880831092C1006F
:100D50000895863308F0865390917B00282F2870E1
:100D6000977F922B90937B0087702091000290E4F4
:100D7000299F90011124822B80937C0080917A001E
:100D8000806480937A0080917A0086FDFCCF809108
:100D900078002091790090E0922B089590E0FC017A
:100DA0003197E131F10508F04AC08827EE58FF4F2E
:100DB0008F4F0C94900C809180008F7703C08091AE
:100DC00080008F7D80938000089584B58F7702C066
:100DD00084B58F7D84BD08958091B0008F7703C066
:100DE0008091B0008F7D8093B00008958091900035
:100DF0008F7707C0809190008F7D03C08091900015
:100E0000877F8093900008958091A0008F7707C01E
:100E10008091A0008F7D03C08091A000877F809388
:100E2000A0000895809120018F7707C08091200154
:100E30008F7D03C080912001877F809320010895DA
:100E4000CF93DF9390E0FC01E855FE4F2491FC0125
:100E5000E251FE4F8491882361F190E0880F991F41
:100E6000FC01E859FD4FC591D491FC01E25BFD4FB7
:100E7000A591B491611109C09FB7F894888120951C
:100E800082238883EC912E230BC0623061F49FB7DC
:100E9000F8943881822F809583238883EC912E2BC0
:100EA0002C939FBF06C08FB7F894E8812E2B288320
:100EB0008FBFDF91CF9108951F93CF93DF93282F9A
:100EC00030E0F901EE59FE4F8491F901E855FE4FEB
:100ED000D491F901E251FE4FC491CC23C9F0162FF1
:100EE00081110E94CE06EC2FF0E0EE0FFF1FE25BB7
:100EF000FD4FA591B4918FB7F894111105C09C9145
:100F0000ED2FE095E92302C0EC91ED2BEC938FBF20
:100F1000DF91CF911F910895CF93DF93282F30E079
:100F2000F901EE59FE4F8491F901E855FE4FD49135
:100F3000F901E251FE4FC491CC2391F081110E943E
:100F4000CE06EC2FF0E0EE0FFF1FEC5CFD4FA591FD
:100F5000B491EC91ED2381E090E021F480E002C0B7
:100F600080E090E0DF91CF910895CF92DF92EF92F1
:100F7000FF920F931F93CF93DF936C01EB017B01E3
:100F8000E40EF51E00E010E0CE15DF0561F069917A
:100F9000D601ED91FC910190F081E02DC6011995EB
:100FA000080F191FF1CFC801DF91CF911F910F9149
:100FB000FF90EF90DF90CF9008956115710579F063
:100FC000FB0101900020E9F73197AF01461B570B59
:100FD000DC01ED91FC910280F381E02D199480E019
:100FE00090E008950C94DD07DC01ED91FC910190F7
:100FF000F081E02D19940F931F93CF93DF93EC01B1
:101000006DE00E94F4078C016AE0CE010E94F407B3
:10101000800F911FDF91CF911F910F9108950F9332
:101020001F93CF93DF93EC010E94DD078C01CE016B
:101030000E94FB07800F911FDF91CF911F910F91AD
:1010400008958F929F92AF92BF92CF92DF92EF92CC
:10105000FF920F931F93CF93DF93CDB7DEB7A19786
:101060000FB6F894DEBF0FBECDBF6C01142FE52F75
:10107000CB01022F19A2223008F40AE07E0121E2FE
:10108000E20EF11C802E912CA12CB12C612F7E2F11
:10109000A50194010E946E0C029F1019112481E099
:1010A000E81AF1081A3014F4105D01C0195CF70158
:1010B0001083122FE32FCA01232B242B252B31F76A
:1010C000B701C6010E94DD07A1960FB6F894DEBFF6
:1010D0000FBECDBFDF91CF911F910F91FF90EF9089
:1010E000DF90CF90BF90AF909F908F900895211583
:1010F000310541F4DC01ED91FC910190F081E02D8E
:10110000642F19940C9421080F931F93CF93DF93AE
:10111000EC010E9477088C01CE010E94FB07800F32
:10112000911FDF91CF911F910F910895FC012485AC
:101130003585F901E05CFF4F8081918132962081F5
:101140003181821B930B8F7399270895DC011C96C4
:10115000ED91FC911D97DF01A05CBF4F2D913C915B
:10116000119712968D919C9111972817390739F094
:101170008D919C91E80FF91F808190E008958FEF89
:101180009FEF0895FC01A485B585FD01E05CFF4F4C
:10119000208131813296808191812817390779F039
:1011A00080819181A80FB91F8C91208131812F5F9F
:1011B0003F4F2F7333273183208390E008958FEFC3
:1011C0009FEF0895FC0181A1882329F0A489B589A6
:1011D0008C9186FFFBCF11A208950F931F93CF939D
:1011E000DF93FC01A685B7858D01005C1F4FE801E8
:1011F0008881998101968F739927AD014E5B5F4F6E
:10120000EA012881398182179307D1F3E801288107
:101210003981A20FB31F6C93A685B785A05CBF4F21
:1012200011969C938E93A689B7892C9181E090E0CA
:10123000078C02C0880F991F0A94E2F7822B8C93C7
:1012400081E081A30488F589E02D8081806480831A
:1012500081E090E0DF91CF911F910F910895FB0104
:10126000E05CFF4F208131812F5F3F4F2F73332789
:10127000DB01AE5BBF4F4D915C912417350741F008
:1012800040815181DB01A40FB51F8C9331832083F2
:1012900008951F920F920FB60F9211240BB60F9262
:1012A0002F933F934F935F936F937F938F939F936E
:1012B000AF93BF93EF93FF938091C00082FD07C06F
:1012C0008091C6006BEB74E00E942F0902C08091F0
:1012D000C600FF91EF91BF91AF919F918F917F9148
:1012E0006F915F914F913F912F910F900BBE0F9097
:1012F0000FBE0F901F9018951F920F920FB60F926E
:1013000011240BB60F922F933F934F935F936F93DC
:101310007F938F939F93AF93BF93EF93FF938091AE
:10132000C80082FD07C08091CE0063E374E00E9494
:101330002F0902C08091CE00FF91EF91BF91AF9134
:101340009F918F917F916F915F914F913F912F91DD
:101350000F900BBE0F900FBE0F901F9018951F920D
:101360000F920FB60F9211240BB60F922F933F934B
:101370004F935F936F937F938F939F93AF93BF939D
:10138000EF93FF938091D00082FD07C08091D6003B
:101390006BEA73E00E942F0902C08091D600FF9192
:1013A000EF91BF91AF919F918F917F916F915F91DD
:1013B0004F913F912F910F900BBE0F900FBE0F904A
:1013C0001F9018951F920F920FB60F9211240BB613
:1013D0000F922F933F934F935F936F937F938F93CE
:1013E0009F93AF93BF93EF93FF938091300182FD62
:1013F00007C08091360163E273E00E942F0902C0AA
:1014000080913601FF91EF91BF91AF919F918F91A4
:101410007F916F915F914F913F912F910F900BBEF4
:101420000F900FBE0F901F9018951F920F920FB63E
:101430000F9211240BB60F922F933F938F939F938C
:10144000EF93FF932091B7043091B8048091B904D1
:101450009091BA042817390731F48091C1008F7D2B
:101460008093C10014C0E091B904F091BA04E95826
:10147000FB4F20818091B9049091BA0401968F733B
:1014800099279093BA048093B9042093C600FF91E2
:10149000EF919F918F913F912F910F900BBE0F90E5
:1014A0000FBE0F901F9018951F920F920FB60F92BC
:1014B00011240BB60F922F933F938F939F93EF932B
:1014C000FF9320912F04309130048091310490914A
:1014D00032042817390731F48091C9008F7D809339
:1014E000C90014C0E0913104F0913204E151FC4F85
:1014F0002081809131049091320401968F73992755
:1015000090933204809331042093CE00FF91EF91A9
:101510009F918F913F912F910F900BBE0F900FBE17
:101520000F901F9018951F920F920FB60F921124D3
:101530000BB60F922F933F938F939F93EF93FF934D
:101540002091A7033091A8038091A9039091AA0349
:101550002817390731F48091D1008F7D8093D10015
:1015600014C0E091A903F091AA03E959FC4F20812E
:101570008091A9039091AA0301968F739927909364
:10158000AA038093A9032093D600FF91EF919F9126
:101590008F913F912F910F900BBE0F900FBE0F9028
:1015A0001F9018951F920F920FB60F9211240BB631
:1015B0000F922F933F938F939F93EF93FF932091DD
:1015C0001F0330912003809121039091220328175B
:1015D000390731F4809131018F7D8093310114C03E
:1015E000E0912103F0912203E152FD4F208180918F
:1015F00021039091220301968F73992790932203E0
:101600008093210320933601FF91EF919F918F9159
:101610003F912F910F900BBE0F900FBE0F901F9018
:101620001895CF92DF92EF92FF920F931F93CF9373
:10163000DF93EC016A017B014115514E6105710593
:1016400009F1EC89FD8981E090E008A002C0880FD3
:10165000991F0A94E2F7808360E079E08DE390E0DF
:10166000A70196010E946E0C89019A01015011098F
:101670002109310936952795179507959801011588
:101680001041A8F0EC89FD89108260E874E88EE1D1
:1016900090E0A70196010E946E0CDA01C901019742
:1016A000A109B109B695A795979587959C01E889F9
:1016B000F9893083EA89FB89208319A2EE89FF89A1
:1016C000408181E090E09C010C8C02C0220F331F0E
:1016D0000A94E2F7242B2083EE89FF8940819C0144
:1016E0000D8C02C0220F331F0A94E2F7242B2083B3
:1016F000EE89FF8940819C010E8C02C0220F331FAE
:101700000A94E2F7242B2083EE89FF8920810F8C35
:1017100002C0880F991F0A94E2F780958223808384
:10172000DF91CF911F910F91FF90EF90DF90CF90BD
:101730000895CF92DF92EF92FF92EDEBF2E01382E9
:10174000128288EEC82E83E0D82EE12CF12CC482C0
:10175000D582E682F78262E372E0718360838BEB6D
:1017600094E09587848787E794E09787868785EC60
:1017700090E0918B808B84EC90E0938B828B80EC5B
:1017800090E0958B848B81EC90E0978B868B82EC3C
:1017900090E0918F808F86EC90E0938F828F44E071
:1017A000448F33E0358F27E0268F95E0978F81E0D7
:1017B00080A3EBE9F2E013821282C482D582E68232
:1017C000F78271836083A3E3B4E0B587A487AFEEAB
:1017D000B3E0B787A687ADECB0E0B18BA08BACECE3
:1017E000B0E0B38BA28BA8ECB0E0B58BA48BA9ECD6
:1017F000B0E0B78BA68BAAECB0E0B18FA08FAEECB7
:10180000B0E0B38FA28F448F358F268F978F80A340
:10181000E9E7F2E013821282C482D582E682F7827F
:1018200071836083ABEAB3E0B587A487A7E6B3E032
:10183000B787A687A5EDB0E0B18BA08BA4EDB0E093
:10184000B38BA28BA0EDB0E0B58BA48BA1EDB0E083
:10185000B78BA68BA2EDB0E0B18FA08FA6EDB0E064
:10186000B38FA28F448F358F268F978F80A3E7E5A4
:10187000F2E013821282C482D582E682F7827183FB
:10188000608363E273E0758764876FED72E077874A
:10189000668765E371E0718B608B64E371E0738B45
:1018A000628B60E371E0758B648B61E371E0778B31
:1018B000668B62E371E0718F608F66E371E0738F16
:1018C000628F448F358F268F978F80A3FF90EF9084
:1018D000DF90CF900895F8940C94B20CA1E21A2EE8
:1018E000AA1BBB1BFD010DC0AA1FBB1FEE1FFF1FC4
:1018F000A217B307E407F50720F0A21BB30BE40B14
:10190000F50B661F771F881F991F1A9469F760955A
:101910007095809590959B01AC01BD01CF01089514
:10192000EE0FFF1F881F8BBF0790F691E02D1994D3
:101930000E94A30CA59F900DB49F900DA49F800DB5
:10194000911D11240895A29FB001B39FC001A39FD0
:10195000700D811D1124911DB29F700D811D1124E8
:08196000911D0895F894FFCFDA
:101968000157656C636F6D6520746F2041726475F3
:10197800696E6F206368617400596F7572207075A5
:10198800626C6963206B65792069733A20000000F6
:0E1998000000ED08B5079608C208A608E20890
:00000001FF
