:100000000C9442010C9473010C9473010C947301D1
:100010000C9473010C9473010C9473010C94730190
:100020000C9473010C9473010C9473010C94730180
:100030000C9473010C9473010C9473010C94730170
:100040000C9473010C9473010C9473010C94730160
:100050000C9473010C9473010C9473010C94E905D6
:100060000C9473010C94A2090C946E0A0C94730105
:100070000C9473010C9473010C9473010C94730130
:100080000C9473010C9473010C9473010C94730120
:100090000C94D5090C94AD0A0C9473010C94730163
:1000A0000C9473010C9473010C9473010C94730100
:1000B0000C9473010C9473010C9473010C947301F0
:1000C0000C9473010C9473010C9473010C94080A42
:1000D0000C94EC0A0C9473010C943B0A0C942B0BBB
:1000E0000C94730128072B071E07220762072F07AE
:1000F000330739073D07410747074B074F0762079B
:10010000550759075D070C94FF080C9433070C94AE
:100110004B070C9446090C94F8070C941B090C949B
:1001200047070C9462070C943B090C944F070C94FE
:1001300028070C9439070C9422070C9455070C944B
:100140005D070C9459070C94EF080C941E070C944F
:1001500041070C943D070C942B070C94F20B0C9464
:100160002F070000090A02080B0C0D070603040103
:10017000000000000000000000000000000000007F
:10018000000000000000000000000000000011104E
:100190000F00000000000000000000000000000050
:1001A00000000000000000000102102020080810DC
:1001B00020401020408002010201080402010102D7
:1001C00004081020408080402010080402018004B0
:1001D000020180402010080402010804020101020B
:1001E000040810204080010204081020408005050A
:1001F0000505070508080808020202020A0A08089D
:1002000004040404010101010101010103030303CA
:1002100003030303040707070C0C0C0C0C0C0C0C59
:100220000202020206060606060606060B0B0B0B6A
:100230000B0B0B0B000020002300260029002C00D4
:100240002F00320000010000030106010901000037
:100250002200250028002B002E003100340002016E
:100260000000050108010B01000021002400270007
:100270002A002D00300033000101000004010701B5
:100280000A01F20B11241FBECFEFD1E2DEBFCDBFBA
:1002900000E00CBF12E0A0E0B2E0EAE1FAE100E029
:1002A0000BBF02C007900D92A439B107D9F725E022
:1002B000A4E9B2E001C01D92A535B207E1F711E053
:1002C000C2E4D1E000E006C021970109802FFE01C1
:1002D0000E94E90CC134D10780E00807A9F70E9409
:1002E000D2050C94C40C0C940000DC01ED91FC913F
:1002F0000190F081E02D1994CF92DF92EF92FF925E
:10030000CF93DF93C0E0D0E0C12CD12C760181E007
:100310000E94EC06817099270C2E02C0880F991F4D
:100320000A94E2F7092E000CAA0BBB0BC82AD92AA3
:10033000EA2AFB2A62E370E080E090E00E94640613
:100340002196C032D10519F7C701B601DF91CF91CF
:10035000FF90EF90DF90CF9008954F925F926F9251
:100360007F928F929F92AF92BF92CF92DF92EF9245
:10037000FF920F931F93CF93DF9300D01F92CDB7BF
:10038000DEB72B013C01CA01B901A80197010E9407
:10039000C70C69837A838B839C83C301B201A80154
:1003A00097010E94C70C4B015C01C12CD12C412C40
:1003B000512C320181E090E0A0E0B0E00C2C04C0B0
:1003C000880F991FAA1FBB1F0A94D2F78821992171
:1003D000AA21BB21892B8A2B8B2B91F069817A81F1
:1003E0008B819C81A80197010E94C70C640D751D2B
:1003F000861D971DA80197010E94C70C2B013C0187
:1004000069817A818B819C81660F771F881F991F74
:10041000A80197010E94C70C69837A838B839C8310
:100420002FEFC21AD20A8FE1C816D10419F6C30100
:10043000B2010F900F900F900F90DF91CF911F910D
:100440000F91FF90EF90DF90CF90BF90AF909F9073
:100450008F907F906F905F904F9008954F925F9232
:100460006F927F928F929F92AF92BF92EF92FF9284
:100470000F931F93CF93DF93CDB7DEB728970FB6B7
:10048000F894DEBF0FBECDBF2B013C0129833A8318
:100490004B835C834701580161E070E080E090E0AD
:1004A000A80197010E94C70C6D837E838F83988774
:1004B000C301B201A80197010E94C70C2B013C01A6
:1004C00089819A81AB81BC81892B8A2B8B2B41F14D
:1004D000898180FF0EC085017401A30192016D81A5
:1004E0007E818F8198850E94AD016D837E838F838D
:1004F000988785017401A3019201C301B2010E9492
:10050000AD012B013C0189819A81AB81BC81B695FB
:10051000A7959795879589839A83AB83BC83D0CF22
:100520006D817E818F819885A50194010E94C70C01
:1005300028960FB6F894DEBF0FBECDBFDF91CF91E6
:100540001F910F91FF90EF90BF90AF909F908F9071
:100550007F906F905F904F9008951F93CF93DF939C
:10056000172FD82FC92F062E000C770B8DEA92E09B
:100570000E947501612F110F770B8DEA92E00E94A6
:1005800075016D2FDD0F770B8DEA92E00E947501EA
:100590006C2FCC0F770B8DEA92E0DF91CF911F91FA
:1005A0000C9475014F925F926F927F928F929F92FF
:1005B000AF92BF92CF92DF92EF92FF924B015C011C
:1005C000950144275527AFE8BCEB0E94F10C6B0165
:1005D0007C012B013C019FE07694679457944794EB
:1005E0009A95D1F7A5019401442755270E94F10C53
:1005F000DC01CB01840D951DA61DB71DE894D7F82D
:10060000EE24FF247601DD24CC24BC01CD016C0D49
:100610007D1D8E1D9F1D97FF04C06F5F7F4F8F4F05
:100620009F47FF90EF90DF90CF90BF90AF909F904B
:100630008F907F906F905F904F900895EF92FF9210
:100640001F93CF93DF93182FCB017901C0E0D0E047
:10065000CE15DF0534F4BA010E94D202AB01219617
:10066000F7CF812F8427DF91CF911F91FF90EF90DB
:1006700008958F929F92AF92BF92CF92DF92EF92A6
:10068000FF92CF93DF93C82F4A015B010E9433068C
:100690006B017C01C80CD91CEA1CFB1CD0E08DEA64
:1006A00092E00E94EF088C179D0754F08DEA92E0CB
:1006B0000E94EF0821E08C179D079CF420E011C0F8
:1006C000B7FE07C061E070E080E090E00E94640641
:1006D000E6CF0E9433066C157D058E059F0590F3CD
:1006E000E5CF822FDF91CF91FF90EF90DF90CF90F9
:1006F000BF90AF909F908F900895CF92DF92EF922E
:10070000FF920F931F93CF93DF938DEA92E00E94A5
:100710001B09EC018DEA92E00E941B098C018DEA15
:1007200092E00E941B09A801110F660B770B762F30
:10073000652F542F44278C01990F220B330B9801FE
:1007400011270027402B512B622B732BCE01DD0F7D
:10075000AA0BBB0B6A017B01C82AD92AEA2AFB2A09
:100760008DEA92E00E941B09092E000CAA0BBB0B1C
:10077000B82FAA2799278827BC01CD016C297D298C
:100780008E299F29DF91CF911F910F91FF90EF90BC
:10079000DF90CF900895CF9383E193E00E941B09EF
:1007A000C82F682F83E193E00E94460920919602AA
:1007B000309197024091A0025091A1026091A20253
:1007C0007091A3028C2F0E941E03682F8DEA92E085
:1007D0000E94460920919602309197022F5F3F4F69
:1007E0003093970220939602CD30E9F44091A00215
:1007F0005091A1026091A2027091A3028AE00E942E
:100800001E03682F8DEA92E00E94460980919602AD
:10081000909197020196909397028093960283E1BC
:1008200093E00E943E0861E072E083E193E00E9461
:10083000350860919602709197024AE050E083E19A
:1008400093E0CF910C94C7088DEA92E00E941B09B7
:1008500020919402309195024091A0025091A10202
:100860006091A2027091A3020E941E03682F83E18F
:1008700093E00E944609809194029091950201961E
:1008800090939502809394026FE072E083E193E08D
:100890000E94350860919402709195024AE050E000
:1008A00083E193E00C94C7081F93CF93DF93C0E0DC
:1008B000D0E010E0C130D105F9F044F4CD2B09F0BF
:1008C0005DC08DEA92E00E943B0908C0C230D105AC
:1008D000E1F1C330D10509F449C050C08DEA92E07E
:1008E0000E94EF08892BD1F38DEA92E00E941B0948
:1008F00083349105C9F745C048EE53E060E070E0ED
:1009000084E00E9439038823C9F10E947D0360932B
:100910009C0270939D0280939E0290939F0261E4DB
:1009200070E08DEA92E00E947501111124C060917F
:1009300098027091990280919A0290919B020E9474
:10094000AD02C2E0D0E011E0B5CF48EE53E060E088
:1009500070E081E00E943903882381F08DEA92E003
:100960000E941B09813481F0833459F0C330D105D2
:1009700009F0A0CF09C0C2E0D0E09CCFC0E0D0E039
:1009800099CFC1E0D0E096CFDF91CF911F9108952C
:1009900080E090E0019799F063E470E08DEA92E0E6
:1009A0000E947501609198027091990280919A025B
:1009B00090919B020E94AD0281E090E0EBCF48EE67
:1009C00053E060E070E081E00E943903882301F386
:1009D0008DEA92E00E941B0981349105C9F648EE28
:1009E00053E060E070E084E00E9439038823B9F3AB
:1009F0000E947D0360939C0270939D0280939E02EF
:100A000090939F0261E470E08DEA92E00E9475018C
:100A10008DEA92E00C943B098DE00E94CF0701978C
:100A200011F40C9454040C94C8048F929F92AF92CA
:100A3000BF92EF92FF920F931F930E948A0660E08D
:100A400081E00E94630761E081E00E949F0760E00F
:100A50008DE00E94630740E855E260E070E083E1CA
:100A600093E00E946A0B40E855E260E070E08DEA96
:100A700092E00E946A0B6DE172E083E193E00E94D4
:100A800052080E947C014B015C01EE24EA94FE2C8A
:100A90000FEF1FE7A501940167EA71E480E090E0A1
:100AA0000E942E02609398027093990280939A029A
:100AB00090939B0265E372E083E193E00E94350826
:100AC0002AE030E0B501A40183E193E00E94DD0853
:100AD0006BE472E083E193E00E9435084091980254
:100AE0005091990260919A0270919B022AE030E045
:100AF00083E193E00E94DD0883E193E00E943E08D9
:100B00000E940C0560919C0270919D0280919E0252
:100B100090919F02A50194010E942E026093A00271
:100B20007093A1028093A2029093A30260E672E008
:100B300083E193E00E94350840919C0250919D0210
:100B400060919E0270919F022AE030E083E193E081
:100B50000E94BA0883E193E00E943E086FE672E0CB
:100B600083E193E00E9435084091A0025091A102D8
:100B70006091A2027091A3022AE030E083E193E049
:100B80000E94DD0883E193E00E943E0883E193E048
:100B90001F910F91FF90EF90BF90AF909F908F901B
:100BA0000C943E080E941505109295021092940232
:100BB00083E193E00E94EF08892B11F00E94CB03A0
:100BC0008DEA92E00E94EF08892B91F30E942404A1
:100BD000EFCF1F920F920FB60F9211242F933F93D6
:100BE0008F939F93AF93BF938091A5029091A6029C
:100BF000A091A702B091A8023091A40223E0230F94
:100C00002D3720F40196A11DB11D05C026E8230F44
:100C10000296A11DB11D2093A4028093A50290937A
:100C2000A602A093A702B093A8028091A902909176
:100C3000AA02A091AB02B091AC020196A11DB11D18
:100C40008093A9029093AA02A093AB02B093AC0246
:100C5000BF91AF919F918F913F912F910F900FBEB8
:100C60000F901F9018952FB7F8946091A50270917E
:100C7000A6028091A7029091A8022FBF08953FB7C6
:100C8000F8948091A9029091AA02A091AB02B09130
:100C9000AC0226B5A89B05C02F3F19F00196A11DF7
:100CA000B11D3FBFBA2FA92F982F8827820F911D02
:100CB000A11DB11DBC01CD0142E0660F771F881F49
:100CC000991F4A95D1F70895CF92DF92EF92FF9244
:100CD000CF93DF936B017C010E943F06EB01C114AF
:100CE000D104E104F10479F00E943F066C1B7D0BF6
:100CF000683E7340A0F381E0C81AD108E108F1080A
:100D0000C851DC4FECCFDF91CF91FF90EF90DF9097
:100D1000CF900895789484B5826084BD84B5816055
:100D200084BD85B5826085BD85B5816085BDEEE6F3
:100D3000F0E0808181608083E1E8F0E010828081D2
:100D400082608083808181608083E0E8F0E0808140
:100D500081608083E1EBF0E0808184608083E0EB60
:100D6000F0E0808181608083E1E9F0E08081826051
:100D70008083808181608083E0E9F0E08081816010
:100D80008083E1EAF0E080818260808380818160FD
:100D90008083E0EAF0E0808181608083E1E2F1E03D
:100DA000808182608083808181608083E0E2F1E0E5
:100DB000808181608083EAE7F0E0808184608083C5
:100DC000808182608083808181608083808180686F
:100DD00080831092C1000895863308F08653909165
:100DE0007B00282F2870977F922B90937B00877031
:100DF0002091000290E4299F90011124822B80937E
:100E00007C0080917A00806480937A0080917A00DF
:100E100086FDFCCF809178002091790090E0922BA4
:100E2000089590E0FC013197E131F10508F04AC0E6
:100E30008827EE58FF4F8F4F0C94E90C809180006B
:100E40008F7703C0809180008F7D8093800008950C
:100E500084B58F7702C084B58F7D84BD089580915D
:100E6000B0008F7703C08091B0008F7D8093B00079
:100E70000895809190008F7707C0809190008F7DBA
:100E800003C080919000877F8093900008958091A7
:100E9000A0008F7707C08091A0008F7D03C0809154
:100EA000A000877F8093A0000895809120018F7714
:100EB00007C0809120018F7D03C080912001877F32
:100EC000809320010895CF93DF9390E0FC01E855D3
:100ED000FE4F2491FC01E251FE4F8491882361F181
:100EE00090E0880F991FFC01E859FD4FC591D491FE
:100EF000FC01E25BFD4FA591B491611109C09FB760
:100F0000F8948881209582238883EC912E230BC04E
:100F1000623061F49FB7F8943881822F80958323E3
:100F20008883EC912E2B2C939FBF06C08FB7F8942B
:100F3000E8812E2B28838FBFDF91CF9108951F93D7
:100F4000CF93DF93282F30E0F901EE59FE4F8491C3
:100F5000F901E855FE4FD491F901E251FE4FC491D9
:100F6000CC23C9F0162F81110E941107EC2FF0E05D
:100F7000EE0FFF1FE25BFD4FA591B4918FB7F89480
:100F8000111105C09C91ED2FE095E92302C0EC9171
:100F9000ED2BEC938FBFDF91CF911F910895CF93ED
:100FA000DF93282F30E0F901EE59FE4F8491F901CB
:100FB000E855FE4FD491F901E251FE4FC491CC2384
:100FC00091F081110E941107EC2FF0E0EE0FFF1F4E
:100FD000EC5CFD4FA591B491EC91ED2381E090E0A4
:100FE00021F480E002C080E090E0DF91CF9108958D
:100FF000CF92DF92EF92FF920F931F93CF93DF93E5
:101000006C01EB017B01E40EF51E00E010E0CE1553
:10101000DF0561F06991D601ED91FC910190F081BD
:10102000E02DC6011995080F191FF1CFC801DF91F6
:10103000CF911F910F91FF90EF90DF90CF90089587
:101040006115710579F0FB0101900020E9F73197F6
:10105000AF01461B570BDC01ED91FC910280F3813F
:10106000E02D199480E090E008950C942008DC01B4
:10107000ED91FC910190F081E02D19940F931F9355
:10108000CF93DF93EC016DE00E9437088C016AE09A
:10109000CE010E943708800F911FDF91CF911F91E1
:1010A0000F9108950F931F93CF93DF93EC010E944C
:1010B00020088C01CE010E943E08800F911FDF9115
:1010C000CF911F910F9108958F929F92AF92BF92EF
:1010D000CF92DF92EF92FF920F931F93CF93DF9304
:1010E000CDB7DEB7A1970FB6F894DEBF0FBECDBF68
:1010F0006C01142FE52FCB01022F19A2223008F426
:101100000AE07E0121E2E20EF11C802E912CA12C3E
:10111000B12C612F7E2FA50194010E94C70C029F64
:101120001019112481E0E81AF1081A3014F4105D46
:1011300001C0195CF7011083122FE32FCA01232B82
:10114000242B252B31F7B701C6010E942008A19658
:101150000FB6F894DEBF0FBECDBFDF91CF911F91C8
:101160000F91FF90EF90DF90CF90BF90AF909F9046
:101170008F9008952115310541F4DC01ED91FC912A
:101180000190F081E02D642F19940C9464080F9362
:101190001F93CF93DF93EC019A01AB0160E070E005
:1011A0000E94BA088C01CE010E943E08800F911F58
:1011B000DF91CF911F910F9108950F931F93CF93BC
:1011C000DF93EC010E94BA088C01CE010E943E0818
:1011D000800F911FDF91CF911F910F910895FC0116
:1011E00024853585F901E05CFF4F8081918132963D
:1011F00020813181821B930B8F7399270895DC0125
:101200001C96ED91FC911D97DF01A05CBF4F2D91C5
:101210003C91119712968D919C911197281739073F
:1012200039F08D919C91E80FF91F808190E008952D
:101230008FEF9FEF0895FC01A485B585FD01E05C6B
:10124000FF4F2081318132968081918128173907A3
:1012500079F080819181A80FB91F8C912081318113
:101260002F5F3F4F2F7333273183208390E0089502
:101270008FEF9FEF0895FC0181A1882329F0A489B5
:10128000B5898C9186FFFBCF11A208950F931F9310
:10129000CF93DF93FC01A685B7858D01005C1F4FBE
:1012A000E8018881998101968F739927AD014E5B82
:1012B0005F4FEA012881398182179307D1F3E80152
:1012C00028813981A20FB31F6C93A685B785A05CD6
:1012D000BF4F11969C938E93A689B7892C9181E07C
:1012E00090E0078C02C0880F991F0A94E2F7822BC6
:1012F0008C9381E081A30488F589E02D808180644E
:10130000808381E090E0DF91CF911F910F9108954C
:10131000FB01E05CFF4F208131812F5F3F4F2F7336
:101320003327DB01AE5BBF4F4D915C91241735072E
:1013300041F040815181DB01A40FB51F8C933183B3
:10134000208308951F920F920FB60F9211240BB6AF
:101350000F922F933F934F935F936F937F938F934E
:101360009F93AF93BF93EF93FF938091C00082FD53
:1013700007C08091C60061E175E00E94880902C043
:101380008091C600FF91EF91BF91AF919F918F9196
:101390007F916F915F914F913F912F910F900BBE75
:1013A0000F900FBE0F901F9018951F920F920FB6BF
:1013B0000F9211240BB60F922F933F934F935F938D
:1013C0006F937F938F939F93AF93BF93EF93FF930D
:1013D0008091C80082FD07C08091CE0069E874E06A
:1013E0000E94880902C08091CE00FF91EF91BF91C9
:1013F000AF919F918F917F916F915F914F913F91AD
:101400002F910F900BBE0F900FBE0F901F9018954D
:101410001F920F920FB60F9211240BB60F922F93BB
:101420003F934F935F936F937F938F939F93AF936C
:10143000BF93EF93FF938091D00082FD07C080910E
:10144000D60061E074E00E94880902C08091D60055
:10145000FF91EF91BF91AF919F918F917F916F918C
:101460005F914F913F912F910F900BBE0F900FBE48
:101470000F901F9018951F920F920FB60F92112484
:101480000BB60F922F933F934F935F936F937F937E
:101490008F939F93AF93BF93EF93FF93809130010E
:1014A00082FD07C08091360169E773E00E948809D8
:1014B00002C080913601FF91EF91BF91AF919F9152
:1014C0008F917F916F915F914F913F912F910F90ED
:1014D0000BBE0F900FBE0F901F9018951F920F928A
:1014E0000FB60F9211240BB60F922F933F938F9349
:1014F0009F93EF93FF9320910D0530910E058091FE
:101500000F05909110052817390731F48091C1001B
:101510008F7D8093C10014C0E0910F05F0911005FC
:10152000E353FB4F208180910F05909110050196A8
:101530008F7399279093100580930F052093C60011
:10154000FF91EF919F918F913F912F910F900BBE43
:101550000F900FBE0F901F9018951F920F920FB60D
:101560000F9211240BB60F922F933F938F939F935B
:10157000EF93FF9320918504309186048091870436
:10158000909188042817390731F48091C9008F7D24
:101590008093C90014C0E0918704F0918804EB5B4C
:1015A000FB4F2081809187049091880401968F736E
:1015B000992790938804809387042093CE00FF910D
:1015C000EF919F918F913F912F910F900BBE0F90B4
:1015D0000FBE0F901F9018951F920F920FB60F928B
:1015E00011240BB60F922F933F938F939F93EF93FA
:1015F000FF932091FD033091FE038091FF039091B2
:1016000000042817390731F48091D1008F7D809331
:10161000D10014C0E091FF03F0910004E354FC4FAB
:1016200020818091FF039091000401968F73992788
:10163000909300048093FF032093D600FF91EF91D5
:101640009F918F913F912F910F900BBE0F900FBEE6
:101650000F901F9018951F920F920FB60F921124A2
:101660000BB60F922F933F938F939F93EF93FF931C
:1016700020917503309176038091770390917803E0
:101680002817390731F4809131018F7D8093310122
:1016900014C0E0917703F0917803EB5CFC4F20815C
:1016A000809177039091780301968F739927909397
:1016B00078038093770320933601FF91EF919F91F8
:1016C0008F913F912F910F900BBE0F900FBE0F90F7
:1016D0001F901895CF92DF92EF92FF920F931F9376
:1016E000CF93DF93EC016A017B014115514E6105F7
:1016F000710509F1EC89FD8981E090E008A002C044
:10170000880F991F0A94E2F7808360E079E08DE307
:1017100090E0A70196010E94C70C89019A0101502F
:1017200011092109310936952795179507959801D3
:1017300001151041A8F0EC89FD89108260E874E879
:101740008EE190E0A70196010E94C70CDA01C90161
:101750000197A109B109B695A795979587959C0121
:10176000E889F9893083EA89FB89208319A2EE8907
:10177000FF89408181E090E09C010C8C02C0220F27
:10178000331F0A94E2F7242B2083EE89FF894081DE
:101790009C010D8C02C0220F331F0A94E2F7242B08
:1017A0002083EE89FF8940819C010E8C02C0220FAC
:1017B000331F0A94E2F7242B2083EE89FF892081CE
:1017C0000F8C02C0880F991F0A94E2F7809582233C
:1017D0008083DF91CF911F910F91FF90EF90DF9069
:1017E000CF900895CF92DF92EF92FF92E3E1F3E082
:1017F0001382128288EEC82E83E0D82EE12CF12CC1
:10180000C482D582E682F78268E872E071836083E1
:1018100081E195E0958784878DEC94E097878687B2
:1018200085EC90E0918B808B84EC90E0938B828BA5
:1018300080EC90E0958B848B81EC90E0978B868B8D
:1018400082EC90E0918F808F86EC90E0938F828F76
:1018500044E0448F33E0358F27E0268F95E0978F63
:1018600081E080A3E1EFF2E013821282C482D5828C
:10187000E682F78271836083A9E8B4E0B587A48724
:10188000A5E4B4E0B787A687ADECB0E0B18BA08B40
:10189000ACECB0E0B38BA28BA8ECB0E0B58BA48B22
:1018A000A9ECB0E0B78BA68BAAECB0E0B18FA08F0B
:1018B000AEECB0E0B38FA28F448F358F268F978F19
:1018C00080A3EFECF2E013821282C482D582E6821A
:1018D000F78271836083A1E0B4E0B587A487ADEBA4
:1018E000B3E0B787A687A5EDB0E0B18BA08BA4EDE0
:1018F000B0E0B38BA28BA0EDB0E0B58BA48BA1EDD3
:10190000B0E0B78BA68BA2EDB0E0B18FA08FA6EDB3
:10191000B0E0B38FA28F448F358F268F978F80A32F
:10192000EDEAF2E013821282C482D582E682F78267
:101930007183608369E773E07587648765E373E0AB
:101940007787668765E371E0718B608B64E371E094
:10195000738B628B60E371E0758B648B61E371E084
:10196000778B668B62E371E0718F608F66E371E065
:10197000738F628F448F358F268F978F80A3FF9050
:10198000EF90DF90CF900895F8940C940B0DA1E2A6
:101990001A2EAA1BBB1BFD010DC0AA1FBB1FEE1FE9
:1019A000FF1FA217B307E407F50720F0A21BB30B34
:1019B000E40BF50B661F771F881F991F1A9469F7B0
:1019C00060957095809590959B01AC01BD01CF010C
:1019D0000895EE0FFF1F881F8BBF0790F691E02D33
:1019E00019940E94FC0CA59F900DB49F900DA49F8C
:1019F000800D911D11240895A29FB001B39FC001D5
:101A0000A39F700D811D1124911DB29F700D811D2A
:0A1A10001124911D0895F894FFCFF2
:101A1A00012073656E6420636F756E743A2000202E
:101A2A007265637620636F756E743A200057656C31
:101A3A00636F6D6520746F2041726475696E6F20E3
:101A4A006368617400596F75722070726976617487
:101A5A0065206B65792069733A2000596F75722089
:101A6A007075626C6963206B65792069733A20002E
:101A7A004F74686572206B65792069733A20005942
:101A8A006F757220736861726564206B657920696D
:101A9A00733A2000000000004609F807EF081B0906
:041AAA00FF083B09ED
:00000001FF
