:100000000C9442010C9473010C9473010C947301D1
:100010000C9473010C9473010C9473010C94730190
:100020000C9473010C9473010C9473010C94730180
:100030000C9473010C9473010C9473010C94730170
:100040000C9473010C9473010C9473010C94730160
:100050000C9473010C9473010C9473010C9460065E
:100060000C9473010C94030A0C94CF0A0C94730142
:100070000C9473010C9473010C9473010C94730130
:100080000C9473010C9473010C9473010C94730120
:100090000C94360A0C940E0B0C9473010C9473019F
:1000A0000C9473010C9473010C9473010C94730100
:1000B0000C9473010C9473010C9473010C947301F0
:1000C0000C9473010C9473010C9473010C94690AE1
:1000D0000C944D0B0C9473010C949C0A0C948C0B97
:1000E0000C9473019F07A20795079907D907A607E4
:1000F000AA07B007B407B807BE07C207C607D907E3
:10010000CC07D007D4070C9460090C94B0070C946A
:10011000CC070C94A7090C9450090C949C090C94DE
:10012000BE070C94D9070C94A2070C94A6070C9454
:100130009F070C947C090C94B4070C94D4070C947E
:10014000B8070C94530C0C94D0070C9495070C949E
:10015000C6070C9499070C94C2070C946F080C9472
:10016000AA070000090A02080B0C0D070603040188
:10017000000000000000000000000000000000007F
:10018000000000000000000000000000000011104E
:100190000F00000000000000000000000000000050
:1001A00000000000000000000102102020080810DC
:1001B00020401020408002010201080402010102D7
:1001C00004081020408080402010080402018004B0
:1001D000020180402010080402010804020101020B
:1001E000040810204080010204081020408005050A
:1001F0000505070508080808020202020A0A08089D
:1002000004040404010101010101010103030303CA
:1002100003030303040707070C0C0C0C0C0C0C0C59
:100220000202020206060606060606060B0B0B0B6A
:100230000B0B0B0B000020002300260029002C00D4
:100240002F00320000010000030106010901000037
:100250002200250028002B002E003100340002016E
:100260000000050108010B01000021002400270007
:100270002A002D00300033000101000004010701B5
:100280000A01530C11241FBECFEFD1E2DEBFCDBF58
:1002900000E00CBF13E0A0E0B2E0ECEDFAE100E01A
:1002A0000BBF02C007900D92AE3AB107D9F726E016
:1002B000AEEAB3E001C01D92AF36B207E1F711E03C
:1002C000C2E4D1E000E006C021970109802FFE01C1
:1002D0000E944A0DC134D10780E00807A9F70E94A7
:1002E0004D060C94250D0C940000DC01ED91FC9161
:1002F0000190F081E02D1994CF92DF92EF92FF925E
:10030000CF93DF93C0E0D0E0C12CD12C760181E007
:100310000E946307817099270C2E02C0880F991FD5
:100320000A94E2F7092E000CAA0BBB0BC82AD92AA3
:10033000EA2AFB2A62E370E080E090E00E94DB069C
:100340002196C032D10519F7C701B601DF91CF91CF
:10035000FF90EF90DF90CF9008954F925F926F9251
:100360007F928F929F92AF92BF92CF92DF92EF9245
:10037000FF920F931F93CF93DF9300D01F92CDB7BF
:10038000DEB72B013C01CA01B901A80197010E9407
:10039000280D69837A838B839C83C301B201A801F2
:1003A00097010E94280D4B015C01C12CD12C412CDE
:1003B000512C320181E090E0A0E0B0E00C2C04C0B0
:1003C000880F991FAA1FBB1F0A94D2F78821992171
:1003D000AA21BB21892B8A2B8B2B91F069817A81F1
:1003E0008B819C81A80197010E94280D640D751DC9
:1003F000861D971DA80197010E94280D2B013C0125
:1004000069817A818B819C81660F771F881F991F74
:10041000A80197010E94280D69837A838B839C83AE
:100420002FEFC21AD20A8FE1C816D10419F6C30100
:10043000B2010F900F900F900F90DF91CF911F910D
:100440000F91FF90EF90DF90CF90BF90AF909F9073
:100450008F907F906F905F904F9008954F925F9232
:100460006F927F928F929F92AF92BF92EF92FF9284
:100470000F931F93CF93DF93CDB7DEB728970FB6B7
:10048000F894DEBF0FBECDBF2B013C0129833A8318
:100490004B835C834701580161E070E080E090E0AD
:1004A000A80197010E94280D6D837E838F83988712
:1004B000C301B201A80197010E94280D2B013C0144
:1004C00089819A81AB81BC81892B8A2B8B2B41F14D
:1004D000898180FF0EC085017401A30192016D81A5
:1004E0007E818F8198850E94AD016D837E838F838D
:1004F000988785017401A3019201C301B2010E9492
:10050000AD012B013C0189819A81AB81BC81B695FB
:10051000A7959795879589839A83AB83BC83D0CF22
:100520006D817E818F819885A50194010E94280D9F
:1005300028960FB6F894DEBF0FBECDBFDF91CF91E6
:100540001F910F91FF90EF90BF90AF909F908F9071
:100550007F906F905F904F9008951F93CF93DF939C
:10056000172FD82FC92F062E000C770B87EC93E09E
:100570000E947501612F110F770B87EC93E00E94A9
:1005800075016D2FDD0F770B87EC93E00E947501ED
:100590006C2FCC0F770B87EC93E0DF91CF911F91FD
:1005A0000C9475014F925F926F927F928F929F92FF
:1005B000AF92BF92CF92DF92EF92FF924B015C011C
:1005C000950144275527AFE8BCEB0E94520D6B0103
:1005D0007C012B013C019FE07694679457944794EB
:1005E0009A95D1F7A5019401442755270E94520DF1
:1005F000DC01CB01840D951DA61DB71DE894D7F82D
:10060000EE24FF247601DD24CC24BC01CD016C0D49
:100610007D1D8E1D9F1D97FF04C06F5F7F4F8F4F05
:100620009F47FF90EF90DF90CF90BF90AF909F904B
:100630008F907F906F905F904F900895EF92FF9210
:100640001F93CF93DF93182FCB017901C0E0D0E047
:10065000CE15DF0534F4BA010E94D202AB01219617
:10066000F7CF812F8427DF91CF911F91FF90EF90DB
:1006700008958F929F92AF92BF92CF92DF92EF92A6
:10068000FF92CF93DF93C82F4A015B010E94AA0615
:100690006B017C01C80CD91CEA1CFB1CD0E087EC68
:1006A00093E00E9450098C179D0754F087EC93E06B
:1006B0000E94500921E08C179D079CF420E011C096
:1006C000B7FE07C061E070E080E090E00E94DB06CA
:1006D000E6CF0E94AA066C157D058E059F0590F356
:1006E000E5CF822FDF91CF91FF90EF90DF90CF90F9
:1006F000BF90AF909F908F9008958F929F92AF92EE
:10070000BF92CF92DF92EF92FF920F931F9387ECED
:1007100093E00E947C094C01990FAA08BB0822E0D3
:1007200030E0B501A4018DE294E00E943E0987EC1F
:1007300093E00E947C096C01990FEE08FF08FE2CE3
:10074000ED2CDC2CCC24C828D928EA28FB2822E070
:1007500030E0B701A6018DE294E00E943E0987ECEB
:1007600093E00E947C098C01990F220B330B9801B6
:1007700011270027C02AD12AE22AF32A22E030E0FA
:10078000B701A6018DE294E00E943E0987EC93E058
:100790000E947C09092E000CAA0BBB0BB82FAA27BC
:1007A00099278827C82AD92AEA2AFB2A22E030E09A
:1007B000B701A6018DE294E00E943E09C701B6018F
:1007C0001F910F91FF90EF90DF90CF90BF90AF906F
:1007D0009F908F9008951F93CF93DF93C0E0D0E058
:1007E00010E0C130D105F9F0C230D10509F45AC08A
:1007F00069E072E08DE294E00E94C90887EC93E022
:100800000E945009892BD1F387EC93E00E947C0968
:1008100020910002022E000C330B8217930719F46B
:1008200066E172E077C06FE172E08DE294E00E94D1
:10083000C90848EE53E060E070E084E00E943903AC
:10084000882309F478C062E372E08DE294E00E94AC
:10085000C9080E947D036093B6037093B703809329
:10086000B8039093B90360910102062E000C770B38
:1008700087EC93E00E94750111115AC063E472E0A5
:100880008DE294E00E94C9086091B2037091B303B5
:100890008091B4039091B5030E94AD02C2E0D0E014
:1008A00011E09FCF60E572E08DE294E00E94C908FC
:1008B00048EE53E060E070E081E00E943903882355
:1008C000D1F16CE672E08DE294E00E94C90887ECF9
:1008D00093E00E947C0920910102022E000C330B50
:1008E0008217930749F468E772E08DE294E0DF91A4
:1008F000CF911F910C94C90887EC93E00E947C096A
:1009000020910002022E000C330B8217930749F44A
:1009100061E872E08DE294E00E94C908C1E0D0E095
:1009200060CF69E872E08DE294E00E94C90859CF77
:10093000C2E0D0E056CFC0E0D0E053CF80E090E0FE
:100940000197E1F06EE972E08DE294E00E94C9083F
:1009500060910002062E000C770B87EC93E00E945A
:1009600075016091B2037091B3038091B4039091CB
:10097000B5030E94AD0281E090E0E2CF68EA72E048
:100980008DE294E00E94C90848EE53E060E070E018
:1009900081E00E943903882359F187EC93E00E949B
:1009A0007C0920910102022E000C330B8217930761
:1009B000F9F46AEB72E08DE294E00E94C9080E94AB
:1009C0007D036093B6037093B7038093B80390934D
:1009D000B90360910102062E000C770B87EC93E0BF
:1009E0000E94750161ED72E08DE294E00C94C908FB
:1009F00067EE72E08DE294E00E94C9089FCF8DE01F
:100A00000E944608019759F46DEF72E08DE294E080
:100A10000E94C9080E94EB0368E073E00AC06AE123
:100A200073E08DE294E00E94C9080E949E0465E292
:100A300073E08DE294E00C94C9088F929F92AF927C
:100A4000BF92CF92DF92EF92FF920F931F930E947B
:100A5000010760E081E00E94DA0761E081E00E9426
:100A6000160860E08DE00E94DA0740E855E260E099
:100A700070E08DE294E00E94CB0B40E855E260E02C
:100A800070E087EC93E00E94CB0B67E373E08DE2AC
:100A900094E00E94C9080E947C014B015C01E09037
:100AA0000402F09005020091060210910702609185
:100AB000020270910302072E000C880B990BA5010E
:100AC00094010E942E026B017C016FE473E08DE2C1
:100AD00094E00E94AC082AE030E0B501A4018DE268
:100AE00094E00E943E0965E673E08DE294E00E9486
:100AF000AC082AE030E0B701A6018DE294E00E9444
:100B00003E098DE294E00E94B5080E94FF04E09047
:100B10000402F09005020091060210910702609114
:100B2000B6037091B7038091B8039091B903A50102
:100B300094010E942E026093BA037093BB038093CA
:100B4000BC039093BD036AE773E08DE294E00E94DA
:100B5000AC084091B6035091B7036091B80370910F
:100B6000B9032AE030E08DE294E00E9431098DE281
:100B700094E00E94B50869E873E08DE294E00E9479
:100B8000AC084091BA035091BB036091BC037091D3
:100B9000BD032AE030E08DE294E00E943E098DE240
:100BA00094E00E94B5088DE294E01F910F91FF90B0
:100BB000EF90DF90CF90BF90AF909F908F900C946C
:100BC000B508CF938DE294E00E947C09C82F682F6E
:100BD0008DE294E00E94A7092091B0033091B10307
:100BE0004091BA035091BB036091BC037091BD0367
:100BF0008C2F0E941E03682F87EC93E00E94A709A8
:100C00002091B0033091B1032F5F3F4F3093B10378
:100C10002093B003CD30F1F44091BA035091BB035F
:100C20006091BC037091BD038AE00E941E03682F8F
:100C300087EC93E00E94A7098091B0039091B103E3
:100C400001969093B1038093B0038DE294E0CF912D
:100C50000C94B508CF91089587EC93E00E947C092D
:100C60002091AE033091AF034091BA035091BB0382
:100C70006091BC037091BD030E941E03682F8DE23A
:100C800094E00E94A7098091AE039091AF03019672
:100C90009093AF038093AE0308950E941D058DE2EB
:100CA00094E00E945009892B11F00E94E10587EC25
:100CB00093E00E945009892B91F30E942C06EFCFFC
:100CC0001F920F920FB60F9211242F933F938F9381
:100CD0009F93AF93BF938091BF039091C003A09166
:100CE000C103B091C2033091BE0323E0230F2D371F
:100CF00020F40196A11DB11D05C026E8230F029620
:100D0000A11DB11D2093BE038093BF039093C00328
:100D1000A093C103B093C2038091C3039091C40315
:100D2000A091C503B091C6030196A11DB11D80938A
:100D3000C3039093C403A093C503B093C603BF91AC
:100D4000AF919F918F913F912F910F900FBE0F9078
:100D50001F9018952FB7F8946091BF037091C0034E
:100D60008091C1039091C2032FBF08953FB7F894BB
:100D70008091C3039091C403A091C503B091C603B1
:100D800026B5A89B05C02F3F19F00196A11DB11DE6
:100D90003FBFBA2FA92F982F8827820F911DA11D21
:100DA000B11DBC01CD0142E0660F771F881F991F5E
:100DB0004A95D1F70895CF92DF92EF92FF92CF93A9
:100DC000DF936B017C010E94B606EB01C114D104D4
:100DD000E104F10479F00E94B6066C1B7D0B683EBD
:100DE0007340A0F381E0C81AD108E108F108C851A6
:100DF000DC4FECCFDF91CF91FF90EF90DF90CF9061
:100E00000895789484B5826084BD84B5816084BD82
:100E100085B5826085BD85B5816085BDEEE6F0E073
:100E2000808181608083E1E8F0E0108280818260CF
:100E30008083808181608083E0E8F0E08081816050
:100E40008083E1EBF0E0808184608083E0EBF0E080
:100E5000808181608083E1E9F0E08081826080832D
:100E6000808181608083E0E9F0E08081816080831F
:100E7000E1EAF0E08081826080838081816080830C
:100E8000E0EAF0E0808181608083E1E2F1E080814E
:100E900082608083808181608083E0E2F1E08081F4
:100EA00081608083EAE7F0E08081846080838081D4
:100EB000826080838081816080838081806880837C
:100EC0001092C1000895863308F0865390917B00FC
:100ED000282F2870977F922B90937B00877020910A
:100EE000080290E4299F90011124822B80937C00BA
:100EF00080917A00806480937A0080917A0086FDE8
:100F0000FCCF809178002091790090E0922B089599
:100F100090E0FC013197E131F10508F04AC08827E3
:100F2000EE58FF4F8F4F0C944A0D809180008F77C1
:100F300003C0809180008F7D80938000089584B5E8
:100F40008F7702C084B58F7D84BD08958091B000F5
:100F50008F7703C08091B0008F7D8093B00008959B
:100F6000809190008F7707C0809190008F7D03C0A3
:100F700080919000877F8093900008958091A000D9
:100F80008F7707C08091A0008F7D03C08091A00063
:100F9000877F8093A0000895809120018F7707C0FC
:100FA000809120018F7D03C080912001877F8093F5
:100FB00020010895CF93DF9390E0FC01E855FE4FA8
:100FC0002491FC01E251FE4F8491882361F190E06D
:100FD000880F991FFC01E859FD4FC591D491FC0180
:100FE000E25BFD4FA591B491611109C09FB7F894E0
:100FF0008881209582238883EC912E230BC0623058
:1010000061F49FB7F8943881822F80958323888379
:10101000EC912E2B2C939FBF06C08FB7F894E881DC
:101020002E2B28838FBFDF91CF9108951F93CF93ED
:10103000DF93282F30E0F901EE59FE4F8491F9013A
:10104000E855FE4FD491F901E251FE4FC491CC23F3
:10105000C9F0162F81110E948807EC2FF0E0EE0FE7
:10106000FF1FE25BFD4FA591B4918FB7F89411116A
:1010700005C09C91ED2FE095E92302C0EC91ED2B8A
:10108000EC938FBFDF91CF911F910895CF93DF93A2
:10109000282F30E0F901EE59FE4F8491F901E8550F
:1010A000FE4FD491F901E251FE4FC491CC2391F04F
:1010B00081110E948807EC2FF0E0EE0FFF1FEC5C1F
:1010C000FD4FA591B491EC91ED2381E090E021F4E6
:1010D00080E002C080E090E0DF91CF910895CF9250
:1010E000DF92EF92FF920F931F93CF93DF936C01E8
:1010F000EB017B01E40EF51E00E010E0CE15DF05EC
:1011000061F06991D601ED91FC910190F081E02DA3
:10111000C6011995080F191FF1CFC801DF91CF91B2
:101120001F910F91FF90EF90DF90CF900895611580
:10113000710579F0FB0101900020E9F73197AF01CB
:10114000461B570BDC01ED91FC910280F381E02DF1
:10115000199480E090E008950C949708DC01ED91DB
:10116000FC910190F081E02D19940F931F93CF9380
:10117000DF93EC016DE00E94AE088C016AE0CE01C5
:101180000E94AE08800F911FDF91CF911F910F91A8
:1011900008950F931F93CF93DF93EC010E9497085C
:1011A0008C01CE010E94B508800F911FDF91CF9175
:1011B0001F910F9108958F929F92AF92BF92CF92FD
:1011C000DF92EF92FF920F931F93CF93DF93CDB7F0
:1011D000DEB7A1970FB6F894DEBF0FBECDBF6C018E
:1011E000142FE52FCB01022F19A2223008F40AE0B8
:1011F0007E0121E2E20EF11C802E912CA12CB12C5B
:10120000612F7E2FA50194010E94280D029F1019C5
:10121000112481E0E81AF1081A3014F4105D01C0BD
:10122000195CF7011083122FE32FCA01232B242B03
:10123000252B31F7B701C6010E949708A1960FB67A
:10124000F894DEBF0FBECDBFDF91CF911F910F91FC
:10125000FF90EF90DF90CF90BF90AF909F908F90D6
:1012600008952115310541F4DC01ED91FC910190C7
:10127000F081E02D642F19940C94DB080F931F93D9
:10128000CF93DF93EC010E9431098C01CE010E94C3
:10129000B508800F911FDF91CF911F910F91089595
:1012A000FC0124853585F901E05CFF4F8081918147
:1012B000329620813181821B930B8F739927089579
:1012C000DC011C96ED91FC911D97DF01A05CBF4FE6
:1012D0002D913C91119712968D919C911197281701
:1012E000390739F08D919C91E80FF91F808190E0CA
:1012F00008958FEF9FEF0895FC01A485B585FD014A
:10130000E05CFF4F208131813296808191812817E6
:10131000390779F080819181A80FB91F8C912081C4
:1013200031812F5F3F4F2F7333273183208390E02C
:1013300008958FEF9FEF0895FC0181A1882329F084
:10134000A489B5898C9186FFFBCF11A208950F93D4
:101350001F93CF93DF93FC01A685B7858D01005CB9
:101360001F4FE8018881998101968F739927AD01FC
:101370004E5B5F4FEA012881398182179307D1F3D1
:10138000E80128813981A20FB31F6C93A685B78528
:10139000A05CBF4F11969C938E93A689B7892C9120
:1013A00081E090E0078C02C0880F991F0A94E2F751
:1013B000822B8C9381E081A30488F589E02D8081C4
:1013C0008064808381E090E0DF91CF911F910F9145
:1013D0000895FB01E05CFF4F208131812F5F3F4F7B
:1013E0002F733327DB01AE5BBF4F4D915C91241708
:1013F000350741F040815181DB01A40FB51F8C936B
:101400003183208308951F920F920FB60F921124FB
:101410000BB60F922F933F934F935F936F937F93EE
:101420008F939F93AF93BF93EF93FF938091C000EF
:1014300082FD07C08091C6006BE276E00E94E90958
:1014400002C08091C600FF91EF91BF91AF919F9133
:101450008F917F916F915F914F913F912F910F905D
:101460000BBE0F900FBE0F901F9018951F920F92FA
:101470000FB60F9211240BB60F922F933F934F93F9
:101480005F936F937F938F939F93AF93BF93EF93EC
:10149000FF938091C80082FD07C08091CE0063EA6F
:1014A00075E00E94E90902C08091CE00FF91EF91A2
:1014B000BF91AF919F918F917F916F915F914F916C
:1014C0003F912F910F900BBE0F900FBE0F901F906A
:1014D00018951F920F920FB60F9211240BB60F9210
:1014E0002F933F934F935F936F937F938F939F932C
:1014F000AF93BF93EF93FF938091D00082FD07C01D
:101500008091D6006BE175E00E94E90902C08091EC
:10151000D600FF91EF91BF91AF919F918F917F91F5
:101520006F915F914F913F912F910F900BBE0F9054
:101530000FBE0F901F9018951F920F920FB60F922B
:1015400011240BB60F922F933F934F935F936F939A
:101550007F938F939F93AF93BF93EF93FF9380916C
:10156000300182FD07C08091360163E974E00E947A
:10157000E90902C080913601FF91EF91BF91AF91CF
:101580009F918F917F916F915F914F913F912F919B
:101590000F900BBE0F900FBE0F901F9018951F92CB
:1015A0000F920FB60F9211240BB60F922F933F9309
:1015B0008F939F93EF93FF932091270630912806F6
:1015C0008091290690912A062817390731F48091D5
:1015D000C1008F7D8093C10014C0E0912906F09175
:1015E0002A06E951FA4F20818091290690912A0616
:1015F00001968F73992790932A068093290620934A
:10160000C600FF91EF919F918F913F912F910F9085
:101610000BBE0F900FBE0F901F9018951F920F9248
:101620000FB60F9211240BB60F922F933F938F9307
:101630009F93EF93FF9320919F053091A005809198
:10164000A1059091A2052817390731F48091C900AE
:101650008F7D8093C90014C0E091A105F091A2058F
:10166000E15AFA4F20818091A1059091A20501963F
:101670008F7399279093A2058093A1052093CE00A4
:10168000FF91EF919F918F913F912F910F900BBE02
:101690000F900FBE0F901F9018951F920F920FB6CC
:1016A0000F9211240BB60F922F933F938F939F931A
:1016B000EF93FF932091170530911805809119053C
:1016C00090911A052817390731F48091D1008F7D48
:1016D0008093D10014C0E0911905F0911A05E952E8
:1016E000FB4F20818091190590911A0501968F7307
:1016F000992790931A05809319052093D600FF919E
:10170000EF919F918F913F912F910F900BBE0F9072
:101710000FBE0F901F9018951F920F920FB60F9249
:1017200011240BB60F922F933F938F939F93EF93B8
:10173000FF9320918F0430919004809191049091B7
:1017400092042817390731F4809131018F7D8093FD
:10175000310114C0E0919104F0919204E15BFB4FE0
:101760002081809191049091920401968F73992722
:10177000909392048093910420933601FF91EF910E
:101780009F918F913F912F910F900BBE0F900FBEA5
:101790000F901F901895CF92DF92EF92FF920F93C8
:1017A0001F93CF93DF93EC016A017B014115514EEA
:1017B0006105710509F1EC89FD8981E090E008A0DF
:1017C00002C0880F991F0A94E2F7808360E079E0F5
:1017D0008DE390E0A70196010E94280D89019A01EE
:1017E000015011092109310936952795179507955B
:1017F000980101151041A8F0EC89FD89108260E87C
:1018000074E88EE190E0A70196010E94280DDA01AC
:10181000C9010197A109B109B695A7959795879533
:101820009C01E889F9893083EA89FB89208319A220
:10183000EE89FF89408181E090E09C010C8C02C020
:10184000220F331F0A94E2F7242B2083EE89FF89AD
:1018500040819C010D8C02C0220F331F0A94E2F7D5
:10186000242B2083EE89FF8940819C010E8C02C0CD
:10187000220F331F0A94E2F7242B2083EE89FF897D
:1018800020810F8C02C0880F991F0A94E2F780957F
:1018900082238083DF91CF911F910F91FF90EF9072
:1018A000DF90CF900895CF92DF92EF92FF92EDE21A
:1018B000F4E01382128288EEC82E83E0D82EE12C49
:1018C000F12CC482D582E682F78262EA73E07183EA
:1018D00060838BE296E09587848787EE95E0978713
:1018E000868785EC90E0918B808B84EC90E0938BE5
:1018F000828B80EC90E0958B848B81EC90E0978BD1
:10190000868B82EC90E0918F808F86EC90E0938FB5
:10191000828F44E0448F33E0358F27E0268F95E0B7
:10192000978F81E080A3EBE0F4E013821282C482FF
:10193000D582E682F78271836083A3EAB5E0B5873A
:10194000A487AFE5B5E0B787A687ADECB0E0B18B73
:10195000A08BACECB0E0B38BA28BA8ECB0E0B58B65
:10196000A48BA9ECB0E0B78BA68BAAECB0E0B18F4A
:10197000A08FAEECB0E0B38FA28F448F358F268F4F
:10198000978F80A3E9EEF3E013821282C482D5829E
:10199000E682F78271836083ABE1B5E0B587A48707
:1019A000A7EDB4E0B787A687A5EDB0E0B18BA08B1B
:1019B000A4EDB0E0B38BA28BA0EDB0E0B58BA48B0F
:1019C000A1EDB0E0B78BA68BA2EDB0E0B18FA08FF8
:1019D000A6EDB0E0B38FA28F448F358F268F978FFF
:1019E00080A3E7ECF3E013821282C482D582E68200
:1019F000F7827183608363E974E0758764876FE4BD
:101A000074E07787668765E371E0718B608B64E3D0
:101A100071E0738B628B60E371E0758B648B61E3C3
:101A200071E0778B668B62E371E0718F608F66E3A4
:101A300071E0738F628F448F358F268F978F80A3CD
:101A4000FF90EF90DF90CF900895F8940C946C0D78
:101A5000A1E21A2EAA1BBB1BFD010DC0AA1FBB1FB2
:101A6000EE1FFF1FA217B307E407F50720F0A21B24
:101A7000B30BE40BF50B661F771F881F991F1A9491
:101A800069F760957095809590959B01AC01BD01BB
:101A9000CF010895EE0FFF1F881F8BBF0790F691AF
:101AA000E02D19940E945D0DA59F900DB49F900D9F
:101AB000A49F800D911D11240895A29FB001B39F92
:101AC000C001A39F700D811D1124911DB29F700D47
:0C1AD000811D1124911D0895F894FFCF92
:101ADC004341A741FFFFFF7F016C697374656E6919
:101AEC006E672E2E2E00676F7420435221210077D3
:101AFC00616974696E6720666F72206B65792E2E32
:101B0C002E00676F742061203332626974206B651C
:101B1C0079210073656E74206F776E206B65790088
:101B2C0077616974696E6720666F722061636B20E0
:101B3C0066726F6D20636C69656E7400676F7420DC
:101B4C006120627974652100676F742061636B2179
:101B5C0000676F7420637221006461746120657882
:101B6C006368616E676520706F696E742E007374A4
:101B7C00617274696E67210077616974696E6720A0
:101B8C00666F722061636B212100676F7420616343
:101B9C006B2C20726563656976696E67206B65795D
:101BAC0000676F7420746F206461746120657863C2
:101BBC0068616E67652100636F756C646E74206775
:101BCC0065742041434B20627974652E0049276D62
:101BDC002073657276657200676F74206F75742060
:101BEC006F66207365727665720049276D20636C91
:101BFC0069656E7400676F74206F7574206F662052
:101C0C00636C69656E740057656C636F6D652074E9
:101C1C006F2041726475696E6F206368617400593E
:101C2C006F75722070726976617465206B657920AE
:101C3C0069733A2000596F7572207075626C696314
:101C4C00206B65792069733A20004F7468657220A7
:101C5C006B65792069733A2000596F75722073682F
:101C6C0061726564206B65792069733A200000000D
:0E1C7C000000A7096F0850097C0960099C0947
:00000001FF
