:100000000C9442010C9473010C9473010C947301D1
:100010000C9473010C9473010C9473010C94730190
:100020000C9473010C9473010C9473010C94730180
:100030000C9473010C9473010C9473010C94730170
:100040000C9473010C9473010C9473010C94730160
:100050000C9473010C9473010C9473010C945D0661
:100060000C9473010C94000A0C94CC0A0C94730148
:100070000C9473010C9473010C9473010C94730130
:100080000C9473010C9473010C9473010C94730120
:100090000C94330A0C940B0B0C9473010C947301A5
:1000A0000C9473010C9473010C9473010C94730100
:1000B0000C9473010C9473010C9473010C947301F0
:1000C0000C9473010C9473010C9473010C94660AE4
:1000D0000C944A0B0C9473010C94990A0C94890BA0
:1000E0000C9473019C079F0792079607D607A307F6
:1000F000A707AD07B107B507BB07BF07C307D607FB
:10010000C907CD07D1070C94B5070C949C070C9434
:1001100079090C94C3070C949F070C945D090C9407
:10012000AD070C9492070C94B1070C94D6070C946D
:10013000D1070C946C080C94A4090C944D090C94F0
:1001400096070C94A3070C94A7070C9499090C9498
:10015000C9070C94BF070C94500C0C94CD070C9459
:10016000BB070000090A02080B0C0D070603040177
:10017000000000000000000000000000000000007F
:10018000000000000000000000000000000011104E
:100190000F00000000000000000000000000000050
:1001A00000000000000000000102102020080810DC
:1001B00020401020408002010201080402010102D7
:1001C00004081020408080402010080402018004B0
:1001D000020180402010080402010804020101020B
:1001E000040810204080010204081020408005050A
:1001F0000505070508080808020202020A0A08089D
:1002000004040404010101010101010103030303CA
:1002100003030303040707070C0C0C0C0C0C0C0C59
:100220000202020206060606060606060B0B0B0B6A
:100230000B0B0B0B000020002300260029002C00D4
:100240002F00320000010000030106010901000037
:100250002200250028002B002E003100340002016E
:100260000000050108010B01000021002400270007
:100270002A002D00300033000101000004010701B5
:100280000A01500C11241FBECFEFD1E2DEBFCDBF5B
:1002900000E00CBF13E0A0E0B2E0E6EDFAE100E020
:1002A0000BBF02C007900D92A23AB107D9F726E022
:1002B000A2EAB3E001C01D92A336B207E1F711E054
:1002C000C2E4D1E000E006C021970109802FFE01C1
:1002D0000E94470DC134D10780E00807A9F70E94AA
:1002E0004A060C94220D0C940000DC01ED91FC9167
:1002F0000190F081E02D1994CF92DF92EF92FF925E
:10030000CF93DF93C0E0D0E0C12CD12C760181E007
:100310000E946007817099270C2E02C0880F991FD8
:100320000A94E2F7092E000CAA0BBB0BC82AD92AA3
:10033000EA2AFB2A62E370E080E090E00E94D8069F
:100340002196C032D10519F7C701B601DF91CF91CF
:10035000FF90EF90DF90CF9008954F925F926F9251
:100360007F928F929F92AF92BF92CF92DF92EF9245
:10037000FF920F931F93CF93DF9300D01F92CDB7BF
:10038000DEB72B013C01CA01B901A80197010E9407
:10039000250D69837A838B839C83C301B201A801F5
:1003A00097010E94250D4B015C01C12CD12C412CE1
:1003B000512C320181E090E0A0E0B0E00C2C04C0B0
:1003C000880F991FAA1FBB1F0A94D2F78821992171
:1003D000AA21BB21892B8A2B8B2B91F069817A81F1
:1003E0008B819C81A80197010E94250D640D751DCC
:1003F000861D971DA80197010E94250D2B013C0128
:1004000069817A818B819C81660F771F881F991F74
:10041000A80197010E94250D69837A838B839C83B1
:100420002FEFC21AD20A8FE1C816D10419F6C30100
:10043000B2010F900F900F900F90DF91CF911F910D
:100440000F91FF90EF90DF90CF90BF90AF909F9073
:100450008F907F906F905F904F9008954F925F9232
:100460006F927F928F929F92AF92BF92EF92FF9284
:100470000F931F93CF93DF93CDB7DEB728970FB6B7
:10048000F894DEBF0FBECDBF2B013C0129833A8318
:100490004B835C834701580161E070E080E090E0AD
:1004A000A80197010E94250D6D837E838F83988715
:1004B000C301B201A80197010E94250D2B013C0147
:1004C00089819A81AB81BC81892B8A2B8B2B41F14D
:1004D000898180FF0EC085017401A30192016D81A5
:1004E0007E818F8198850E94AD016D837E838F838D
:1004F000988785017401A3019201C301B2010E9492
:10050000AD012B013C0189819A81AB81BC81B695FB
:10051000A7959795879589839A83AB83BC83D0CF22
:100520006D817E818F819885A50194010E94250DA2
:1005300028960FB6F894DEBF0FBECDBFDF91CF91E6
:100540001F910F91FF90EF90BF90AF909F908F9071
:100550007F906F905F904F9008951F93CF93DF939C
:10056000172FD82FC92F062E000C770B8BEB93E09B
:100570000E947501612F110F770B8BEB93E00E94A6
:1005800075016D2FDD0F770B8BEB93E00E947501EA
:100590006C2FCC0F770B8BEB93E0DF91CF911F91FA
:1005A0000C9475014F925F926F927F928F929F92FF
:1005B000AF92BF92CF92DF92EF92FF924B015C011C
:1005C000950144275527AFE8BCEB0E944F0D6B0106
:1005D0007C012B013C019FE07694679457944794EB
:1005E0009A95D1F7A5019401442755270E944F0DF4
:1005F000DC01CB01840D951DA61DB71DE894D7F82D
:10060000EE24FF247601DD24CC24BC01CD016C0D49
:100610007D1D8E1D9F1D97FF04C06F5F7F4F8F4F05
:100620009F47FF90EF90DF90CF90BF90AF909F904B
:100630008F907F906F905F904F900895EF92FF9210
:100640001F93CF93DF93182FCB017901C0E0D0E047
:10065000CE15DF0534F4BA010E94D202AB01219617
:10066000F7CF812F8427DF91CF911F91FF90EF90DB
:1006700008958F929F92AF92BF92CF92DF92EF92A6
:10068000FF92CF93DF93C82F4A015B010E94A70618
:100690006B017C01C80CD91CEA1CFB1CD0E08BEB65
:1006A00093E00E944D098C179D0754F08BEB93E06B
:1006B0000E944D0921E08C179D079CF420E011C099
:1006C000B7FE07C061E070E080E090E00E94D806CD
:1006D000E6CF0E94A7066C157D058E059F0590F359
:1006E000E5CF822FDF91CF91FF90EF90DF90CF90F9
:1006F000BF90AF909F908F900895CF92DF92EF922E
:10070000FF920F931F93CF93DF938BEB93E00E94A5
:100710007909EC018BEB93E00E9479098C018BEB5A
:1007200093E00E947909A801110F660B770B762FD1
:10073000652F542F44278C01990F220B330B9801FE
:1007400011270027402B512B622B732BCE01DD0F7D
:10075000AA0BBB0B6A017B01C82AD92AEA2AFB2A09
:100760008BEB93E00E947909092E000CAA0BBB0BBE
:10077000B82FAA2799278827BC01CD016C297D298C
:100780008E299F29DF91CF911F910F91FF90EF90BC
:10079000DF90CF90089580E090E00197E1F069E06C
:1007A00072E081E294E00E94C60860910002062E89
:1007B000000C770B8BEB93E00E9475016091A60310
:1007C0007091A7038091A8039091A9030E94AD02A4
:1007D00081E090E0E2CF6DE172E081E294E00E947E
:1007E000C60848EE53E060E070E081E00E94390303
:1007F000882371F18BEB93E00E947909209101022B
:10080000022E000C330B8217930711F56FE272E092
:1008100081E294E00E94C60848EE53E060E070E098
:1008200084E00E9439038823B9F30E947D0360931A
:10083000AA037093AB038093AC039093AD036091D4
:100840000102062E000C770B8BEB93E00C947501E4
:1008500066E472E081E294E00E94C6089CCFCF93E8
:1008600081E294E00E947909C82F682F81E294E028
:100870000E94A4092091A4033091A5034091AE03E6
:100880005091AF036091B0037091B1038C2F0E941F
:100890001E03682F8BEB93E00E94A4092091A40310
:1008A0003091A5032F5F3F4F3093A5032093A403FE
:1008B000CD30F1F44091AE035091AF036091B0039D
:1008C0007091B1038AE00E941E03682F8BEB93E0C6
:1008D0000E94A4098091A4039091A503019690938E
:1008E000A5038093A40381E294E0CF910C94B20815
:1008F000CF9108958BEB93E00E9479092091A20398
:100900003091A3034091AE035091AF036091B003C7
:100910007091B1030E941E03682F81E294E00E944F
:10092000A4098091A2039091A30301969093A3033D
:100930008093A20308951F93CF93DF93C0E0D0E08C
:1009400010E0C130D105F9F0C230D10509F45AC028
:100950006CE572E081E294E00E94C6088BEB93E0C4
:100960000E944D09892BD1F38BEB93E00E9479090A
:1009700020910002022E000C330B8217930719F40A
:1009800069E672E077C062E772E081E294E00E947B
:10099000C60848EE53E060E070E084E00E9439034E
:1009A000882309F47CC065E872E081E294E00E944B
:1009B000C6080E947D036093AA037093AB038093E3
:1009C000AC039093AD0360910102062E000C770BEF
:1009D0008BEB93E00E94750111115EC066E972E035
:1009E00081E294E00E94C6086091A6037091A7037B
:1009F0008091A8039091A9030E94AD02C2E0D0E0CB
:100A000011E09FCF63EA72E081E294E00E94C608A1
:100A100048EE53E060E070E081E00E9439038823F3
:100A2000F1F16FEB72E081E294E00E94C6088BEB7B
:100A300093E00E94790920910102022E000C330BF1
:100A40008217930749F46BEC72E081E294E0DF9146
:100A5000CF911F910C94C6088BEB93E00E9479090B
:100A600020910002022E000C330B8217930749F4E9
:100A700064ED72E081E294E00E94C608C1E0D0E03B
:100A800060CF6CED72E081E294E00E94C6088BEBCF
:100A900093E00E94990955CFC2E0D0E052CFC0E068
:100AA000D0E04FCF8DE00E944308019759F461EFE9
:100AB00072E081E294E00E94C6080E949B046CEF01
:100AC00072E00AC06EE073E081E294E00E94C60822
:100AD0000E94CB0369E173E081E294E00C94C608C4
:100AE0008F929F92AF92BF92EF92FF920F931F93BC
:100AF0000E94FE0660E081E00E94D70761E081E08D
:100B00000E94130860E08DE00E94D70740E855E29C
:100B100060E070E081E294E00E94C80B40E855E29A
:100B200060E070E08BEB93E00E94C80B6BE273E037
:100B300081E294E00E94C6080E947C014B015C01A6
:100B4000E0900402F0900502009106021091070265
:100B50006091020270910302072E000C880B990B22
:100B6000A50194010E942E026093A6037093A7032F
:100B70008093A8039093A90363E473E081E294E077
:100B80000E94A9082AE030E0B501A40181E294E0C6
:100B90000E943B0969E573E081E294E00E94A908A4
:100BA0004091A6035091A7036091A8037091A903F7
:100BB0002AE030E081E294E00E943B094091A603E4
:100BC0005091A7036091A8037091A90322E030E03F
:100BD00081E294E00E943B0981E294E00E94B20825
:100BE0000E945205E0900402F09005020091060276
:100BF000109107026091AA037091AB038091AC033E
:100C00009091AD03A50194010E942E026093AE0362
:100C10007093AF038093B0039093B1036EE673E0DB
:100C200081E294E00E94A9084091AA035091AB038D
:100C30006091AC037091AD032AE030E081E294E072
:100C40000E942E0981E294E00E94B2086DE773E0F1
:100C500081E294E00E94A9084091AE035091AF0355
:100C60006091B0037091B1032AE030E081E294E03A
:100C70000E943B0981E294E00E94B20881E294E084
:100C80001F910F91FF90EF90BF90AF909F908F902A
:100C90000C94B2080E94700581E294E00E944D0914
:100CA000892B11F00E942F048BEB93E00E944D09D9
:100CB000892B91F30E947A04EFCF1F920F920FB607
:100CC0000F9211242F933F938F939F93AF93BF93D2
:100CD0008091B3039091B403A091B503B091B60392
:100CE0003091B20323E0230F2D3720F40196A11D8C
:100CF000B11D05C026E8230F0296A11DB11D20934A
:100D0000B2038093B3039093B403A093B503B0935D
:100D1000B6038091B7039091B803A091B903B09145
:100D2000BA030196A11DB11D8093B7039093B80338
:100D3000A093B903B093BA03BF91AF919F918F91E4
:100D40003F912F910F900FBE0F901F9018952FB7C6
:100D5000F8946091B3037091B4038091B5039091BE
:100D6000B6032FBF08953FB7F8948091B7039091D1
:100D7000B803A091B903B091BA0326B5A89B05C0EA
:100D80002F3F19F00196A11DB11D3FBFBA2FA92F0A
:100D9000982F8827820F911DA11DB11DBC01CD0187
:100DA00042E0660F771F881F991F4A95D1F7089573
:100DB000CF92DF92EF92FF92CF93DF936B017C0192
:100DC0000E94B306EB01C114D104E104F10479F0EF
:100DD0000E94B3066C1B7D0B683E7340A0F381E05C
:100DE000C81AD108E108F108C851DC4FECCFDF91F7
:100DF000CF91FF90EF90DF90CF900895789484B5D5
:100E0000826084BD84B5816084BD85B5826085BD06
:100E100085B5816085BDEEE6F0E0808181608083EC
:100E2000E1E8F0E0108280818260808380818160CF
:100E30008083E0E8F0E0808181608083E1EBF0E096
:100E4000808184608083E0EBF0E08081816080833A
:100E5000E1E9F0E08081826080838081816080832D
:100E6000E0E9F0E0808181608083E1EAF0E0808168
:100E700082608083808181608083E0EAF0E080810D
:100E800081608083E1E2F1E0808182608083808103
:100E900081608083E0E2F1E0808181608083EAE725
:100EA000F0E08081846080838081826080838081A3
:100EB000816080838081806880831092C100089562
:100EC000863308F0865390917B00282F2870977FF7
:100ED000922B90937B0087702091080290E4299FC9
:100EE00090011124822B80937C0080917A00806491
:100EF00080937A0080917A0086FDFCCF8091780003
:100F00002091790090E0922B089590E0FC013197B8
:100F1000E131F10508F04AC08827EE58FF4F8F4FA6
:100F20000C94470D809180008F7703C080918000E2
:100F30008F7D80938000089584B58F7702C084B53B
:100F40008F7D84BD08958091B0008F7703C080911C
:100F5000B0008F7D8093B0000895809190008F77CE
:100F600007C0809190008F7D03C080919000877FA3
:100F70008093900008958091A0008F7707C08091A2
:100F8000A0008F7D03C08091A000877F8093A00088
:100F90000895809120018F7707C0809120018F7D77
:100FA00003C080912001877F809320010895CF9313
:100FB000DF9390E0FC01E855FE4F2491FC01E251E3
:100FC000FE4F8491882361F190E0880F991FFC0106
:100FD000E859FD4FC591D491FC01E25BFD4FA5910D
:100FE000B491611109C09FB7F8948881209582233C
:100FF0008883EC912E230BC0623061F49FB7F89484
:101000003881822F809583238883EC912E2B2C931B
:101010009FBF06C08FB7F894E8812E2B28838FBF1F
:10102000DF91CF9108951F93CF93DF93282F30E066
:10103000F901EE59FE4F8491F901E855FE4FD49124
:10104000F901E251FE4FC491CC23C9F0162F811152
:101050000E948507EC2FF0E0EE0FFF1FE25BFD4FD3
:10106000A591B4918FB7F894111105C09C91ED2F03
:10107000E095E92302C0EC91ED2BEC938FBFDF915B
:10108000CF911F910895CF93DF93282F30E0F9017E
:10109000EE59FE4F8491F901E855FE4FD491F901C4
:1010A000E251FE4FC491CC2391F081110E9485073B
:1010B000EC2FF0E0EE0FFF1FEC5CFD4FA591B4911B
:1010C000EC91ED2381E090E021F480E002C080E02B
:1010D00090E0DF91CF910895CF92DF92EF92FF924F
:1010E0000F931F93CF93DF936C01EB017B01E40E11
:1010F000F51E00E010E0CE15DF0561F06991D60124
:10110000ED91FC910190F081E02DC6011995080F39
:10111000191FF1CFC801DF91CF911F910F91FF905F
:10112000EF90DF90CF9008956115710579F0FB0184
:1011300001900020E9F73197AF01461B570BDC0106
:10114000ED91FC910280F381E02D199480E090E014
:1011500008950C949408DC01ED91FC910190F081CC
:10116000E02D19940F931F93CF93DF93EC016DE063
:101170000E94AB088C016AE0CE010E94AB08800F90
:10118000911FDF91CF911F910F9108950F931F939E
:10119000CF93DF93EC010E9494088C01CE010E9452
:1011A000B208800F911FDF91CF911F910F91089589
:1011B0008F929F92AF92BF92CF92DF92EF92FF9267
:1011C0000F931F93CF93DF93CDB7DEB7A1970FB6E1
:1011D000F894DEBF0FBECDBF6C01142FE52FCB01FD
:1011E000022F19A2223008F40AE07E0121E2E20E69
:1011F000F11C802E912CA12CB12C612F7E2FA501EA
:1012000094010E94250D029F1019112481E0E81A13
:10121000F1081A3014F4105D01C0195CF701108355
:10122000122FE32FCA01232B242B252B31F7B701D3
:10123000C6010E949408A1960FB6F894DEBF0FBEB7
:10124000CDBFDF91CF911F910F91FF90EF90DF9075
:10125000CF90BF90AF909F908F900895211531054A
:1012600041F4DC01ED91FC910190F081E02D642FBF
:1012700019940C94D8080F931F93CF93DF93EC012C
:101280000E942E098C01CE010E94B208800F911F8E
:10129000DF91CF911F910F910895FC012485358531
:1012A000F901E05CFF4F808191813296208131818C
:1012B000821B930B8F7399270895DC011C96ED9187
:1012C000FC911D97DF01A05CBF4F2D913C911197C0
:1012D00012968D919C9111972817390739F08D91AD
:1012E0009C91E80FF91F808190E008958FEF9FEFA8
:1012F0000895FC01A485B585FD01E05CFF4F2081C8
:1013000031813296808191812817390779F0808167
:101310009181A80FB91F8C91208131812F5F3F4FA0
:101320002F7333273183208390E008958FEF9FEF51
:101330000895FC0181A1882329F0A489B5898C91A5
:1013400086FFFBCF11A208950F931F93CF93DF93D6
:10135000FC01A685B7858D01005C1F4FE8018881DF
:10136000998101968F739927AD014E5B5F4FEA011A
:101370002881398182179307D1F3E80128813981C7
:10138000A20FB31F6C93A685B785A05CBF4F1196C3
:101390009C938E93A689B7892C9181E090E0078C6D
:1013A00002C0880F991F0A94E2F7822B8C9381E088
:1013B00081A30488F589E02D80818064808381E0A9
:1013C00090E0DF91CF911F910F910895FB01E05CB8
:1013D000FF4F208131812F5F3F4F2F733327DB0178
:1013E000AE5BBF4F4D915C912417350741F04081B2
:1013F0005181DB01A40FB51F8C93318320830895A5
:101400001F920F920FB60F9211240BB60F922F93CB
:101410003F934F935F936F937F938F939F93AF937C
:10142000BF93EF93FF938091C00082FD07C080912E
:10143000C6006FE176E00E94E60902C08091C60016
:10144000FF91EF91BF91AF919F918F917F916F919C
:101450005F914F913F912F910F900BBE0F900FBE58
:101460000F901F9018951F920F920FB60F92112494
:101470000BB60F922F933F934F935F936F937F938E
:101480008F939F93AF93BF93EF93FF938091C80087
:1014900082FD07C08091CE0067E975E00E94E609F1
:1014A00002C08091CE00FF91EF91BF91AF919F91CB
:1014B0008F917F916F915F914F913F912F910F90FD
:1014C0000BBE0F900FBE0F901F9018951F920F929A
:1014D0000FB60F9211240BB60F922F933F934F9399
:1014E0005F936F937F938F939F93AF93BF93EF938C
:1014F000FF938091D00082FD07C08091D6006FE0FD
:1015000075E00E94E60902C08091D600FF91EF913C
:10151000BF91AF919F918F917F916F915F914F910B
:101520003F912F910F900BBE0F900FBE0F901F9009
:1015300018951F920F920FB60F9211240BB60F92AF
:101540002F933F934F935F936F937F938F939F93CB
:10155000AF93BF93EF93FF938091300182FD07C05B
:101560008091360167E874E00E94E60902C080912C
:101570003601FF91EF91BF91AF919F918F917F9134
:101580006F915F914F913F912F910F900BBE0F90F4
:101590000FBE0F901F9018951F920F920FB60F92CB
:1015A00011240BB60F922F933F938F939F93EF933A
:1015B000FF9320911B0630911C0680911D0690918F
:1015C0001E062817390731F48091C1008F7D809362
:1015D000C10014C0E0911D06F0911E06E552FA4FBD
:1015E000208180911D0690911E0601968F73992788
:1015F00090931E0680931D062093C600FF91EF91E5
:101600009F918F913F912F910F900BBE0F900FBE26
:101610000F901F9018951F920F920FB60F921124E2
:101620000BB60F922F933F938F939F93EF93FF935C
:1016300020919305309194058091950590919605A0
:101640002817390731F48091C9008F7D8093C90034
:1016500014C0E0919505F0919605ED5AFA4F20815E
:10166000809195059091960501968F739927909397
:101670009605809395052093CE00FF91EF919F9161
:101680008F913F912F910F900BBE0F900FBE0F9037
:101690001F9018951F920F920FB60F9211240BB640
:1016A0000F922F933F938F939F93EF93FF932091EC
:1016B0000B0530910C0580910D0590910E052817B2
:1016C000390731F48091D1008F7D8093D10014C00F
:1016D000E0910D05F0910E05E553FB4F20818091BF
:1016E0000D0590910E0501968F73992790930E0525
:1016F00080930D052093D600FF91EF919F918F91DC
:101700003F912F910F900BBE0F900FBE0F901F9027
:1017100018951F920F920FB60F9211240BB60F92CD
:101720002F933F938F939F93EF93FF932091830485
:10173000309184048091850490918604281739079C
:1017400031F4809131018F7D8093310114C0E0919B
:101750008504F0918604ED5BFB4F20818091850428
:101760009091860401968F739927909386048093B5
:10177000850420933601FF91EF919F918F913F91C6
:101780002F910F900BBE0F900FBE0F901F901895CA
:10179000CF92DF92EF92FF920F931F93CF93DF933D
:1017A000EC016A017B014115514E6105710509F19A
:1017B000EC89FD8981E090E008A002C0880F991FA4
:1017C0000A94E2F7808360E079E08DE390E0A7017E
:1017D00096010E94250D89019A01015011092109E4
:1017E00031093695279517950795980101151041F0
:1017F000A8F0EC89FD89108260E874E88EE190E041
:10180000A70196010E94250DDA01C9010197A109DE
:10181000B109B695A795979587959C01E889F989AF
:101820003083EA89FB89208319A2EE89FF894081F0
:1018300081E090E09C010C8C02C0220F331F0A94BF
:10184000E2F7242B2083EE89FF8940819C010D8CD7
:1018500002C0220F331F0A94E2F7242B2083EE8963
:10186000FF8940819C010E8C02C0220F331F0A9415
:10187000E2F7242B2083EE89FF8920810F8C02C0A0
:10188000880F991F0A94E2F7809582238083DF9165
:10189000CF911F910F91FF90EF90DF90CF9008951F
:1018A000CF92DF92EF92FF92E1E2F4E01382128294
:1018B00088EEC82E83E0D82EE12CF12CC482D5828C
:1018C000E682F78266E973E0718360838FE196E0D8
:1018D000958784878BED95E09787868785EC90E0E8
:1018E000918B808B84EC90E0938B828B80EC90E0EA
:1018F000958B848B81EC90E0978B868B82EC90E0CB
:10190000918F808F86EC90E0938F828F44E0448F9C
:1019100033E0358F27E0268F95E0978F81E080A315
:10192000EFEFF3E013821282C482D582E682F7825F
:1019300071836083A7E9B5E0B587A487A3E5B5E027
:10194000B787A687ADECB0E0B18BA08BACECB0E074
:10195000B38BA28BA8ECB0E0B58BA48BA9ECB0E064
:10196000B78BA68BAAECB0E0B18FA08FAEECB0E045
:10197000B38FA28F448F358F268F978F80A3EDED85
:10198000F3E013821282C482D582E682F7827183E9
:101990006083AFE0B5E0B587A487ABECB4E0B78770
:1019A000A687A5EDB0E0B18BA08BA4EDB0E0B38B22
:1019B000A28BA0EDB0E0B58BA48BA1EDB0E0B78B0E
:1019C000A68BA2EDB0E0B18FA08FA6EDB0E0B38FF3
:1019D000A28F448F358F268F978F80A3EBEBF3E098
:1019E00013821282C482D582E682F7827183608379
:1019F00067E874E07587648763E474E077876687D7
:101A000065E371E0718B608B64E371E0738B628BD3
:101A100060E371E0758B648B61E371E0778B668BBB
:101A200062E371E0718F608F66E371E0738F628FA4
:101A3000448F358F268F978F80A3FF90EF90DF9094
:101A4000CF900895F8940C94690DA1E21A2EAA1B68
:101A5000BB1BFD010DC0AA1FBB1FEE1FFF1FA2175E
:101A6000B307E407F50720F0A21BB30BE40BF50B5B
:101A7000661F771F881F991F1A9469F760957095E4
:101A8000809590959B01AC01BD01CF010895EE0FAB
:101A9000FF1F881F8BBF0790F691E02D19940E94BD
:101AA0005A0DA59F900DB49F900DA49F800D911D80
:101AB00011240895A29FB001B39FC001A39F700D90
:101AC000811D1124911DB29F700D811D1124911D46
:061AD0000895F894FFCF19
:101AD6004341A741FFFFFF7F017374617274696E12
:101AE60067212C20777269746520435200776169FB
:101AF60074696E6720666F722061636B21210067CF
:101B06006F742061636B2C20726563656976696EFC
:101B160067206B657900636F756C646E742067650A
:101B2600742041434B20627974652E006C6973748E
:101B3600656E696E672E2E2E00676F7420435221E4
:101B4600210077616974696E6720666F72206B6524
:101B5600792E2E2E00676F742061203332626974ED
:101B6600206B6579210073656E74206F776E206B2C
:101B760065790077616974696E6720666F722061A6
:101B8600636B2066726F6D20636C69656E740067A7
:101B96006F74206120627974652100676F7420611B
:101BA600636B2100676F7420637221006461746146
:101BB6002065786368616E676520706F696E742E44
:101BC6000049276D2073657276657200676F742011
:101BD6006F7574206F66207365727665720049278B
:101BE6006D20636C69656E7400676F74206F757421
:101BF600206F6620636C69656E740057656C636F51
:101C06006D6520746F2041726475696E6F2063681C
:101C1600617400596F7572207072697661746520FF
:101C26006B65792069733A2000596F75722070755B
:101C3600626C6963206B65792069733A20004F7482
:101C4600686572206B65792069733A2000596F7553
:101C56007220736861726564206B65792069733AD6
:101C6600200000000000A4096C084D0979095D09EF
:021C76009909CA
:00000001FF
