:100000000C9442010C9473010C9473010C947301D1
:100010000C9473010C9473010C9473010C94730190
:100020000C9473010C9473010C9473010C94730180
:100030000C9473010C9473010C9473010C94730170
:100040000C9473010C9473010C9473010C94730160
:100050000C9473010C9473010C9473010C94D905E6
:100060000C9473010C947C090C94480A0C94730151
:100070000C9473010C9473010C9473010C94730130
:100080000C9473010C9473010C9473010C94730120
:100090000C94AF090C94870A0C9473010C947301AF
:1000A0000C9473010C9473010C9473010C94730100
:1000B0000C9473010C9473010C9473010C947301F0
:1000C0000C9473010C9473010C9473010C94E20969
:1000D0000C94C60A0C9473010C94150A0C94050B2D
:1000E0000C94730118071B070E07120752071F070E
:1000F000230729072D07310737073B073F0752071B
:10010000450749074D070C94D9080C9429070C940E
:1001100045070C9420090C94C9080C9415090C94FB
:1001200037070C9452070C941B070C941F070C9470
:1001300018070C94F5080C942D070C944D070C949B
:1001400031070C94CC0B0C9449070C940E070C94BB
:100150003F070C9412070C943B070C94E8070C948F
:1001600023070000090A02080B0C0D07060304010F
:10017000000000000000000000000000000000007F
:10018000000000000000000000000000000011104E
:100190000F00000000000000000000000000000050
:1001A00000000000000000000102102020080810DC
:1001B00020401020408002010201080402010102D7
:1001C00004081020408080402010080402018004B0
:1001D000020180402010080402010804020101020B
:1001E000040810204080010204081020408005050A
:1001F0000505070508080808020202020A0A08089D
:1002000004040404010101010101010103030303CA
:1002100003030303040707070C0C0C0C0C0C0C0C59
:100220000202020206060606060606060B0B0B0B6A
:100230000B0B0B0B000020002300260029002C00D4
:100240002F00320000010000030106010901000037
:100250002200250028002B002E003100340002016E
:100260000000050108010B01000021002400270007
:100270002A002D00300033000101000004010701B5
:100280000A01CC0B11241FBECFEFD1E2DEBFCDBFE0
:1002900000E00CBF13E0A0E0B2E0EEECF9E100E01A
:1002A0000BBF02C007900D92A435B107D9F726E025
:1002B000A4E5B3E001C01D92A531B207E1F711E05A
:1002C000C2E4D1E000E006C021970109802FFE01C1
:1002D0000E94C30CC134D10780E00807A9F70E942F
:1002E000C6050C949E0C0C940000DC01ED91FC9171
:1002F0000190F081E02D1994CF92DF92EF92FF925E
:10030000CF93DF93C0E0D0E0C12CD12C760181E007
:100310000E94DC06817099270C2E02C0880F991F5D
:100320000A94E2F7092E000CAA0BBB0BC82AD92AA3
:10033000EA2AFB2A62E370E080E090E00E94540623
:100340002196C032D10519F7C701B601DF91CF91CF
:10035000FF90EF90DF90CF9008954F925F926F9251
:100360007F928F929F92AF92BF92CF92DF92EF9245
:10037000FF920F931F93CF93DF9300D01F92CDB7BF
:10038000DEB72B013C01CA01B901A80197010E9407
:10039000A10C69837A838B839C83C301B201A8017A
:1003A00097010E94A10C4B015C01C12CD12C412C66
:1003B000512C320181E090E0A0E0B0E00C2C04C0B0
:1003C000880F991FAA1FBB1F0A94D2F78821992171
:1003D000AA21BB21892B8A2B8B2B91F069817A81F1
:1003E0008B819C81A80197010E94A10C640D751D51
:1003F000861D971DA80197010E94A10C2B013C01AD
:1004000069817A818B819C81660F771F881F991F74
:10041000A80197010E94A10C69837A838B839C8336
:100420002FEFC21AD20A8FE1C816D10419F6C30100
:10043000B2010F900F900F900F90DF91CF911F910D
:100440000F91FF90EF90DF90CF90BF90AF909F9073
:100450008F907F906F905F904F9008954F925F9232
:100460006F927F928F929F92AF92BF92EF92FF9284
:100470000F931F93CF93DF93CDB7DEB728970FB6B7
:10048000F894DEBF0FBECDBF2B013C0129833A8318
:100490004B835C834701580161E070E080E090E0AD
:1004A000A80197010E94A10C6D837E838F8398879A
:1004B000C301B201A80197010E94A10C2B013C01CC
:1004C00089819A81AB81BC81892B8A2B8B2B41F14D
:1004D000898180FF0EC085017401A30192016D81A5
:1004E0007E818F8198850E94AD016D837E838F838D
:1004F000988785017401A3019201C301B2010E9492
:10050000AD012B013C0189819A81AB81BC81B695FB
:10051000A7959795879589839A83AB83BC83D0CF22
:100520006D817E818F819885A50194010E94A10C27
:1005300028960FB6F894DEBF0FBECDBFDF91CF91E6
:100540001F910F91FF90EF90BF90AF909F908F9071
:100550007F906F905F904F9008951F93CF93DF939C
:10056000172FD82FC92F062E000C770B8DE693E09E
:100570000E947501612F110F770B8DE693E00E94A9
:1005800075016D2FDD0F770B8DE693E00E947501ED
:100590006C2FCC0F770B8DE693E0DF91CF911F91FD
:1005A0000C9475014F925F926F927F928F929F92FF
:1005B000AF92BF92CF92DF92EF92FF924B015C011C
:1005C000950144275527AFE8BCEB0E94CB0C6B018B
:1005D0007C012B013C019FE07694679457944794EB
:1005E0009A95D1F7A5019401442755270E94CB0C79
:1005F000DC01CB01840D951DA61DB71DE894D7F82D
:10060000EE24FF247601DD24CC24BC01CD016C0D49
:100610007D1D8E1D9F1D97FF04C06F5F7F4F8F4F05
:100620009F47FF90EF90DF90CF90BF90AF909F904B
:100630008F907F906F905F904F900895EF92FF9210
:100640001F93CF93DF93182FCB017901C0E0D0E047
:10065000CE15DF0534F4BA010E94D202AB01219617
:10066000F7CF812F8427DF91CF911F91FF90EF90DB
:1006700008958F929F92AF92BF92CF92DF92EF92A6
:10068000FF92CF93DF93C82F4A015B010E9423069C
:100690006B017C01C80CD91CEA1CFB1CD0E08DE668
:1006A00093E00E94C9088C179D0754F08DE693E0F3
:1006B0000E94C90821E08C179D079CF420E011C01E
:1006C000B7FE07C061E070E080E090E00E94540651
:1006D000E6CF0E9423066C157D058E059F0590F3DD
:1006E000E5CF822FDF91CF91FF90EF90DF90CF90F9
:1006F000BF90AF909F908F900895CF92DF92EF922E
:10070000FF920F931F93CF93DF938DE693E00E94A8
:10071000F508EC018DE693E00E94F5088C018DE66A
:1007200093E00E94F508A801110F660B770B762F56
:10073000652F542F44278C01990F220B330B9801FE
:1007400011270027402B512B622B732BCE01DD0F7D
:10075000AA0BBB0B6A017B01C82AD92AEA2AFB2A09
:100760008DE693E00E94F508092E000CAA0BBB0B46
:10077000B82FAA2799278827BC01CD016C297D298C
:100780008E299F29DF91CF911F910F91FF90EF90BC
:10079000DF90CF90089569E072E083ED93E00E94CE
:1007A00042088DE693E00E94C908892BD1F38DE6BB
:1007B00093E00E94F50866E172E083ED93E00E9409
:1007C000420848EE53E060E070E084E00E943903A4
:1007D000882301F169E272E083ED93E00E94420810
:1007E0000E947D0360935C0370935D0380935E03BE
:1007F00090935F03609101028DE693E00E942009CF
:10080000609158037091590380915A0390915B0352
:100810000E94AD0248EE53E060E070E081E00E948B
:100820003903882319F16AE372E083ED93E00E94B3
:1008300042088DE693E00E94F5082091010230E025
:100840008217930719F466E472E00CC08DE693E01A
:100850000E94F5082091000230E08217930731F4DE
:100860006FE472E083ED93E00E94420867E572E076
:1008700083ED93E00C9442086CE672E083ED93E024
:100880000E944208609100028DE693E00E942009D8
:10089000609158037091590380915A0390915B03C2
:1008A0000E94AD0266E772E083ED93E00E94420889
:1008B00048EE53E060E070E081E00E943903882355
:1008C000A1F08DE693E00E94F50868E872E083ED00
:1008D00093E00E9442080E947D0360935C03709342
:1008E0005D0380935E0390935F036FE972E083ED95
:1008F00093E00C9442088DE00E94BF07019771F4C9
:1009000065EB72E083ED93E00E9442080E94CB0306
:1009100060EC72E083ED93E00C94420862ED72E0CB
:1009200083ED93E00E9442080C943C048F929F92C6
:10093000AF92BF92CF92DF92EF92FF920F931F93ED
:100940000E947A0660E081E00E94530761E081E046
:100950000E948F0760E08DE00E94530740E855E257
:1009600060E070E083ED93E00E94440B40E855E2C4
:1009700060E070E08DE693E00E94440B6DED72E064
:1009800083ED93E00E9442080E947C014B015C01D0
:10099000E0900402F0900502009106021091070217
:1009A0006091020270910302072E000C880B990BD4
:1009B000A50194010E942E026B017C0165EF72E09B
:1009C00083ED93E00E9425082AE030E0B501A40100
:1009D00083ED93E00E94B7086BE073E083ED93E052
:1009E0000E9425082AE030E0B701A60183ED93E0DC
:1009F0000E94B70883ED93E00E942E080E947B04BA
:100A0000E0900402F09005020091060210910702A6
:100A100060915C0370915D0380915E0390915F0330
:100A2000A50194010E942E026093600370936103FC
:100A3000809362039093630360E273E083ED93E03D
:100A40000E94250840915C0350915D0360915E0314
:100A500070915F032AE030E083ED93E00E94AA08E2
:100A600083ED93E00E942E086FE273E083ED93E044
:100A70000E942508409160035091610360916203D8
:100A8000709163032AE030E083ED93E00E94B708A1
:100A900083ED93E00E942E0883ED93E01F910F9168
:100AA000FF90EF90DF90CF90BF90AF909F908F908E
:100AB0000C942E08CF9383ED93E00E94F508C82F85
:100AC000682F83ED93E00E94200920915603309116
:100AD00057034091600350916103609162037091EC
:100AE00063038C2F0E941E03682F8DE693E00E9403
:100AF000200920915603309157032F5F3F4F3093C9
:100B0000570320935603CD30F1F440916003509188
:100B1000610360916203709163038AE00E941E0387
:100B2000682F8DE693E00E942009809156039091F2
:100B300057030196909357038093560383ED93E0F8
:100B4000CF910C942E08CF9108958DE693E00E94EA
:100B5000F508209154033091550340916003509162
:100B6000610360916203709163030E941E03682F0A
:100B700083ED93E00E9420098091540390915503E6
:100B80000196909355038093540308950E94960410
:100B900083ED93E00E94C908892B11F00E945A0549
:100BA0008DE693E00E94C908892B91F30E94A50568
:100BB000EFCF1F920F920FB60F9211242F933F93F6
:100BC0008F939F93AF93BF9380916503909166033A
:100BD000A0916703B09168033091640323E0230F71
:100BE0002D3720F40196A11DB11D05C026E8230F65
:100BF0000296A11DB11D2093640380936503909319
:100C00006603A0936703B093680380916903909192
:100C10006A03A0916B03B0916C030196A11DB11DF5
:100C20008093690390936A03A0936B03B0936C0362
:100C3000BF91AF919F918F913F912F910F900FBED8
:100C40000F901F9018952FB7F894609165037091DD
:100C5000660380916703909168032FBF08953FB7A3
:100C6000F8948091690390916A03A0916B03B0910D
:100C70006C0326B5A89B05C02F3F19F00196A11D56
:100C8000B11D3FBFBA2FA92F982F8827820F911D22
:100C9000A11DB11DBC01CD0142E0660F771F881F69
:100CA000991F4A95D1F70895CF92DF92EF92FF9264
:100CB000CF93DF936B017C010E942F06EB01C114DF
:100CC000D104E104F10479F00E942F066C1B7D0B26
:100CD000683E7340A0F381E0C81AD108E108F1082A
:100CE000C851DC4FECCFDF91CF91FF90EF90DF90B8
:100CF000CF900895789484B5826084BD84B5816076
:100D000084BD85B5826085BD85B5816085BDEEE613
:100D1000F0E0808181608083E1E8F0E010828081F2
:100D200082608083808181608083E0E8F0E0808160
:100D300081608083E1EBF0E0808184608083E0EB80
:100D4000F0E0808181608083E1E9F0E08081826071
:100D50008083808181608083E0E9F0E08081816030
:100D60008083E1EAF0E0808182608083808181601D
:100D70008083E0EAF0E0808181608083E1E2F1E05D
:100D8000808182608083808181608083E0E2F1E005
:100D9000808181608083EAE7F0E0808184608083E5
:100DA000808182608083808181608083808180688F
:100DB00080831092C1000895863308F08653909185
:100DC0007B00282F2870977F922B90937B00877051
:100DD0002091080290E4299F90011124822B809396
:100DE0007C0080917A00806480937A0080917A0000
:100DF00086FDFCCF809178002091790090E0922BC5
:100E0000089590E0FC013197E131F10508F04AC006
:100E10008827EE58FF4F8F4F0C94C30C80918000B1
:100E20008F7703C0809180008F7D8093800008952C
:100E300084B58F7702C084B58F7D84BD089580917D
:100E4000B0008F7703C08091B0008F7D8093B00099
:100E50000895809190008F7707C0809190008F7DDA
:100E600003C080919000877F8093900008958091C7
:100E7000A0008F7707C08091A0008F7D03C0809174
:100E8000A000877F8093A0000895809120018F7734
:100E900007C0809120018F7D03C080912001877F52
:100EA000809320010895CF93DF9390E0FC01E855F3
:100EB000FE4F2491FC01E251FE4F8491882361F1A1
:100EC00090E0880F991FFC01E859FD4FC591D4911E
:100ED000FC01E25BFD4FA591B491611109C09FB780
:100EE000F8948881209582238883EC912E230BC06F
:100EF000623061F49FB7F8943881822F8095832304
:100F00008883EC912E2B2C939FBF06C08FB7F8944B
:100F1000E8812E2B28838FBFDF91CF9108951F93F7
:100F2000CF93DF93282F30E0F901EE59FE4F8491E3
:100F3000F901E855FE4FD491F901E251FE4FC491F9
:100F4000CC23C9F0162F81110E940107EC2FF0E08D
:100F5000EE0FFF1FE25BFD4FA591B4918FB7F894A0
:100F6000111105C09C91ED2FE095E92302C0EC9191
:100F7000ED2BEC938FBFDF91CF911F910895CF930D
:100F8000DF93282F30E0F901EE59FE4F8491F901EB
:100F9000E855FE4FD491F901E251FE4FC491CC23A4
:100FA00091F081110E940107EC2FF0E0EE0FFF1F7E
:100FB000EC5CFD4FA591B491EC91ED2381E090E0C4
:100FC00021F480E002C080E090E0DF91CF910895AD
:100FD000CF92DF92EF92FF920F931F93CF93DF9305
:100FE0006C01EB017B01E40EF51E00E010E0CE1574
:100FF000DF0561F06991D601ED91FC910190F081DE
:10100000E02DC6011995080F191FF1CFC801DF9116
:10101000CF911F910F91FF90EF90DF90CF900895A7
:101020006115710579F0FB0101900020E9F7319716
:10103000AF01461B570BDC01ED91FC910280F3815F
:10104000E02D199480E090E008950C941008DC01E4
:10105000ED91FC910190F081E02D19940F931F9375
:10106000CF93DF93EC016DE00E9427088C016AE0CA
:10107000CE010E942708800F911FDF91CF911F9111
:101080000F9108950F931F93CF93DF93EC010E946C
:1010900010088C01CE010E942E08800F911FDF9155
:1010A000CF911F910F9108958F929F92AF92BF920F
:1010B000CF92DF92EF92FF920F931F93CF93DF9324
:1010C000CDB7DEB7A1970FB6F894DEBF0FBECDBF88
:1010D0006C01142FE52FCB01022F19A2223008F446
:1010E0000AE07E0121E2E20EF11C802E912CA12C5F
:1010F000B12C612F7E2FA50194010E94A10C029FAB
:101100001019112481E0E81AF1081A3014F4105D66
:1011100001C0195CF7011083122FE32FCA01232BA2
:10112000242B252B31F7B701C6010E941008A19688
:101130000FB6F894DEBF0FBECDBFDF91CF911F91E8
:101140000F91FF90EF90DF90CF90BF90AF909F9066
:101150008F9008952115310541F4DC01ED91FC914A
:101160000190F081E02D642F19940C9454080F9392
:101170001F93CF93DF93EC010E94AA088C01CE014C
:101180000E942E08800F911FDF91CF911F910F9128
:101190000895FC0124853585F901E05CFF4F8081CD
:1011A0009181329620813181821B930B8F73992715
:1011B0000895DC011C96ED91FC911D97DF01A05C68
:1011C000BF4F2D913C91119712968D919C91119743
:1011D0002817390739F08D919C91E80FF91F80810C
:1011E00090E008958FEF9FEF0895FC01A485B585E9
:1011F000FD01E05CFF4F2081318132968081918139
:101200002817390779F080819181A80FB91F8C9137
:10121000208131812F5F3F4F2F733327318320830C
:1012200090E008958FEF9FEF0895FC0181A188233E
:1012300029F0A489B5898C9186FFFBCF11A208956E
:101240000F931F93CF93DF93FC01A685B7858D0184
:10125000005C1F4FE8018881998101968F7399275F
:10126000AD014E5B5F4FEA012881398182179307F8
:10127000D1F3E80128813981A20FB31F6C93A685B1
:10128000B785A05CBF4F11969C938E93A689B789B2
:101290002C9181E090E0078C02C0880F991F0A947E
:1012A000E2F7822B8C9381E081A30488F589E02DFD
:1012B00080818064808381E090E0DF91CF911F91F5
:1012C0000F910895FB01E05CFF4F208131812F5F7A
:1012D0003F4F2F733327DB01AE5BBF4F4D915C91C6
:1012E0002417350741F040815181DB01A40FB51F60
:1012F0008C933183208308951F920F920FB60F9223
:1013000011240BB60F922F933F934F935F936F93DC
:101310007F938F939F93AF93BF93EF93FF938091AE
:10132000C00082FD07C08091C60061ED75E00E949B
:10133000620902C08091C600FF91EF91BF91AF9109
:101340009F918F917F916F915F914F913F912F91DD
:101350000F900BBE0F900FBE0F901F9018951F920D
:101360000F920FB60F9211240BB60F922F933F934B
:101370004F935F936F937F938F939F93AF93BF939D
:10138000EF93FF938091C80082FD07C08091CE004B
:1013900069E475E00E94620902C08091CE00FF916D
:1013A000EF91BF91AF919F918F917F916F915F91DD
:1013B0004F913F912F910F900BBE0F900FBE0F904A
:1013C0001F9018951F920F920FB60F9211240BB613
:1013D0000F922F933F934F935F936F937F938F93CE
:1013E0009F93AF93BF93EF93FF938091D00082FDC3
:1013F00007C08091D60061EC74E00E94620902C0CF
:101400008091D600FF91EF91BF91AF919F918F9105
:101410007F916F915F914F913F912F910F900BBEF4
:101420000F900FBE0F901F9018951F920F920FB63E
:101430000F9211240BB60F922F933F934F935F930C
:101440006F937F938F939F93AF93BF93EF93FF938C
:101450008091300182FD07C08091360169E374E01C
:101460000E94620902C080913601FF91EF91BF9105
:10147000AF919F918F917F916F915F914F913F912C
:101480002F910F900BBE0F900FBE0F901F901895CD
:101490001F920F920FB60F9211240BB60F922F933B
:1014A0003F938F939F93EF93FF932091CD053091BE
:1014B000CE058091CF059091D0052817390731F4DA
:1014C0008091C1008F7D8093C10014C0E091CF0551
:1014D000F091D005E357FA4F20818091CF0590918C
:1014E000D00501968F7399279093D0058093CF05EF
:1014F0002093C600FF91EF919F918F913F912F9183
:101500000F900BBE0F900FBE0F901F9018951F925B
:101510000F920FB60F9211240BB60F922F933F9399
:101520008F939F93EF93FF9320914505309146054C
:1015300080914705909148052817390731F480912B
:10154000C9008F7D8093C90014C0E0914705F091D8
:101550004805EB5FFA4F208180914705909148053F
:1015600001968F73992790934805809347052093A0
:10157000CE00FF91EF919F918F913F912F910F900E
:101580000BBE0F900FBE0F901F9018951F920F92D9
:101590000FB60F9211240BB60F922F933F938F9398
:1015A0009F93EF93FF932091BD043091BE048091EF
:1015B000BF049091C0042817390731F48091D100FD
:1015C0008F7D8093D10014C0E091BF04F091C004DE
:1015D000E358FB4F20818091BF049091C004019695
:1015E0008F7399279093C0048093BF042093D600F3
:1015F000FF91EF919F918F913F912F910F900BBE93
:101600000F900FBE0F901F9018951F920F920FB65C
:101610000F9211240BB60F922F933F938F939F93AA
:10162000EF93FF9320913504309136048091370475
:10163000909138042817390731F4809131018F7D5A
:101640008093310114C0E0913704F0913804EB50DD
:10165000FC4F2081809137049091380401968F735C
:101660009927909338048093370420933601FF9193
:10167000EF919F918F913F912F910F900BBE0F9003
:101680000FBE0F901F901895CF92DF92EF92FF92AE
:101690000F931F93CF93DF93EC016A017B014115F8
:1016A000514E6105710509F1EC89FD8981E090E0F9
:1016B00008A002C0880F991F0A94E2F7808360E0B7
:1016C00079E08DE390E0A70196010E94A10C8901C9
:1016D0009A0101501109210931093695279517956D
:1016E0000795980101151041A8F0EC89FD89108239
:1016F00060E874E88EE190E0A70196010E94A10CD9
:10170000DA01C9010197A109B109B695A795979585
:1017100087959C01E889F9893083EA89FB892083D0
:1017200019A2EE89FF89408181E090E09C010C8C38
:1017300002C0220F331F0A94E2F7242B2083EE8984
:10174000FF8940819C010D8C02C0220F331F0A9437
:10175000E2F7242B2083EE89FF8940819C010E8CC7
:1017600002C0220F331F0A94E2F7242B2083EE8954
:10177000FF8920810F8C02C0880F991F0A94E2F71D
:10178000809582238083DF91CF911F910F91FF90ED
:10179000EF90DF90CF900895CF92DF92EF92FF927B
:1017A000E3EDF3E01382128288EEC82E83E0D82E98
:1017B000E12CF12CC482D582E682F78268E473E0E2
:1017C0007183608381ED95E0958784878DE895E04E
:1017D0009787868785EC90E0918B808B84EC90E0F6
:1017E000938B828B80EC90E0958B848B81EC90E0E6
:1017F000978B868B82EC90E0918F808F86EC90E0C7
:10180000938F828F44E0448F33E0358F27E0268F1B
:1018100095E0978F81E080A3E1EBF3E013821282E1
:10182000C482D582E682F78271836083A9E4B5E041
:10183000B587A487A5E0B5E0B787A687ADECB0E093
:10184000B18BA08BACECB0E0B38BA28BA8ECB0E07A
:10185000B58BA48BA9ECB0E0B78BA68BAAECB0E05B
:10186000B18FA08FAEECB0E0B38FA28F448F358FD5
:10187000268F978F80A3EFE8F3E013821282C48251
:10188000D582E682F78271836083A1ECB4E0B587EC
:10189000A487ADE7B4E0B787A687A5EDB0E0B18B2C
:1018A000A08BA4EDB0E0B38BA28BA0EDB0E0B58B24
:1018B000A48BA1EDB0E0B78BA68BA2EDB0E0B18F09
:1018C000A08FA6EDB0E0B38FA28F448F358F268F07
:1018D000978F80A3EDE6F3E013821282C482D58253
:1018E000E682F7827183608369E374E075876487B9
:1018F00065EF73E07787668765E371E0718B608BD6
:1019000064E371E0738B628B60E371E0758B648BD1
:1019100061E371E0778B668B62E371E0718F608FBA
:1019200066E371E0738F628F448F358F268F978FB8
:1019300080A3FF90EF90DF90CF900895F8940C94DF
:10194000E50CA1E21A2EAA1BBB1BFD010DC0AA1FAC
:10195000BB1FEE1FFF1FA217B307E407F50720F018
:10196000A21BB30BE40BF50B661F771F881F991F93
:101970001A9469F760957095809590959B01AC01DC
:10198000BD01CF010895EE0FFF1F881F8BBF079089
:10199000F691E02D19940E94D60CA59F900DB49F4E
:1019A000900DA49F800D911D11240895A29FB00158
:1019B000B39FC001A39F700D811D1124911DB29F83
:0E19C000700D811D1124911D0895F894FFCF24
:1019CE004341A741FFFFFF7F016C697374656E6928
:1019DE006E672E2E2E0077616974696E6720666FB2
:1019EE0072206B65792E2E2E00676F742061203366
:1019FE0032626974206B65792100676F74206120F3
:101A0E00627974652100676F742061636B210067D2
:101A1E006F7420637221006461746120657863685D
:101A2E00616E676520706F696E742E0073746172DB
:101A3E0074696E67210077616974696E6720666FDD
:101A4E00722061636B212100676F742061636B2CC0
:101A5E0020726563656976696E67206B65790067CC
:101A6E006F7420746F20646174612065786368619F
:101A7E006E6765210049276D207365727665720069
:101A8E00676F74206F7574206F662073657276654C
:101A9E00720049276D20636C69656E740057656C22
:101AAE00636F6D6520746F2041726475696E6F206F
:101ABE006368617400596F75722070726976617413
:101ACE0065206B65792069733A2000596F75722015
:101ADE007075626C6963206B65792069733A2000BA
:101AEE004F74686572206B65792069733A200059CE
:101AFE006F757220736861726564206B65792069F9
:101B0E00733A2000000000002009E807C908F50814
:041B1E00D9081509C4
:00000001FF
