:100000000C9442010C9473010C9473010C947301D1
:100010000C9473010C9473010C9473010C94730190
:100020000C9473010C9473010C9473010C94730180
:100030000C9473010C9473010C9473010C94730170
:100040000C9473010C9473010C9473010C94730160
:100050000C9473010C9473010C9473010C94CD02F5
:100060000C9473010C9436060C9402070C947301E3
:100070000C9473010C9473010C9473010C94730130
:100080000C9473010C9473010C9473010C94730120
:100090000C9469060C9441070C9473010C94730141
:1000A0000C9473010C9473010C9473010C94730100
:1000B0000C9473010C9473010C9473010C947301F0
:1000C0000C9473010C9473010C9473010C949C06B2
:1000D0000C9480070C9473010C94CF060C94BF070A
:1000E0000C9473019003930386038A03CA03970356
:1000F0009B03A103A503A903AF03B303B703CA037B
:10010000BD03C103C5030C9493050C9490030C9498
:100110009B030C9460040C94CA030C948A030C9403
:1001200086080C94AF030C9493030C94C5030C94B1
:10013000C1030C94A5030C94CF050C94AF050C944B
:10014000BD030C94DA050C9497030C94A9030C944A
:1001500083050C94B7030C9486030C94B3030C949E
:10016000A1030000090A02080B0C0D070603040195
:10017000000000000000000000000000000000007F
:10018000000000000000000000000000000011104E
:100190000F00000000000000000000000000000050
:1001A00000000000000000000102102020080810DC
:1001B00020401020408002010201080402010102D7
:1001C00004081020408080402010080402018004B0
:1001D000020180402010080402010804020101020B
:1001E000040810204080010204081020408005050A
:1001F0000505070508080808020202020A0A08089D
:1002000004040404010101010101010103030303CA
:1002100003030303040707070C0C0C0C0C0C0C0C59
:100220000202020206060606060606060B0B0B0B6A
:100230000B0B0B0B000020002300260029002C00D4
:100240002F00320000010000030106010901000037
:100250002200250028002B002E003100340002016E
:100260000000050108010B01000021002400270007
:100270002A002D00300033000101000004010701B5
:100280000A01860811241FBECFEFD1E2DEBFCDBF29
:1002900000E00CBF12E0A0E0B2E0EEE0F3E100E02D
:1002A0000BBF02C007900D92A03BB107D9F725E024
:1002B000A0EBB2E001C01D92A336B207E1F711E056
:1002C000C2E4D1E000E006C021970109802FFE01C1
:1002D0000E947D09C134D10780E00807A9F70E9478
:1002E0008A020C9458090C940000CF93DF930E946B
:1002F000170340E855E260E070E081E293E00E947D
:10030000FE07C5E9D2E08881229661E00E94CB0316
:1003100082E0CF39D807B9F760E072E081E293E07C
:100320000E94BA0460E086E00E94CB0361E086E0B0
:100330000E94070460E087E00E94CB0361E087E051
:100340000E9407046EE072E081E293E0DF91CF91BA
:100350000C94BA04CF93DF93C5E9D2E0888122964A
:1003600060E00E94070482E0CF39D807B9F760E265
:1003700072E081E293E0DF91CF910C94BA04AF92E6
:10038000BF92CF92DF92EF92FF920F931F93CF9382
:10039000DF930E94AA0165E172E081E293E00E948E
:1003A000BA04E090B002F090B102C0E0D0E004E006
:1003B00010E0FE01E557FD4FA084B1846701CA1823
:1003C000DB08D7FC24C061E0FE01EB56FD4F8085C1
:1003D0000E9407044AE050E0B70181E293E00E94E6
:1003E0006C054AE050E0B50181E293E00E946C05A3
:1003F0004AE050E0B80181E293E00E946C054AE0D7
:1004000050E0B60181E293E00E946C057601015054
:1004100011092297C63F8FEFD80759F6DF91CF9188
:100420001F910F91FF90EF90DF90CF90BF90AF9012
:1004300008950F931F93CF93DF93CBE8D2E005E9A4
:1004400012E080E0299139914091B0025091B102BF
:100450004217530771F40E94AA016BE272E081E235
:1004600093E00E94BA0461E0F80180810E940704D1
:1004700081E00E5F1F4FF2E0C539DF0719F78111E8
:1004800002C00E94BF018091B0029091B10280979A
:1004900064F00E94AA011092B1021092B0026EE3C1
:1004A00072E081E293E00E94BA048091B0029091E0
:1004B000B10297FF06C00E94AA011092B1021092E9
:1004C000B002DF91CF911F910F9108956091B0021A
:1004D0007091B1026F5F7F4F7093B1026093B00271
:1004E0004AE050E081E293E00E946C050C9419020E
:1004F0006091B0027091B102615071097093B102C4
:100500006093B0024AE050E081E293E00E946C0503
:100510000C9419020E9475016AE472E081E293E092
:100520000E949D0465E572E081E293E00E94BA04B6
:10053000D0E0C0E086E00E9437048C0187E00E9492
:1005400037040115110569F40197A1F7C11120C005
:100550000E94660261E772E081E293E00E94BA04C1
:1005600017C0009771F40130110521F7D11113C0A4
:100570000E9478026EE772E081E293E00E94BA0482
:100580000AC00130110509F4C0E0019799F601C0D5
:10059000C1E0D0E0CFCFD1E0CCCF1F920F920FB609
:1005A0000F9211242F933F938F939F93AF93BF93F9
:1005B0008091B3029091B402A091B502B091B602BD
:1005C0003091B20223E0230F2D3720F40196A11DB4
:1005D000B11D05C026E8230F0296A11DB11D209371
:1005E000B2028093B3029093B402A093B502B09389
:1005F000B6028091B7029091B802A091B902B09171
:10060000BA020196A11DB11D8093B7029093B80262
:10061000A093B902B093BA02BF91AF919F918F910D
:100620003F912F910F900FBE0F901F9018957894C7
:1006300084B5826084BD84B5816084BD85B58260E7
:1006400085BD85B5816085BDEEE6F0E08081816085
:100650008083E1E8F0E01082808182608083808185
:1006600081608083E0E8F0E0808181608083E1EB5D
:10067000F0E0808184608083E0EBF0E08081816045
:100680008083E1E9F0E08081826080838081816005
:100690008083E0E9F0E0808181608083E1EAF0E03E
:1006A000808182608083808181608083E0EAF0E0E5
:1006B000808181608083E1E2F1E0808182608083DB
:1006C000808181608083E0E2F1E0808181608083CD
:1006D000EAE7F0E0808184608083808182608083AB
:1006E0008081816080838081806880831092C100D6
:1006F000089590E0FC013197E131F10508F04AC01E
:100700008827EE58FF4F8F4F0C947D098091800011
:100710008F7703C0809180008F7D80938000089543
:1007200084B58F7702C084B58F7D84BD0895809194
:10073000B0008F7703C08091B0008F7D8093B000B0
:100740000895809190008F7707C0809190008F7DF1
:1007500003C080919000877F8093900008958091DE
:10076000A0008F7707C08091A0008F7D03C080918B
:10077000A000877F8093A0000895809120018F774B
:1007800007C0809120018F7D03C080912001877F69
:10079000809320010895CF93DF9390E0FC01E8550A
:1007A000FE4F2491FC01E251FE4F8491882361F1B8
:1007B00090E0880F991FFC01E859FD4FC591D49135
:1007C000FC01E25BFD4FA591B491611109C09FB797
:1007D000F8948881209582238883EC912E230BC086
:1007E000623061F49FB7F8943881822F809583231B
:1007F0008883EC912E2B2C939FBF06C08FB7F89463
:10080000E8812E2B28838FBFDF91CF9108951F930E
:10081000CF93DF93282F30E0F901EE59FE4F8491FA
:10082000F901E855FE4FD491F901E251FE4FC49110
:10083000CC23C9F0162F81110E947903EC2FF0E030
:10084000EE0FFF1FE25BFD4FA591B4918FB7F894B7
:10085000111105C09C91ED2FE095E92302C0EC91A8
:10086000ED2BEC938FBFDF91CF911F910895CF9324
:10087000DF93282F30E0F901EE59FE4F8491F90102
:10088000E855FE4FD491F901E251FE4FC491CC23BB
:1008900091F081110E947903EC2FF0E0EE0FFF1F21
:1008A000EC5CFD4FA591B491EC91ED2381E090E0DB
:1008B00021F480E002C080E090E0DF91CF910895C4
:1008C000CF92DF92EF92FF920F931F93CF93DF931C
:1008D0006C01EB017B01E40EF51E00E010E0CE158B
:1008E000DF0561F06991D601ED91FC910190F081F5
:1008F000E02DC6011995080F191FF1CFC801DF912E
:10090000CF911F910F91FF90EF90DF90CF900895BE
:100910006115710579F0FB0101900020E9F731972D
:10092000AF01461B570BDC01ED91FC910280F38176
:10093000E02D199480E090E008950C948804DC0187
:10094000ED91FC910190F081E02D19940F931F938C
:10095000CF93DF93EC016DE00E949F048C016AE06D
:10096000CE010E949F04800F911FDF91CF911F91B4
:100970000F9108950F931F93CF93DF93EC010E9483
:1009800088048C01CE010E94A604800F911FDF9184
:10099000CF911F910F9108958F929F92AF92BF9226
:1009A000CF92DF92EF92FF920F931F93CF93DF933B
:1009B000CDB7DEB7A1970FB6F894DEBF0FBECDBF9F
:1009C0006C01142FE52FCB01022F19A2223008F45D
:1009D0000AE07E0121E2E20EF11C802E912CA12C76
:1009E000B12C612F7E2FA50194010E945B09029F0B
:1009F0001019112481E0E81AF1081A3014F4105D7E
:100A000001C0195CF7011083122FE32FCA01232BB9
:100A1000242B252B31F7B701C6010E948804A1962B
:100A20000FB6F894DEBF0FBECDBFDF91CF911F91FF
:100A30000F91FF90EF90DF90CF90BF90AF909F907D
:100A40008F900895CF92DF92EF92FF920F931F93B2
:100A5000CF93DF93EC016A017B012115310579F415
:100A6000E881F9810190F081E02D642FDF91CF9131
:100A70001F910F91FF90EF90DF90CF9019942A3043
:100A80003105E9F477FF1AC06DE20E949F048C01E2
:100A900044275527BA014C195D096E097F092AE0E0
:100AA000CE010E94CC04800F911FDF91CF911F9146
:100AB0000F91FF90EF90DF90CF9008952AE0B7015B
:100AC000A601CE01DF91CF911F910F91FF90EF9082
:100AD000DF90CF900C94CC040F931F93CF93DF93B0
:100AE000EC019A01AB01770F660B770B0E94220590
:100AF0008C01CE010E94A604800F911FDF91CF913F
:100B00001F910F910895FC0124853585F901E05C62
:100B1000FF4F80819181329620813181821B930B1E
:100B20008F7399270895DC011C96ED91FC911D9718
:100B3000DF01A05CBF4F2D913C91119712968D91D2
:100B40009C9111972817390739F08D919C91E80FE6
:100B5000F91F808190E008958FEF9FEF0895FC01C9
:100B6000A485B585FD01E05CFF4F2081318132967F
:100B7000808191812817390779F080819181A80FB0
:100B8000B91F8C91208131812F5F3F4F2F73332705
:100B90003183208390E008958FEF9FEF0895FC014B
:100BA00081A1882329F0A489B5898C9186FFFBCF88
:100BB00011A208950F931F93CF93DF93FC01A68595
:100BC000B7858D01005C1F4FE801888199810196EE
:100BD0008F739927AD014E5B5F4FEA012881398100
:100BE00082179307D1F3E80128813981A20FB31F3F
:100BF0006C93A685B785A05CBF4F11969C938E938E
:100C0000A689B7892C9181E090E0078C02C0880FFB
:100C1000991F0A94E2F7822B8C9381E081A30488C8
:100C2000F589E02D80818064808381E090E0DF9110
:100C3000CF911F910F910895FB01E05CFF4F208140
:100C400031812F5F3F4F2F733327DB01AE5BBF4FE7
:100C50004D915C912417350741F040815181DB01B2
:100C6000A40FB51F8C933183208308951F920F9298
:100C70000FB60F9211240BB60F922F933F934F9301
:100C80005F936F937F938F939F93AF93BF93EF93F4
:100C9000FF938091C00082FD07C08091C6006FE184
:100CA00075E00E941C0602C08091C600FF91EF9182
:100CB000BF91AF919F918F917F916F915F914F9174
:100CC0003F912F910F900BBE0F900FBE0F901F9072
:100CD00018951F920F920FB60F9211240BB60F9218
:100CE0002F933F934F935F936F937F938F939F9334
:100CF000AF93BF93EF93FF938091C80082FD07C02D
:100D00008091CE0067E974E00E941C0602C08091C9
:100D1000CE00FF91EF91BF91AF919F918F917F9105
:100D20006F915F914F913F912F910F900BBE0F905C
:100D30000FBE0F901F9018951F920F920FB60F9233
:100D400011240BB60F922F933F934F935F936F93A2
:100D50007F938F939F93AF93BF93EF93FF93809174
:100D6000D00082FD07C08091D6006FE074E00E9441
:100D70001C0602C08091D600FF91EF91BF91AF9108
:100D80009F918F917F916F915F914F913F912F91A3
:100D90000F900BBE0F900FBE0F901F9018951F92D3
:100DA0000F920FB60F9211240BB60F922F933F9311
:100DB0004F935F936F937F938F939F93AF93BF9363
:100DC000EF93FF938091300182FD07C0809136013F
:100DD00067E873E00E941C0602C080913601FF9113
:100DE000EF91BF91AF919F918F917F916F915F91A3
:100DF0004F913F912F910F900BBE0F900FBE0F9010
:100E00001F9018951F920F920FB60F9211240BB6D8
:100E10000F922F933F938F939F93EF93FF93209184
:100E20001B0530911C0580911D0590911E0528170A
:100E3000390731F48091C1008F7D8093C10014C0C7
:100E4000E0911D05F0911E05E552FB4F2081809138
:100E50001D0590911E0501968F73992790931E058D
:100E600080931D052093C600FF91EF919F918F9174
:100E70003F912F910F900BBE0F900FBE0F901F90C0
:100E800018951F920F920FB60F9211240BB60F9266
:100E90002F933F938F939F93EF93FF93209193040E
:100EA0003091940480919504909196042817390705
:100EB00031F48091C9008F7D8093C90014C0E09106
:100EC0009504F0919604ED5AFB4F20818091950492
:100ED0009091960401968F7399279093960480932E
:100EE00095042093CE00FF91EF919F918F913F91B8
:100EF0002F910F900BBE0F900FBE0F901F90189563
:100F00001F920F920FB60F9211240BB60F922F93D0
:100F10003F938F939F93EF93FF9320910B04309116
:100F20000C0480910D0490910E042817390731F4B8
:100F30008091D1008F7D8093D10014C0E0910D0489
:100F4000F0910E04E553FC4F208180910D049091A7
:100F50000E0401968F73992790930E0480930D04CD
:100F60002093D600FF91EF919F918F913F912F9108
:100F70000F900BBE0F900FBE0F901F9018951F92F1
:100F80000F920FB60F9211240BB60F922F933F932F
:100F90008F939F93EF93FF9320918303309184036A
:100FA00080918503909186032817390731F4809149
:100FB00031018F7D8093310114C0E0918503F09160
:100FC0008603ED5BFC4F2081809185039091860321
:100FD00001968F73992790938603809385032093BE
:100FE0003601FF91EF919F918F913F912F910F903B
:100FF0000BBE0F900FBE0F901F901895CF92DF92EF
:10100000EF92FF920F931F93CF93DF93EC016A014E
:101010007B014115514E6105710509F1EC89FD898E
:1010200081E090E008A002C0880F991F0A94E2F7BF
:10103000808360E079E08DE390E0A70196010E9453
:101040005B0989019A01015011092109310936957D
:10105000279517950795980101151041A8F0EC897F
:10106000FD89108260E874E88EE190E0A7019601A6
:101070000E945B09DA01C9010197A109B109B6957E
:10108000A795979587959C01E889F9893083EA8926
:10109000FB89208319A2EE89FF89408181E090E0DD
:1010A0009C010C8C02C0220F331F0A94E2F7242B00
:1010B0002083EE89FF8940819C010D8C02C0220FA4
:1010C000331F0A94E2F7242B2083EE89FF894081A5
:1010D0009C010E8C02C0220F331F0A94E2F7242BCE
:1010E0002083EE89FF8920810F8C02C0880F991F11
:1010F0000A94E2F7809582238083DF91CF911F913C
:101100000F91FF90EF90DF90CF900895CF92DF92F4
:10111000EF92FF92E1E2F3E01382128288EEC82E92
:1011200083E0D82EE12CF12CC482D582E682F782AE
:1011300063EA72E0718360838FE195E0958784872D
:101140008BED94E09787868785EC90E0918B808B80
:1011500084EC90E0938B828B80EC90E0958B848B79
:1011600081EC90E0978B868B82EC90E0918F808F62
:1011700086EC90E0938F828F44E0448F33E0358F8C
:1011800027E0268F95E0978F81E080A3EFEFF2E0D4
:1011900013821282C482D582E682F78271836083D1
:1011A000A7E9B4E0B587A487A3E5B4E0B787A6872D
:1011B000ADECB0E0B18BA08BACECB0E0B38BA28B0C
:1011C000A8ECB0E0B58BA48BA9ECB0E0B78BA68BF4
:1011D000AAECB0E0B18FA08FAEECB0E0B38FA28FDD
:1011E000448F358F268F978F80A3EDEDF2E0138229
:1011F0001282C482D582E682F78271836083AFE077
:10120000B4E0B587A487ABECB3E0B787A687A5EDBC
:10121000B0E0B18BA08BA4EDB0E0B38BA28BA0EDBE
:10122000B0E0B58BA48BA1EDB0E0B78BA68BA2ED9F
:10123000B0E0B18FA08FA6EDB0E0B38FA28F448F46
:10124000358F268F978F80A3EBEBF2E0138212820B
:10125000C482D582E682F7827183608367E873E097
:101260007587648763E473E07787668765E371E079
:10127000718B608B64E371E0738B628B60E371E070
:10128000758B648B61E371E0778B668B62E371E051
:10129000718F608F66E371E0738F628F448F358F3B
:1012A000268F978F80A3FF90EF90DF90CF900895C7
:1012B000F8940C948509A1E21A2EAA1BBB1BFD0110
:1012C0000DC0AA1FBB1FEE1FFF1FA217B307E40725
:1012D000F50720F0A21BB30BE40BF50B661F771F7D
:1012E000881F991F1A9469F760957095809590955D
:1012F0009B01AC01BD01CF010895EE0FFF1F881FB8
:0E1300008BBF0790F691E02D1994F894FFCF63
:10130E0070696E6D6F6465207365747570007365BA
:10131E0074757032006D756C74696C6967687420D1
:10132E006C6967687473206F666600636F756E74A0
:10133E0020657175616C2077656967687400436F0D
:10134E00756E7420726573657400646F6E652073BC
:10135E006574757000696E6974696174656420499D
:10136E006E63722F4465637256616C2070696E7382
:10137E0000496E6372207072657373656400446514
:10138E00637220707265737365640001000200045D
:10139E00000800100009000A000B000C000D0000F0
:1013AE00000000DA0560048305AF059305CF050044
:00000001FF
