:100000000C9481000C94B2000C94B2000C94B200D9
:100010000C94B2000C94B2000C94B2000C94B20098
:100020000C94B2000C94B2000C94B2000C94B20088
:100030000C94B2000C94B2000C94B2000C94B20078
:100040000C94B2000C94B2000C94B2000C94B20068
:100050000C94B2000C94B2000C94B2000C940A01FF
:100060000C94B2000C947A030C9446040C94B200E5
:100070000C94B2000C94B2000C94B2000C94B20038
:100080000C94B2000C94B2000C94B2000C94B20028
:100090000C94AD030C9485040C94B2000C94B20043
:1000A0000C94B2000C94B2000C94B2000C94B20008
:1000B0000C94B2000C94B2000C94B2000C94B200F8
:1000C0000C94B2000C94B2000C94B2000C94E003B7
:1000D0000C94C4040C94B2000C9413040C94030507
:1000E0000C94B2000C94CA050C941E030C94C70225
:1000F0000C9413030C94B6010C94D7020C94F302E5
:10010000CA0511241FBECFEFD1E2DEBFCDBF00E094
:100110000CBF12E0A0E0B2E0E6E9FDE000E00BBFBA
:1001200002C007900D92AC3AB107D9F725E0ACEACE
:10013000B2E001C01D92AD35B207E1F710E0C1E8B1
:10014000D0E000E006C021970109802FFE010E9447
:10015000C106C038D10780E00807A9F70E94D9007E
:100160000C949C060C9400000E94540140E855E257
:1001700060E070E08BE193E00C944205CF93DF9355
:10018000BC018BE193E00E94F301EC0168E272E0B4
:100190008BE193E00E94F3014AE050E0BE018BE165
:1001A00093E00E94B0028BE193E0DF91CF910C9439
:1001B000FC010E94B4008AE292E00E94BE0082E349
:1001C00092E00E94BE0087E392E00E94BE0088E2B7
:1001D00092E00E94BE008BE193E00E94FC0184E467
:1001E00092E00E94BE0084E592E00E94BE0089E693
:1001F00092E00E94BE0088E892E00E94BE0080E08B
:1002000092E00E94BE008BE193E00E94130380E025
:1002100090E008951F920F920FB60F9211242F9322
:100220003F938F939F93AF93BF938091AD02909133
:10023000AE02A091AF02B091B0023091AC0223E0C7
:10024000230F2D3720F40196A11DB11D05C026E80E
:10025000230F0296A11DB11D2093AC028093AD0225
:100260009093AE02A093AF02B093B0028091B1021E
:100270009091B202A091B302B091B4020196A11D77
:10028000B11D8093B1029093B202A093B302B093D8
:10029000B402BF91AF919F918F913F912F910F9099
:1002A0000FBE0F901F901895789484B5826084BD1E
:1002B00084B5816084BD85B5826085BD85B581606A
:1002C00085BDEEE6F0E0808181608083E1E8F0E0CA
:1002D0001082808182608083808181608083E0E8F9
:1002E000F0E0808181608083E1EBF0E080818460D8
:1002F0008083E0EBF0E0808181608083E1E9F0E0E1
:10030000808182608083808181608083E0E9F0E089
:10031000808181608083E1EAF0E080818260808377
:10032000808181608083E0EAF0E080818160808369
:10033000E1E2F1E08081826080838081816080835E
:10034000E0E2F1E0808181608083EAE7F0E0808193
:1003500084608083808182608083808181608083EB
:100360008081806880831092C1000895CF92DF92CF
:10037000EF92FF920F931F93CF93DF936C01EB01EA
:100380007B01E40EF51E00E010E0CE15DF0561F004
:100390006991D601ED91FC910190F081E02DC601AB
:1003A0001995080F191FF1CFC801DF91CF911F9147
:1003B0000F91FF90EF90DF90CF9008956115710538
:1003C00079F0FB0101900020E9F73197AF01461B5E
:1003D000570BDC01ED91FC910280F381E02D199423
:1003E00080E090E008950C94DE01DC01ED91FC9139
:1003F0000190F081E02D19940F931F93CF93DF9319
:10040000EC016DE00E94F5018C016AE0CE010E94D2
:10041000F501800F911FDF91CF911F910F910895EA
:100420008F929F92AF92BF92CF92DF92EF92FF9204
:100430000F931F93CF93DF93CDB7DEB7A1970FB67E
:10044000F894DEBF0FBECDBF6C01142FE52FCB019A
:10045000022F19A2223008F40AE07E0121E2E20E06
:10046000F11C802E912CA12CB12C612F7E2FA50187
:1004700094010E949F06029F1019112481E0E81A3E
:10048000F1081A3014F4105D01C0195CF7011083F3
:10049000122FE32FCA01232B242B252B31F7B70171
:1004A000C6010E94DE01A1960FB6F894DEBF0FBE12
:1004B000CDBFDF91CF911F910F91FF90EF90DF9013
:1004C000CF90BF90AF909F908F900895CF92DF9282
:1004D000EF92FF920F931F93CF93DF93EC016A018A
:1004E0007B012115310579F4E881F9810190F081D2
:1004F000E02D642FDF91CF911F910F91FF90EF902E
:10050000DF90CF9019942A303105E9F477FF1AC0B3
:100510006DE20E94F5018C0144275527BA014C1960
:100520005D096E097F092AE0CE010E941002800F4A
:10053000911FDF91CF911F910F91FF90EF90DF906E
:10054000CF9008952AE0B701A601CE01DF91CF91A7
:100550001F910F91FF90EF90DF90CF900C941002BD
:100560000F931F93CF93DF93EC019A01AB01770FA9
:10057000660B770B0E9466028C01CE010E94FC0183
:10058000800F911FDF91CF911F910F910895FC0172
:1005900024853585F901E05CFF4F80819181329699
:1005A00020813181821B930B8F7399270895DC0181
:1005B0001C96ED91FC911D97DF01A05CBF4F2D9122
:1005C0003C91119712968D919C911197281739079C
:1005D00039F08D919C91E80FF91F808190E008958A
:1005E0008FEF9FEF0895FC01A485B585FD01E05CC8
:1005F000FF4F208131813296808191812817390700
:1006000079F080819181A80FB91F8C91208131816F
:100610002F5F3F4F2F7333273183208390E008955E
:100620008FEF9FEF0895FC0181A1882329F0A48911
:10063000B5898C9186FFFBCF11A208950F931F936C
:10064000CF93DF93FC01A685B7858D01005C1F4F1A
:10065000E8018881998101968F739927AD014E5BDE
:100660005F4FEA012881398182179307D1F3E801AE
:1006700028813981A20FB31F6C93A685B785A05C32
:10068000BF4F11969C938E93A689B7892C9181E0D8
:1006900090E0078C02C0880F991F0A94E2F7822B22
:1006A0008C9381E081A30488F589E02D80818064AA
:1006B000808381E090E0DF91CF911F910F910895A9
:1006C000FB01E05CFF4F208131812F5F3F4F2F7393
:1006D0003327DB01AE5BBF4F4D915C91241735078B
:1006E00041F040815181DB01A40FB51F8C93318310
:1006F000208308951F920F920FB60F9211240BB60C
:100700000F922F933F934F935F936F937F938F93AA
:100710009F93AF93BF93EF93FF938091C00082FDAF
:1007200007C08091C60069E175E00E94600302C0C5
:100730008091C600FF91EF91BF91AF919F918F91F2
:100740007F916F915F914F913F912F910F900BBED1
:100750000F900FBE0F901F9018951F920F920FB61B
:100760000F9211240BB60F922F933F934F935F93E9
:100770006F937F938F939F93AF93BF93EF93FF9369
:100780008091C80082FD07C08091CE0061E974E0CD
:100790000E94600302C08091CE00FF91EF91BF9153
:1007A000AF919F918F917F916F915F914F913F9109
:1007B0002F910F900BBE0F900FBE0F901F901895AA
:1007C0001F920F920FB60F9211240BB60F922F9318
:1007D0003F934F935F936F937F938F939F93AF93C9
:1007E000BF93EF93FF938091D00082FD07C080916B
:1007F000D60069E074E00E94600302C08091D600D8
:10080000FF91EF91BF91AF919F918F917F916F91E8
:100810005F914F913F912F910F900BBE0F900FBEA4
:100820000F901F9018951F920F920FB60F921124E0
:100830000BB60F922F933F934F935F936F937F93DA
:100840008F939F93AF93BF93EF93FF93809130016A
:1008500082FD07C08091360161E873E00E94600369
:1008600002C080913601FF91EF91BF91AF919F91AE
:100870008F917F916F915F914F913F912F910F9049
:100880000BBE0F900FBE0F901F9018951F920F92E6
:100890000FB60F9211240BB60F922F933F938F93A5
:1008A0009F93EF93FF93209115053091160580914A
:1008B0001705909118052817390731F48091C10068
:1008C0008F7D8093C10014C0E0911705F091180549
:1008D000EB52FB4F208180911705909118050196EE
:1008E0008F73992790931805809317052093C6005E
:1008F000FF91EF919F918F913F912F910F900BBEA0
:100900000F900FBE0F901F9018951F920F920FB669
:100910000F9211240BB60F922F933F938F939F93B7
:10092000EF93FF9320918D0430918E0480918F047A
:10093000909190042817390731F48091C9008F7D78
:100940008093C90014C0E0918F04F0919004E35BA0
:10095000FB4F208180918F049091900401968F73BA
:1009600099279093900480938F042093CE00FF9159
:10097000EF919F918F913F912F910F900BBE0F9010
:100980000FBE0F901F9018951F920F920FB60F92E7
:1009900011240BB60F922F933F938F939F93EF9356
:1009A000FF932091050430910604809107049091F3
:1009B00008042817390731F48091D1008F7D809386
:1009C000D10014C0E0910704F0910804EB53FC4FF0
:1009D0002081809107049091080401968F739927D4
:1009E00090930804809307042093D600FF91EF9121
:1009F0009F918F913F912F910F900BBE0F900FBE43
:100A00000F901F9018951F920F920FB60F921124FE
:100A10000BB60F922F933F938F939F93EF93FF9378
:100A200020917D0330917E0380917F03909180031C
:100A30002817390731F4809131018F7D809331017E
:100A400014C0E0917F03F0918003E35CFC4F2081B0
:100A500080917F039091800301968F7399279093E3
:100A6000800380937F0320933601FF91EF919F9144
:100A70008F913F912F910F900BBE0F900FBE0F9053
:100A80001F901895CF92DF92EF92FF920F931F93D2
:100A9000CF93DF93EC016A017B014115514E610553
:100AA000710509F1EC89FD8981E090E008A002C0A0
:100AB000880F991F0A94E2F7808360E079E08DE364
:100AC00090E0A70196010E949F0689019A010150BA
:100AD0001109210931093695279517950795980130
:100AE00001151041A8F0EC89FD89108260E874E8D6
:100AF0008EE190E0A70196010E949F06DA01C901EC
:100B00000197A109B109B695A795979587959C017D
:100B1000E889F9893083EA89FB89208319A2EE8963
:100B2000FF89408181E090E09C010C8C02C0220F83
:100B3000331F0A94E2F7242B2083EE89FF8940813A
:100B40009C010D8C02C0220F331F0A94E2F7242B64
:100B50002083EE89FF8940819C010E8C02C0220F08
:100B6000331F0A94E2F7242B2083EE89FF8920812A
:100B70000F8C02C0880F991F0A94E2F78095822398
:100B80008083DF91CF911F910F91FF90EF90DF90C5
:100B9000CF900895CF92DF92EF92FF92EBE1F3E0D6
:100BA0001382128288EEC82E83E0D82EE12CF12C1D
:100BB000C482D582E682F78260EA72E07183608344
:100BC00089E195E09587848785ED94E0978786870E
:100BD00085EC90E0918B808B84EC90E0938B828B02
:100BE00080EC90E0958B848B81EC90E0978B868BEA
:100BF00082EC90E0918F808F86EC90E0938F828FD3
:100C000044E0448F33E0358F27E0268F95E0978FBF
:100C100081E080A3E9EFF2E013821282C482D582E0
:100C2000E682F78271836083A1E9B4E0B587A48787
:100C3000ADE4B4E0B787A687ADECB0E0B18BA08B94
:100C4000ACECB0E0B38BA28BA8ECB0E0B58BA48B7E
:100C5000A9ECB0E0B78BA68BAAECB0E0B18FA08F67
:100C6000AEECB0E0B38FA28F448F358F268F978F75
:100C700080A3E7EDF2E013821282C482D582E6827D
:100C8000F78271836083A9E0B4E0B587A487A5ECFF
:100C9000B3E0B787A687A5EDB0E0B18BA08BA4ED3C
:100CA000B0E0B38BA28BA0EDB0E0B58BA48BA1ED2F
:100CB000B0E0B78BA68BA2EDB0E0B18FA08FA6ED10
:100CC000B0E0B38FA28F448F358F268F978F80A38C
:100CD000E5EBF2E013821282C482D582E682F782CB
:100CE0007183608361E873E0758764876DE373E007
:100CF0007787668765E371E0718B608B64E371E0F1
:100D0000738B628B60E371E0758B648B61E371E0E0
:100D1000778B668B62E371E0718F608F66E371E0C1
:100D2000738F628F448F358F268F978F80A3FF90AC
:100D3000EF90DF90CF900895F8940C94C906A1E24B
:100D40001A2EAA1BBB1BFD010DC0AA1FBB1FEE1F45
:100D5000FF1FA217B307E407F50720F0A21BB30B90
:100D6000E40BF50B661F771F881F991F1A9469F70C
:100D700060957095809590959B01AC01BD01CF0168
:100D80000895EE0FFF1F881F8BBF0790F691E02D8F
:060D90001994F894FFCF56
:100D96007665727920747269636B790020646F20BE
:100DA600796F75206B6E6F77207768617420686144
:100DB6007070656E65643F00200061726475696ECF
:100DC6006F00666F75720073706163657320636F81
:100DD600756E7400747269636B790A6578616D70FB
:100DE6006C650A007468697320697320616C736F9F
:100DF60020747269636B790D00746869730D0A69F2
:100E0600730D0A6A7573740D0A610D0A6269740DB1
:100E16000A747269636B79007477696C69676874C0
:100E26003A206E6577206D6F6F6E08000000000037
:0C0E36001E03B601C702F302D70213032B
:00000001FF
