:100000000C9435010C9466010C9466010C94660105
:100010000C9466010C9466010C9466010C946601C4
:100020000C9466010C9466010C9466010C946601B4
:100030000C9466010C9466010C9466010C946601A4
:100040000C9466010C9466010C9466010C94660194
:100050000C9466010C9466010C9466010C949C014E
:100060000C9466010C94E8030C94B4040C9466019F
:100070000C9466010C9466010C9466010C94660164
:100080000C9466010C9466010C9466010C94660154
:100090000C941B040C94F3040C9466010C946601FC
:1000A0000C9466010C9466010C9466010C94660134
:1000B0000C9466010C9466010C9466010C94660124
:1000C0000C9466010C9466010C9466010C944E0429
:1000D0000C9432050C9466010C9481040C94710507
:1000E0000C9466015F02620255025902990266028F
:1000F0006A027002740278027E028202860299020B
:100100008C02900294020C9406030C9470020C94DE
:1001100081030C9499020C9461030C9445030C9494
:1001200038060C9482020C946A020C948C020C9493
:100130005F020C948C030C9486020C9462020C9463
:100140007E020C9490020C9466020C9478020C943B
:1001500074020C9494020C9459020C9435030C9480
:1001600055020000090A02080B0C0D0706030401E2
:10017000000000000000000000000000000000007F
:10018000000000000000000000000000000011104E
:100190000F00000000000000000000000000000050
:1001A00000000000000000000102102020080810DC
:1001B00020401020408002010201080402010102D7
:1001C00004081020408080402010080402018004B0
:1001D000020180402010080402010804020101020B
:1001E000040810204080010204081020408005050A
:1001F0000505070508080808020202020A0A08089D
:1002000004040404010101010101010103030303CA
:1002100003030303040707070C0C0C0C0C0C0C0C59
:100220000202020206060606060606060B0B0B0B6A
:100230000B0B0B0B00002200250028002B002E00CA
:100240003100340002010000050108010B0100002B
:100250002100240027002A002D0030003300010176
:100260000000040107010A01380611241FBECFEF68
:10027000D1E2DEBFCDBF00E00CBF12E0A0E0B2E0F3
:10028000E2E7FEE000E00BBF02C007900D92A03154
:10029000B107D9F724E0A0E1B2E001C01D92A13C72
:1002A000B207E1F711E0C5E3D1E000E006C0219715
:1002B0000109802FFE010E942F07C433D10780E07F
:1002C0000807A9F70E9482010C940A070C94000009
:1002D0000E94E60160E088E00E949A0261E088E006
:1002E0000E94D60240E855E260E070E08FE792E0BD
:1002F0000E94B00540E855E260E070E089E192E0DC
:100300000C94B0050E9468018FE792E00E943503CB
:10031000892B21F08FE792E00E94610389E192E04E
:100320000E94350389E192E00E946103682F8FE704
:1003300092E00E942E03E8CF1F920F920FB60F9209
:1003400011242F933F938F939F93AF93BF938091EB
:10035000110290911202A0911302B09114023091F7
:10036000100223E0230F2D3720F40196A11DB11DAB
:1003700005C026E8230F0296A11DB11D209310028F
:100380008093110290931202A0931302B09314026F
:100390008091150290911602A0911702B091180257
:1003A0000196A11DB11D8093150290931602A09392
:1003B0001702B0931802BF91AF919F918F913F9117
:1003C0002F910F900FBE0F901F901895789484B5C1
:1003D000826084BD84B5816084BD85B5826085BD41
:1003E00085B5816085BDEEE6F0E080818160808327
:1003F000E1E8F0E01082808182608083808181600A
:100400008083E0E8F0E0808181608083E1EBF0E0D0
:10041000808184608083E0EBF0E080818160808374
:10042000E1E9F0E080818260808380818160808367
:10043000E0E9F0E0808181608083E1EAF0E08081A2
:1004400082608083808181608083E0EAF0E0808147
:1004500081608083E1E2F1E080818260808380813D
:1004600081608083E0E2F1E0808181608083EAE75F
:10047000F0E08081846080838081826080838081DD
:10048000816080838081806880831092C10008959C
:1004900090E0FC013197E131F10508F04AC088276E
:1004A000EE58FF4F8F4F0C942F07809180008F776D
:1004B00003C0809180008F7D80938000089584B573
:1004C0008F7702C084B58F7D84BD08958091B00080
:1004D0008F7703C08091B0008F7D8093B000089526
:1004E000809190008F7707C0809190008F7D03C02E
:1004F00080919000877F8093900008958091A00064
:100500008F7707C08091A0008F7D03C08091A000ED
:10051000877F8093A0000895809120018F7707C086
:10052000809120018F7D03C080912001877F80937F
:1005300020010895CF93DF9390E0FC01E855FE4F32
:100540002491FC01E251FE4F8491882361F190E0F7
:10055000880F991FFC01E25BFD4FC591D491FC010E
:10056000EC5CFD4FA591B491611109C09FB7F8945F
:100570008881209582238883EC912E230BC06230E2
:1005800061F49FB7F8943881822F80958323888304
:10059000EC912E2B2C939FBF06C08FB7F894E88167
:1005A0002E2B28838FBFDF91CF9108951F93CF9378
:1005B000DF93282F30E0F901EE59FE4F8491F901C5
:1005C000E855FE4FD491F901E251FE4FC491CC237E
:1005D000C9F0162F81110E944802EC2FF0E0EE0FB7
:1005E000FF1FEC5CFD4FA591B4918FB7F8941111EA
:1005F00005C09C91ED2FE095E92302C0EC91ED2B15
:10060000EC938FBFDF91CF911F910895CF92DF922E
:10061000EF92FF920F931F93CF93DF936C01EB0147
:100620007B01E40EF51E00E010E0CE15DF0561F061
:100630006991D601ED91FC910190F081E02DC60108
:100640001995080F191FF1CFC801DF91CF911F91A4
:100650000F91FF90EF90DF90CF900895DC01ED9126
:10066000FC910190F081E02D1994FC0124853585E1
:10067000F901E05CFF4F80819181329620813181C8
:10068000821B930B8F7399270895DC011C96ED91C3
:10069000FC911D97DF01A05CBF4F2D913C911197FC
:1006A00012968D919C9111972817390739F08D91E9
:1006B0009C91E80FF91F808190E008958FEF9FEFE4
:1006C0000895FC01A485B585FD01E05CFF4F208104
:1006D00031813296808191812817390779F08081A4
:1006E0009181A80FB91F8C91208131812F5F3F4FDD
:1006F0002F7333273183208390E008958FEF9FEF8E
:100700000895FC0181A1882329F0A489B5898C91E1
:1007100086FFFBCF11A208950F931F93CF93DF9312
:10072000FC01A685B7858D01005C1F4FE80188811B
:10073000998101968F739927AD014E5B5F4FEA0156
:100740002881398182179307D1F3E8012881398103
:10075000A20FB31F6C93A685B785A05CBF4F1196FF
:100760009C938E93A689B7892C9181E090E0078CA9
:1007700002C0880F991F0A94E2F7822B8C9381E0C4
:1007800081A30488F589E02D80818064808381E0E5
:1007900090E0DF91CF911F910F910895FB01E05CF4
:1007A000FF4F208131812F5F3F4F2F733327DB01B4
:1007B000AE5BBF4F4D915C912417350741F04081EE
:1007C0005181DB01A40FB51F8C93318320830895E1
:1007D0001F920F920FB60F9211240BB60F922F9308
:1007E0003F934F935F936F937F938F939F93AF93B9
:1007F000BF93EF93FF938091C00082FD07C080916B
:10080000C6006DE774E00E94CE0302C08091C6006E
:10081000FF91EF91BF91AF919F918F917F916F91D8
:100820005F914F913F912F910F900BBE0F900FBE94
:100830000F901F9018951F920F920FB60F921124D0
:100840000BB60F922F933F934F935F936F937F93CA
:100850008F939F93AF93BF93EF93FF938091C800C3
:1008600082FD07C08091CE0065EF73E00E94CE0349
:1008700002C08091CE00FF91EF91BF91AF919F9107
:100880008F917F916F915F914F913F912F910F9039
:100890000BBE0F900FBE0F901F9018951F920F92D6
:1008A0000FB60F9211240BB60F922F933F934F93D5
:1008B0005F936F937F938F939F93AF93BF93EF93C8
:1008C000FF938091D00082FD07C08091D6006DE635
:1008D00073E00E94CE0302C08091D600FF91EF9199
:1008E000BF91AF919F918F917F916F915F914F9148
:1008F0003F912F910F900BBE0F900FBE0F901F9046
:1009000018951F920F920FB60F9211240BB60F92EB
:100910002F933F934F935F936F937F938F939F9307
:10092000AF93BF93EF93FF938091300182FD07C097
:100930008091360165EE72E00E94CE0302C0809184
:100940003601FF91EF91BF91AF919F918F917F9170
:100950006F915F914F913F912F910F900BBE0F9030
:100960000FBE0F901F9018951F920F920FB60F9207
:1009700011240BB60F922F933F938F939F93EF9376
:10098000FF932091790430917A0480917B049091B7
:100990007C042817390731F48091C1008F7D809342
:1009A000C10014C0E0917B04F0917C04E75CFB4F34
:1009B000208180917B0490917C0401968F7399270C
:1009C00090937C0480937B042093C600FF91EF9169
:1009D0009F918F913F912F910F900BBE0F900FBE63
:1009E0000F901F9018951F920F920FB60F9211241F
:1009F0000BB60F922F933F938F939F93EF93FF9399
:100A00002091F1033091F2038091F3039091F4036C
:100A10002817390731F48091C9008F7D8093C90070
:100A200014C0E091F303F091F403EF54FC4F2081E4
:100A30008091F3039091F40301968F73992790931B
:100A4000F4038093F3032093CE00FF91EF919F91E5
:100A50008F913F912F910F900BBE0F900FBE0F9073
:100A60001F9018951F920F920FB60F9211240BB67C
:100A70000F922F933F938F939F93EF93FF93209128
:100A8000690330916A0380916B0390916C0328177E
:100A9000390731F48091D1008F7D8093D10014C04B
:100AA000E0916B03F0916C03E75DFC4F2081809136
:100AB0006B0390916C0301968F73992790936C034D
:100AC00080936B032093D600FF91EF919F918F91BC
:100AD0003F912F910F900BBE0F900FBE0F901F9064
:100AE00018951F920F920FB60F9211240BB60F920A
:100AF0002F933F938F939F93EF93FF932091E10266
:100B00003091E2028091E3029091E40228173907C4
:100B100031F4809131018F7D8093310114C0E091D7
:100B2000E302F091E402EF55FD4F20818091E30252
:100B30009091E40201968F7399279093E402809339
:100B4000E30220933601FF91EF919F918F913F91A6
:100B50002F910F900BBE0F900FBE0F901F90189506
:100B6000CF92DF92EF92FF920F931F93CF93DF9379
:100B7000EC016A017B014115514E6105710509F1D6
:100B8000EC89FD8981E090E008A002C0880F991FE0
:100B90000A94E2F7808360E079E08DE390E0A701BA
:100BA00096010E940D0789019A010150110921093E
:100BB000310936952795179507959801011510412C
:100BC000A8F0EC89FD89108260E874E88EE190E07D
:100BD000A70196010E940D07DA01C9010197A10939
:100BE000B109B695A795979587959C01E889F989EC
:100BF0003083EA89FB89208319A2EE89FF8940812D
:100C000081E090E09C010C8C02C0220F331F0A94FB
:100C1000E2F7242B2083EE89FF8940819C010D8C13
:100C200002C0220F331F0A94E2F7242B2083EE899F
:100C3000FF8940819C010E8C02C0220F331F0A9451
:100C4000E2F7242B2083EE89FF8920810F8C02C0DC
:100C5000880F991F0A94E2F7809582238083DF91A1
:100C6000CF911F910F91FF90EF90DF90CF9008955B
:100C7000CF92DF92EF92FF92EFE7F2E013821282BF
:100C800088EEC82E83E0D82EE12CF12CC482D582C8
:100C9000E682F78264E072E0718360838DE794E01E
:100CA0009587848789E394E09787868785EC90E031
:100CB000918B808B84EC90E0938B828B80EC90E026
:100CC000958B848B81EC90E0978B868B82EC90E007
:100CD000918F808F86EC90E0938F828F44E0448FD9
:100CE00033E0358F27E0268F95E0978F81E080A352
:100CF000EDE5F2E013821282C482D582E682F782A9
:100D000071836083A5EFB3E0B587A487A1EBB3E05F
:100D1000B787A687ADECB0E0B18BA08BACECB0E0B0
:100D2000B38BA28BA8ECB0E0B58BA48BA9ECB0E0A0
:100D3000B78BA68BAAECB0E0B18FA08FAEECB0E081
:100D4000B38FA28F448F358F268F978F80A3EBE3CD
:100D5000F2E013821282C482D582E682F782718326
:100D60006083ADE6B3E0B587A487A9E2B3E0B787B7
:100D7000A687A5EDB0E0B18BA08BA4EDB0E0B38B5E
:100D8000A28BA0EDB0E0B58BA48BA1EDB0E0B78B4A
:100D9000A68BA2EDB0E0B18FA08FA6EDB0E0B38F2F
:100DA000A28F448F358F268F978F80A3E9E1F2E0E1
:100DB00013821282C482D582E682F78271836083B5
:100DC00065EE72E07587648761EA72E0778766870F
:100DD00065E371E0718B608B64E371E0738B628B10
:100DE00060E371E0758B648B61E371E0778B668BF8
:100DF00062E371E0718F608F66E371E0738F628FE1
:100E0000448F358F268F978F80A3FF90EF90DF90D0
:100E1000CF900895F8940C943707A1E21A2EAA1BDC
:100E2000BB1BFD010DC0AA1FBB1FEE1FFF1FA2179A
:100E3000B307E407F50720F0A21BB30BE40BF50B97
:100E4000661F771F881F991F1A9469F76095709520
:100E5000809590959B01AC01BD01CF010895EE0FE7
:100E6000FF1F881F8BBF0790F691E02D1994F8940F
:020E7000FFCFB2
:100E7200000000008C030603350361034503810370
:00000001FF
