:100000000C9468010C9499010C9499010C94990139
:100010000C9499010C9499010C9499010C949901F8
:100020000C9499010C9499010C9499010C949901E8
:100030000C9499010C9499010C9499010C949901D8
:100040000C9499010C9499010C9499010C949901C8
:100050000C9499010C9499010C9499010C946702E9
:100060000C9499010C94EB060C94DB070C94990109
:100070000C9499010C9499010C9499010C94990198
:100080000C9499010C9499010C9499010C94990188
:100090000C941F070C941A080C9499010C94990164
:1000A0000C9499010C9499010C9499010C94990168
:1000B0000C9499010C9499010C9499010C94990158
:1000C0000C9499010C9499010C9499010C94530788
:1000D0000C9459080C9499010C9487070C94980877
:1000E0000C949901AC03B103B603C0033904CA03ED
:1000F000D203DA03E403EE03F8030704110439041E
:100100001B0425042F0459045C044F045304930476
:10011000600464046A046E04720478047C0480043D
:10012000930486048A048E040C948A040C944F046D
:100130000C9460040C94CA030C9439040C940005CC
:100140000C945F090C94F8030C9483060C94C00380
:100150000C948E060C942F040C946E040C94EE03F5
:100160000C948E040C9411040C9463060C94930468
:100170000C9480040C94B1030C9464040C94BA079E
:100180000C945C040C9453040C9459040C947C045B
:100190000C94DA030C94D2030C94E4030C947804CA
:1001A0000C9437060C9425040C9407040C94B603A5
:1001B0000C941B040C94AC030C9486040C947204F1
:1001C0000C9447060C946A040000090A02080B0C00
:1001D0000D070603040100000000000000000000FD
:1001E000000000000000000000000000000000000F
:1001F0000000000011100F000000000000000000CF
:1002000000000000000000000000000000000102EB
:100210001020200808102040102040800201020118
:1002200008040201010204081020408080402010D0
:100230000804020180040201804020100804020129
:100240000804020101020408102040800102040891
:10025000102040800505050507050808080802026A
:1002600002020A0A08080404040401010101010150
:1002700001010303030303030303040707070C0C33
:100280000C0C0C0C0C0C02020202060606060606FA
:1002900006060B0B0B0B0B0B0B0B000022002500B3
:1002A00028002B002E00310034000201000005015F
:1002B00008010B0100002100240027002A002D0066
:1002C0003000330001010000040107010A015F0949
:1002D00011241FBECFEFD1E2DEBFCDBF00E00CBFC7
:1002E00012E0A0E0B2E0E0ECF4E100E00BBF02C0FD
:1002F00007900D92A034B107D9F724E0A0E4B2E052
:1003000001C01D92A33FB207E1F711E0C8E6D1E0BA
:1003100000E006C021970109802FFE010E94560AC5
:10032000C736D10780E00807A9F70E942A060C9477
:10033000310A0C940000CF92DF92EF92FF920F935C
:100340001F93CF93DF936C017B018A01E90167E082
:1003500072E081EB92E00E943D054AE050E0B60178
:1003600081EB92E00E940C066EE172E081EB92E07C
:100370000E943D054AE050E0B70181EB92E00E9407
:100380000C066EE172E081EB92E00E943D054AE0CE
:1003900050E0B80181EB92E00E940C0661E272E04D
:1003A00081EB92E00E943D054AE050E0BE0181EB06
:1003B00092E0DF91CF911F910F91FF90EF90DF902E
:1003C000CF900C941306CF92DF92EF92FF920F938F
:1003D0001F93CF93DF938C017B016A01E901BC017C
:1003E000809104020E948303B701809102020E945F
:1003F0008303B601809100020E948303BE01DD0FDA
:10040000880B990B0E94D602809140020E945E03E5
:10041000C0E0D4E0C81BD90B9E01A601B701C801FA
:100420000E949B01CE01DF91CF911F910F91FF9010
:10043000EF90DF90CF90089561E0809104020E94D8
:10044000940461E0809102020E94940461E0809132
:1004500000020E94940440E855E260E070E081EB05
:1004600092E00C94D70828EE33E040E050E060E0E2
:1004700070E08FEF90E00E94E30128EE33E040E06F
:1004800050E06FEF70E080E090E00E94E30128EE22
:1004900033E04FEF50E060E070E080E090E00E94D9
:1004A000E30128EE33E040E050E060E070E080E0FF
:1004B00090E00E94E3016FE172E081EB92E00E9424
:1004C0005A0560ED77E080E090E00C94D6021F9230
:1004D0000F920FB60F9211242F933F938F939F93F8
:1004E000AF93BF938091430290914402A091450243
:1004F000B09146023091420223E0230F2D3720F4C1
:100500000196A11DB11D05C026E8230F0296A11D6D
:10051000B11D209342028093430290934402A09322
:100520004502B09346028091470290914802A09103
:100530004902B0914A020196A11DB11D8093470264
:1005400090934802A0934902B0934A02BF91AF91A1
:100550009F918F913F912F910F900FBE0F901F9001
:1005600018953FB7F8948091470290914802A09166
:100570004902B0914A0226B5A89B05C02F3F19F049
:100580000196A11DB11D3FBFBA2FA92F982F882713
:10059000820F911DA11DB11DBC01CD0142E0660F6E
:1005A000771F881F991F4A95D1F70895CF92DF9240
:1005B000EF92FF92CF93DF936B017C010E94B10217
:1005C000EB01C114D104E104F10479F00E94B102FD
:1005D0006C1B7D0B683E7340A0F381E0C81AD10804
:1005E000E108F108C851DC4FECCFDF91CF91FF90CB
:1005F000EF90DF90CF900895789484B5826084BDA9
:1006000084B5816084BD85B5826085BD85B5816016
:1006100085BDEEE6F0E0808181608083E1E8F0E076
:100620001082808182608083808181608083E0E8A5
:10063000F0E0808181608083E1EBF0E08081846084
:100640008083E0EBF0E0808181608083E1E9F0E08D
:10065000808182608083808181608083E0E9F0E036
:10066000808181608083E1EAF0E080818260808324
:10067000808181608083E0EAF0E080818160808316
:10068000E1E2F1E08081826080838081816080830B
:10069000E0E2F1E0808181608083EAE7F0E0808140
:1006A0008460808380818260808380818160808398
:1006B0008081806880831092C1000895863308F09D
:1006C000865390917B00282F2870977F922B9093D0
:1006D0007B0087702091060290E4299F90011124ED
:1006E000822B80937C0080917A00806480937A00D2
:1006F00080917A0086FDFCCF80917800209179006E
:1007000090E0922B08951F93CF93DF93182FEB0166
:1007100061E00E949404209711F460E004C0CF3F90
:10072000D10539F461E0812FDF91CF911F910C94B5
:10073000D004E12FF0E0E853FE4FE4914E2F50E05B
:10074000FA013197E131F10508F093C08827EE589E
:10075000FF4F8F4F0C94560A84B5806884BDC7BD87
:100760008DC084B5806284BDC8BD88C08091800082
:10077000806880938000D0938900C09388007EC0F9
:1007800080918000806280938000D0938B00C09322
:100790008A0074C08091B00080688093B000C093DC
:1007A000B3006CC08091B00080628093B000C093B1
:1007B000B40064C080919000806880939000D093D2
:1007C0009900C09398005AC08091900080628093F5
:1007D0009000D0939B00C0939A0050C080919000ED
:1007E000886080939000D0939D00C0939C0046C089
:1007F0008091A00080688093A0008091A0008F7BF2
:100800008093A000D093A900C093A80037C0809126
:10081000A00080628093A000D093AB00C093AA0098
:100820002DC08091A00088608093A000D093AD007F
:10083000C093AC0023C08091200180688093200188
:10084000D0932901C093280119C0809120018062B2
:1008500080932001D0932B01C0932A010FC0809177
:100860002001886080932001D0932D01C0932C013A
:1008700005C0C038D1050CF055CF4FCFDF91CF91D7
:100880001F91089590E0FC013197E131F10508F0E6
:100890004AC08827ED57FF4F8F4F0C94560A80911E
:1008A00080008F7703C0809180008F7D80938000CF
:1008B000089584B58F7702C084B58F7D84BD089577
:1008C0008091B0008F7703C08091B0008F7D8093BE
:1008D000B0000895809190008F7707C080919000BC
:1008E0008F7D03C080919000877F80939000089552
:1008F0008091A0008F7707C08091A0008F7D03C0FA
:100900008091A000877F8093A000089580912001AE
:100910008F7707C0809120018F7D03C080912001D7
:10092000877F809320010895CF93DF9390E0FC01AF
:10093000E25FFD4F2491FC01EC5AFD4F8491882326
:1009400061F190E0880F991FFC01EC54FD4FC591B7
:10095000D491FC01E656FD4FA591B491611109C0F7
:100960009FB7F8948881209582238883EC912E2369
:100970000BC0623061F49FB7F8943881822F809564
:1009800083238883EC912E2B2C939FBF06C08FB7B7
:10099000F894E8812E2B28838FBFDF91CF910895A3
:1009A0001F93CF93DF93282F30E0F901E853FE4FD8
:1009B0008491F901E25FFD4FD491F901EC5AFD4FAA
:1009C000C491CC23C9F0162F81110E944204EC2F50
:1009D000F0E0EE0FFF1FE656FD4FA591B4918FB7E3
:1009E000F894111105C09C91ED2FE095E92302C008
:1009F000EC91ED2BEC938FBFDF91CF911F91089578
:100A0000CF92DF92EF92FF920F931F93CF93DF93DA
:100A10006C01EB017B01E40EF51E00E010E0CE1549
:100A2000DF0561F06991D601ED91FC910190F081B3
:100A3000E02DC6011995080F191FF1CFC801DF91EC
:100A4000CF911F910F91FF90EF90DF90CF9008957D
:100A50006115710579F0FB0101900020E9F73197EC
:100A6000AF01461B570BDC01ED91FC910280F38135
:100A7000E02D199480E090E008950C942805DC01A5
:100A8000ED91FC910190F081E02D19940F931F934B
:100A9000CF93DF93EC016DE00E943F058C016AE08B
:100AA000CE010E943F05800F911FDF91CF911F91D2
:100AB0000F9108950F931F93CF93DF93EC010E9442
:100AC00028058C01CE010E944605800F911FDF9101
:100AD000CF911F910F9108958F929F92AF92BF92E5
:100AE000CF92DF92EF92FF920F931F93CF93DF93FA
:100AF000CDB7DEB7A1970FB6F894DEBF0FBECDBF5E
:100B00006C01142FE52FCB01022F19A2223008F41B
:100B10000AE07E0121E2E20EF11C802E912CA12C34
:100B2000B12C612F7E2FA50194010E94340A029FEF
:100B30001019112481E0E81AF1081A3014F4105D3C
:100B400001C0195CF7011083122FE32FCA01232B78
:100B5000242B252B31F7B701C6010E942805A19649
:100B60000FB6F894DEBF0FBECDBFDF91CF911F91BE
:100B70000F91FF90EF90DF90CF90BF90AF909F903C
:100B80008F900895CF92DF92EF92FF920F931F9371
:100B9000CF93DF93EC016A017B012115310579F4D4
:100BA000E881F9810190F081E02D642FDF91CF91F0
:100BB0001F910F91FF90EF90DF90CF9019942A3002
:100BC0003105E9F477FF1AC06DE20E943F058C0100
:100BD00044275527BA014C195D096E097F092AE09F
:100BE000CE010E946C05800F911FDF91CF911F9164
:100BF0000F91FF90EF90DF90CF9008952AE0B7011A
:100C0000A601CE01DF91CF911F910F91FF90EF9040
:100C1000DF90CF900C946C059A01AB01770F660BB7
:100C2000770B0C94C2050F931F93CF93DF93EC01C6
:100C30009A01AB01770F660B770B0E94C2058C01FE
:100C4000CE010E944605800F911FDF91CF911F9129
:100C50000F9108950E94FC020E941C02CAEBD7E08B
:100C60000E9433022097E1F30E94BA07F9CFFC01FA
:100C700024853585F901E05CFF4F808191813296B2
:100C800020813181821B930B8F7399270895DC019A
:100C90001C96ED91FC911D97DF01A05CBF4F2D913B
:100CA0003C91119712968D919C91119728173907B5
:100CB00039F08D919C91E80FF91F808190E00895A3
:100CC0008FEF9FEF0895FC01A485B585FD01E05CE1
:100CD000FF4F208131813296808191812817390719
:100CE00079F080819181A80FB91F8C912081318189
:100CF0002F5F3F4F2F7333273183208390E0089578
:100D00008FEF9FEF0895FC0181A1882329F0A4892A
:100D1000B5898C9186FFFBCF11A208950F931F9385
:100D2000CF93DF93FC01A685B7858D01005C1F4F33
:100D3000E8018881998101968F739927AD014E5BF7
:100D40005F4FEA012881398182179307D1F3E801C7
:100D500028813981A20FB31F6C93A685B785A05C4B
:100D6000BF4F11969C938E93A689B7892C9181E0F1
:100D700090E0078C02C0880F991F0A94E2F7822B3B
:100D80008C9381E081A30488F589E02D80818064C3
:100D9000808381E090E0DF91CF911F910F910895C2
:100DA000FB01E05CFF4F208131812F5F3F4F2F73AC
:100DB0003327DB01AE5BBF4F4D915C9124173507A4
:100DC00041F040815181DB01A40FB51F8C93318329
:100DD0002083089508951F920F920FB60F92112449
:100DE0000BB60F922F933F934F935F936F937F9325
:100DF0008F939F93AF93BF93EF93FF938091C00026
:100E000082FD07C08091C6006FEA74E00E94D006A0
:100E100002C08091C600FF91EF91BF91AF919F9169
:100E20008F917F916F915F914F913F912F910F9093
:100E30000BBE0F900FBE0F901F90189508951F9234
:100E40000F920FB60F9211240BB60F922F933F9370
:100E50004F935F936F937F938F939F93AF93BF93C2
:100E6000EF93FF938091C80082FD07C08091CE0070
:100E700067E274E00E94D00602C08091CE00FF912C
:100E8000EF91BF91AF919F918F917F916F915F9102
:100E90004F913F912F910F900BBE0F900FBE0F906F
:100EA0001F90189508951F920F920FB60F9211245C
:100EB0000BB60F922F933F934F935F936F937F9354
:100EC0008F939F93AF93BF93EF93FF938091D00045
:100ED00082FD07C08091D6006FE973E00E94D006C2
:100EE00002C08091D600FF91EF91BF91AF919F9189
:100EF0008F917F916F915F914F913F912F910F90C3
:100F00000BBE0F900FBE0F901F90189508951F9263
:100F10000F920FB60F9211240BB60F922F933F939F
:100F20004F935F936F937F938F939F93AF93BF93F1
:100F3000EF93FF938091300182FD07C080913601CD
:100F400067E173E00E94D00602C080913601FF91F4
:100F5000EF91BF91AF919F918F917F916F915F9131
:100F60004F913F912F910F900BBE0F900FBE0F909E
:100F70001F90189581EB92E00E943706892B11F0A3
:100F80000E94EA068FE892E00E943706892B11F052
:100F90000E941E078DE692E00E943706892B11F011
:100FA0000E9452078BE492E00E943706892B11F0D1
:100FB0000C94860708951F920F920FB60F9211247A
:100FC0000BB60F922F933F938F939F93EF93FF93C3
:100FD0002091AB043091AC048091AD049091AE04AB
:100FE0002817390731F48091C1008F7D8093C100AB
:100FF00014C0E091AD04F091AE04E559FB4F20819F
:101000008091AD049091AE0401968F7399279093CF
:10101000AE048093AD042093C600FF91EF919F91A1
:101020008F913F912F910F900BBE0F900FBE0F909D
:101030001F9018951F920F920FB60F9211240BB6A6
:101040000F922F933F938F939F93EF93FF93209152
:1010500023043091240480912504909126042817BC
:10106000390731F48091C9008F7D8093C90014C085
:10107000E0912504F0912604ED51FC4F20818091F0
:1010800025049091260401968F7399279093260446
:10109000809325042093CE00FF91EF919F918F9133
:1010A0003F912F910F900BBE0F900FBE0F901F908E
:1010B00018951F920F920FB60F9211240BB60F9234
:1010C0002F933F938F939F93EF93FF9320919B03D5
:1010D00030919C0380919D0390919E0328173907BE
:1010E00031F48091D1008F7D8093D10014C0E091C4
:1010F0009D03F0919E03E55AFC4F208180919D0352
:1011000090919E0301968F73992790939E038093ED
:101110009D032093D600FF91EF919F918F913F9176
:101120002F910F900BBE0F900FBE0F901F90189530
:101130001F920F920FB60F9211240BB60F922F939E
:101140003F938F939F93EF93FF93209113033091DD
:10115000140380911503909116032817390731F471
:10116000809131018F7D8093310114C0E09115038E
:10117000F0911603ED52FD4F20818091150390915F
:10118000160301968F739927909316038093150386
:1011900020933601FF91EF919F918F913F912F9175
:1011A0000F900BBE0F900FBE0F901F901895CF920F
:1011B000DF92EF92FF920F931F93CF93DF93EC0197
:1011C0006A017B014115514E6105710509F1EC89F8
:1011D000FD8981E090E008A002C0880F991F0A9461
:1011E000E2F7808360E079E08DE390E0A70196016B
:1011F0000E94340A89019A0101501109210931091B
:101200003695279517950795980101151041A8F077
:10121000EC89FD89108260E874E88EE190E0A70116
:1012200096010E94340ADA01C9010197A109B109A6
:10123000B695A795979587959C01E889F98930839C
:10124000EA89FB89208319A2EE89FF89408181E028
:1012500090E09C010C8C02C0220F331F0A94E2F72D
:10126000242B2083EE89FF8940819C010D8C02C0D4
:10127000220F331F0A94E2F7242B2083EE89FF8983
:1012800040819C010E8C02C0220F331F0A94E2F7AA
:10129000242B2083EE89FF8920810F8C02C0880FC8
:1012A000991F0A94E2F7809582238083DF91CF9182
:1012B0001F910F91FF90EF90DF90CF900895CF9204
:1012C000DF92EF92FF92E1EBF2E01382128288EE5E
:1012D000C82E83E0D82EE12CF12CC482D582E68280
:1012E000F78263E372E0718360838FEA94E095870D
:1012F00084878BE694E09787868785EC90E0918BD6
:10130000808B84EC90E0938B828B80EC90E0958BCB
:10131000848B81EC90E0978B868B82EC90E0918FB0
:10132000808F86EC90E0938F828F44E0448F33E08F
:10133000358F27E0268F95E0978F81E080A3EFE837
:10134000F2E013821282C482D582E682F782718330
:101350006083A7E2B4E0B587A487A3EEB3E0B787C4
:10136000A687ADECB0E0B18BA08BACECB0E0B38B5A
:10137000A28BA8ECB0E0B58BA48BA9ECB0E0B78B46
:10138000A68BAAECB0E0B18FA08FAEECB0E0B38F2B
:10139000A28F448F358F268F978F80A3EDE6F2E0E2
:1013A00013821282C482D582E682F78271836083BF
:1013B000AFE9B3E0B587A487ABE5B3E0B787A6870D
:1013C000A5EDB0E0B18BA08BA4EDB0E0B38BA28B08
:1013D000A0EDB0E0B58BA48BA1EDB0E0B78BA68BF0
:1013E000A2EDB0E0B18FA08FA6EDB0E0B38FA28FD9
:1013F000448F358F268F978F80A3EBE4F2E0138222
:101400001282C482D582E682F7827183608367E1AB
:1014100073E07587648763ED72E07787668765E3BD
:1014200071E0718B608B64E371E0738B628B60E3BE
:1014300071E0758B648B61E371E0778B668B62E39F
:1014400071E0718F608F66E371E0738F628F448FFC
:10145000358F268F978F80A3FF90EF90DF90CF90EE
:101460000895F8940C945E0AA1E21A2EAA1BBB1BE5
:10147000FD010DC0AA1FBB1FEE1FFF1FA217B30760
:10148000E407F50720F0A21BB30BE40BF50B661F76
:10149000771F881F991F1A9469F76095709580953A
:1014A00090959B01AC01BD01CF010895EE0FFF1F88
:1014B000881F8BBF0790F691E02D1994F894FFCF09
:1014C00002000300040001524247204C45442069B9
:1014D0006E7075742076616C7565733A20002C20EF
:1014E000002E20496E74656E736974793A2000008D
:1014F0000000008E060005370663064706830600D7
:00000001FF
