:100000000C9435010C9466010C9466010C94660105
:100010000C9466010C9466010C9466010C946601C4
:100020000C9466010C9466010C9466010C946601B4
:100030000C9466010C9466010C9466010C946601A4
:100040000C9466010C9466010C9466010C94660194
:100050000C9466010C9466010C9466010C94F601F4
:100060000C9466010C94ED040C94B9050C94660193
:100070000C9466010C9466010C9466010C94660164
:100080000C9466010C9466010C9466010C94660154
:100090000C9420050C94F8050C9466010C946601F0
:1000A0000C9466010C9466010C9466010C94660134
:1000B0000C9466010C9466010C9466010C94660124
:1000C0000C9466010C9466010C9466010C94530523
:1000D0000C9437060C9466010C9486050C947606F5
:1000E0000C94660129032C031F03230363033003CD
:1000F00034033A033E03420348034C0350036303B3
:1001000056035A035E030C941F030C943E030C9495
:1001100030030C9429030C945E030C9442030C945A
:1001200048030C945A030C9486040C9466040C94B3
:100130004A040C9491040C943A030C943D070C94DB
:100140004C030C9450030C9434030C9463030C94F0
:1001500056030C94D0030C9423030C943A040C948F
:100160002C030000090A02080B0C0D07060304010A
:10017000000000000000000000000000000000007F
:10018000000000000000000000000000000011104E
:100190000F00000000000000000000000000000050
:1001A00000000000000000000102102020080810DC
:1001B00020401020408002010201080402010102D7
:1001C00004081020408080402010080402018004B0
:1001D000020180402010080402010804020101020B
:1001E000040810204080010204081020408005050A
:1001F0000505070508080808020202020A0A08089D
:1002000004040404010101010101010103030303CA
:1002100003030303040707070C0C0C0C0C0C0C0C59
:100220000202020206060606060606060B0B0B0B6A
:100230000B0B0B0B00002200250028002B002E00CA
:100240003100340002010000050108010B0100002B
:100250002100240027002A002D0030003300010176
:100260000000040107010A013D0711241FBECFEF62
:10027000D1E2DEBFCDBF00E00CBF12E0A0E0B2E0F3
:10028000ECE7F0E100E00BBF02C007900D92A8324E
:10029000B107D9F724E0A8E2B2E001C01D92AB3D5E
:1002A000B207E1F711E0C5E3D1E000E006C0219715
:1002B0000109802FFE010E943408C433D10780E079
:1002C0000807A9F70E94DF010C940F080C940000A6
:1002D0000E948B0240E855E260E070E089E992E01C
:1002E0000E94B50661E0809102020E946403809141
:1002F00000020E94ED029093290280932802089543
:10030000CF93DF9365E072E089E992E00E942804D0
:10031000C3E0D0E061E0809102020E94A0036091FE
:10032000280270912902072E000C880B990B0E945D
:10033000650260E0809102020E94A00360912802A1
:1003400070912902072E000C880B990B0E94650200
:10035000219701F7DF91CF910895CF93DF936EE05E
:1003600072E089E992E00E942804C3E0D0E061E0F5
:10037000809102020E94A0036091280270912902DC
:10038000CB01880F991F680F791F072E000C880B6F
:10039000990B0E94650260E0809102020E94A00316
:1003A0006091280270912902072E000C880B990B8E
:1003B0000E9465022197D9F6DF91CF9108950E949E
:1003C00068010E9480010E94AD010E9480010E948C
:1003D00080010E94AD010E9480010E9480010E9464
:1003E000AD010E94800180E090E008951F920F927D
:1003F0000FB60F9211242F933F938F939F93AF9338
:10040000BF9380912B0290912C02A0912D02B0916C
:100410002E0230912A0223E0230F2D3720F401967B
:10042000A11DB11D05C026E8230F0296A11DB11D17
:1004300020932A0280932B0290932C02A0932D02EA
:10044000B0932E0280912F0290913002A091310240
:10045000B09132020196A11DB11D80932F0290939D
:100460003002A0933102B0933202BF91AF919F91BD
:100470008F913F912F910F900FBE0F901F90189565
:100480003FB7F89480912F0290913002A0913102F1
:10049000B091320226B5A89B05C02F3F19F00196F6
:1004A000A11DB11D3FBFBA2FA92F982F8827820FFA
:1004B000911DA11DB11DBC01CD0142E0660F771F4A
:1004C000881F991F4A95D1F70895CF92DF92EF9236
:1004D000FF92CF93DF936B017C010E944002EB01FE
:1004E000C114D104E104F10479F00E9440026C1BB4
:1004F0007D0B683E7340A0F381E0C81AD108E10883
:10050000F108C851DC4FECCFDF91CF91FF90EF9015
:10051000DF90CF900895789484B5826084BD84B5CF
:10052000816084BD85B5826085BD85B5816085BDEE
:10053000EEE6F0E0808181608083E1E8F0E0108207
:10054000808182608083808181608083E0E8F0E048
:10055000808181608083E1EBF0E080818460808332
:10056000E0EBF0E0808181608083E1E9F0E0808170
:1005700082608083808181608083E0E9F0E0808117
:1005800081608083E1EAF0E0808182608083808105
:1005900081608083E0EAF0E0808181608083E1E235
:1005A000F1E0808182608083808181608083E0E2ED
:1005B000F1E0808181608083EAE7F0E080818460FF
:1005C000808380818260808380818160808380815C
:1005D000806880831092C1000895863308F08653A6
:1005E00090917B00282F2870977F922B90937B000F
:1005F00087702091040290E4299F90011124822B9E
:1006000080937C0080917A00806480937A0080914E
:100610007A0086FDFCCF809178002091790090E0EF
:10062000922B089590E0FC013197E131F10508F03B
:100630004AC08827EE58FF4F8F4F0C9434088091A2
:1006400080008F7703C0809180008F7D8093800031
:10065000089584B58F7702C084B58F7D84BD0895D9
:100660008091B0008F7703C08091B0008F7D809320
:10067000B0000895809190008F7707C0809190001E
:100680008F7D03C080919000877F809390000895B4
:100690008091A0008F7707C08091A0008F7D03C05C
:1006A0008091A000877F8093A00008958091200111
:1006B0008F7707C0809120018F7D03C0809120013A
:1006C000877F809320010895CF93DF9390E0FC0112
:1006D000E855FE4F2491FC01E251FE4F849188239E
:1006E00061F190E0880F991FFC01E25BFD4FC5911D
:1006F000D491FC01EC5CFD4FA591B491611109C04E
:100700009FB7F8948881209582238883EC912E23CB
:100710000BC0623061F49FB7F8943881822F8095C6
:1007200083238883EC912E2B2C939FBF06C08FB719
:10073000F894E8812E2B28838FBFDF91CF91089505
:100740001F93CF93DF93282F30E0F901EE59FE4F2E
:100750008491F901E855FE4FD491F901E251FE4F21
:10076000C491CC23C9F0162F81110E941203EC2FE3
:10077000F0E0EE0FFF1FEC5CFD4FA591B4918FB739
:10078000F894111105C09C91ED2FE095E92302C06A
:10079000EC91ED2BEC938FBFDF91CF911F910895DA
:1007A000CF92DF92EF92FF920F931F93CF93DF933D
:1007B0006C01EB017B01E40EF51E00E010E0CE15AC
:1007C000DF0561F06991D601ED91FC910190F08116
:1007D000E02DC6011995080F191FF1CFC801DF914F
:1007E000CF911F910F91FF90EF90DF90CF900895E0
:1007F0006115710579F0FB0101900020E9F731974F
:10080000AF01461B570BDC01ED91FC910280F38197
:10081000E02D199480E090E00895DC01ED91FC91C9
:100820000190F081E02D19940F931F93CF93DF93E4
:10083000EC016DE00E940D048C016AE0CE010E9483
:100840000D04800F911FDF91CF911F910F9108959B
:100850000F931F93CF93DF93EC010E94F8038C0159
:10086000CE010E941404800F911FDF91CF911F9140
:100870000F910895FC0124853585F901E05CFF4F57
:1008800080819181329620813181821B930B8F73FD
:1008900099270895DC011C96ED91FC911D97DF01CD
:1008A000A05CBF4F2D913C91119712968D919C9118
:1008B00011972817390739F08D919C91E80FF91F8E
:1008C000808190E008958FEF9FEF0895FC01A4854B
:1008D000B585FD01E05CFF4F20813181329680813A
:1008E00091812817390779F080819181A80FB91F6C
:1008F0008C91208131812F5F3F4F2F7333273183BC
:10090000208390E008958FEF9FEF0895FC0181A16F
:10091000882329F0A489B5898C9186FFFBCF11A289
:1009200008950F931F93CF93DF93FC01A685B7859E
:100930008D01005C1F4FE8018881998101968F73BA
:100940009927AD014E5B5F4FEA01288139818217FB
:100950009307D1F3E80128813981A20FB31F6C936B
:10096000A685B785A05CBF4F11969C938E93A689F0
:10097000B7892C9181E090E0078C02C0880F991F05
:100980000A94E2F7822B8C9381E081A30488F58995
:10099000E02D80818064808381E090E0DF91CF91C1
:1009A0001F910F910895FB01E05CFF4F2081318181
:1009B0002F5F3F4F2F733327DB01AE5BBF4F4D914E
:1009C0005C912417350741F040815181DB01A40F70
:1009D000B51F8C933183208308951F920F920FB619
:1009E0000F9211240BB60F922F933F934F935F9367
:1009F0006F937F938F939F93AF93BF93EF93FF93E7
:100A00008091C00082FD07C08091C60067E974E054
:100A10000E94D30402C08091C600FF91EF91BF9164
:100A2000AF919F918F917F916F915F914F913F9186
:100A30002F910F900BBE0F900FBE0F901F90189527
:100A40001F920F920FB60F9211240BB60F922F9395
:100A50003F934F935F936F937F938F939F93AF9346
:100A6000BF93EF93FF938091C80082FD07C08091F0
:100A7000CE006FE074E00E94D30402C08091CE00EB
:100A8000FF91EF91BF91AF919F918F917F916F9166
:100A90005F914F913F912F910F900BBE0F900FBE22
:100AA0000F901F9018951F920F920FB60F9211245E
:100AB0000BB60F922F933F934F935F936F937F9358
:100AC0008F939F93AF93BF93EF93FF938091D00049
:100AD00082FD07C08091D60067E873E00E94D304CE
:100AE00002C08091D600FF91EF91BF91AF919F918D
:100AF0008F917F916F915F914F913F912F910F90C7
:100B00000BBE0F900FBE0F901F9018951F920F9263
:100B10000FB60F9211240BB60F922F933F934F9362
:100B20005F936F937F938F939F93AF93BF93EF9355
:100B3000FF938091300182FD07C0809136016FEFF5
:100B400072E00E94D30402C080913601FF91EF91C0
:100B5000BF91AF919F918F917F916F915F914F91D5
:100B60003F912F910F900BBE0F900FBE0F901F90D3
:100B700018951F920F920FB60F9211240BB60F9279
:100B80002F933F938F939F93EF93FF932091930421
:100B90003091940480919504909196042817390718
:100BA00031F48091C1008F7D8093C10014C0E09129
:100BB0009504F0919604ED5AFB4F208180919504A5
:100BC0009091960401968F73992790939604809341
:100BD00095042093C600FF91EF919F918F913F91D3
:100BE0002F910F900BBE0F900FBE0F901F90189576
:100BF0001F920F920FB60F9211240BB60F922F93E4
:100C00003F938F939F93EF93FF9320910B04309129
:100C10000C0480910D0490910E042817390731F4CB
:100C20008091C9008F7D8093C90014C0E0910D04AC
:100C3000F0910E04E553FC4F208180910D049091BA
:100C40000E0401968F73992790930E0480930D04E0
:100C50002093CE00FF91EF919F918F913F912F9123
:100C60000F900BBE0F900FBE0F901F9018951F9204
:100C70000F920FB60F9211240BB60F922F933F9342
:100C80008F939F93EF93FF9320918303309184037D
:100C900080918503909186032817390731F480915C
:100CA000D1008F7D8093D10014C0E0918503F09135
:100CB0008603ED5BFC4F2081809185039091860334
:100CC00001968F73992790938603809385032093D1
:100CD000D600FF91EF919F918F913F912F910F90AF
:100CE0000BBE0F900FBE0F901F9018951F920F9282
:100CF0000FB60F9211240BB60F922F933F938F9341
:100D00009F93EF93FF932091FB023091FC0280911F
:100D1000FD029091FE022817390731F480913101CC
:100D20008F7D8093310114C0E091FD02F091FE02AD
:100D3000E554FD4F20818091FD029091FE020196C5
:100D40008F7399279093FE028093FD0220933601C2
:100D5000FF91EF919F918F913F912F910F900BBE3B
:100D60000F900FBE0F901F901895CF92DF92EF92C9
:100D7000FF920F931F93CF93DF93EC016A017B01E6
:100D80004115514E6105710509F1EC89FD8981E03C
:100D900090E008A002C0880F991F0A94E2F78083B0
:100DA00060E079E08DE390E0A70196010E941208CF
:100DB00089019A01015011092109310936952795B8
:100DC00017950795980101151041A8F0EC89FD8948
:100DD000108260E874E88EE190E0A70196010E941D
:100DE0001208DA01C9010197A109B109B695A795C1
:100DF000979587959C01E889F9893083EA89FB8971
:100E0000208319A2EE89FF89408181E090E09C0156
:100E10000C8C02C0220F331F0A94E2F7242B20838C
:100E2000EE89FF8940819C010D8C02C0220F331F87
:100E30000A94E2F7242B2083EE89FF8940819C01EC
:100E40000E8C02C0220F331F0A94E2F7242B20835A
:100E5000EE89FF8920810F8C02C0880F991F0A94A8
:100E6000E2F7809582238083DF91CF911F910F91CC
:100E7000FF90EF90DF90CF900895CF92DF92EF92A6
:100E8000FF92E9E9F2E01382128288EEC82E83E035
:100E9000D82EE12CF12CC482D582E682F7826BE158
:100EA00072E07183608387E994E09587848783E5A6
:100EB00094E09787868785EC90E0918B808B84EC1B
:100EC00090E0938B828B80EC90E0958B848B81EC0F
:100ED00090E0978B868B82EC90E0918F808F86ECF0
:100EE00090E0938F828F44E0448F33E0358F27E08A
:100EF000268F95E0978F81E080A3E7E7F2E01382E9
:100F00001282C482D582E682F78271836083AFE069
:100F1000B4E0B587A487ABECB3E0B787A687ADECA8
:100F2000B0E0B18BA08BACECB0E0B38BA28BA8ECA3
:100F3000B0E0B58BA48BA9ECB0E0B78BA68BAAEC84
:100F4000B0E0B18FA08FAEECB0E0B38FA28F448F32
:100F5000358F268F978F80A3E5E5F2E0138212820A
:100F6000C482D582E682F78271836083A7E8B3E00A
:100F7000B587A487A3E4B3E0B787A687A5EDB0E063
:100F8000B18BA08BA4EDB0E0B38BA28BA0EDB0E051
:100F9000B58BA48BA1EDB0E0B78BA68BA2EDB0E032
:100FA000B18FA08FA6EDB0E0B38FA28F448F358FA5
:100FB000268F978F80A3E3E3F2E013821282C4822C
:100FC000D582E682F782718360836FEF72E0758766
:100FD00064876BEB72E07787668765E371E0718BFE
:100FE000608B64E371E0738B628B60E371E0758BFF
:100FF000648B61E371E0778B668B62E371E0718FE4
:10100000608F66E371E0738F628F448F358F268F18
:10101000978F80A3FF90EF90DF90CF900895F89482
:101020000C943C08A1E21A2EAA1BBB1BFD010DC0AB
:10103000AA1FBB1FEE1FFF1FA217B307E407F50788
:1010400020F0A21BB30BE40BF50B661F771F881F64
:10105000991F1A9469F760957095809590959B01FA
:10106000AC01BD01CF010895EE0FFF1F881F8BBF9C
:0C1070000790F691E02D1994F894FFCF42
:10107C0004000D00017369676E616C207300736965
:10108C00676E616C206F00000000009104D0033A81
:08109C000466044A0486040006
:00000001FF
