:100000000C9433010C9454010C9454010C9454013D
:100010000C9454010C9454010C9454010C9454010C
:100020000C9454010C9454010C9454010C945401FC
:100030000C9454010C9454010C9454010C945401EC
:100040000C9454010C9454010C9454010C945401DC
:100050000C9454010C9454010C9454010C947802A7
:100060000C9454010C9454010C9454010C945401BC
:100070000C9454010C9454010C9454010C945401AC
:100080000C9454010C9454010C9454010C9454019C
:100090000C9454010C9454010C9454010C9454018C
:1000A0000C9454010C9454010C9454010C9454017C
:1000B0000C9454010C9454010C9454010C9454016C
:1000C0000C9454010C9454010C9454010C9454015C
:1000D0000C9454010C9454010C9454010C9454014C
:1000E0000C9454019B019E0191019501D501A2013F
:1000F000A601AC01B001B401BA01BE01C201D50133
:10010000C801CC01D0010C94A6010C94B0010C9450
:10011000A2010C9495010C94C2010C94AC010C94B6
:100120009B010C94CC010C94D5010C94B4010C945B
:1001300091010C94C8010C94BE010C949E010C9486
:10014000BA010C94D0010000090A02080B0C0D073B
:100150000603040100000000000000000000000091
:10016000000000000000000000000000000000008F
:10017000000011100F00000000000000000000004F
:10018000000000000000000000000000010210203C
:1001900020080810204010204080020102010804BD
:1001A0000201010204081020408080402010080451
:1001B00002018004020180402010080402010804AA
:1001C00002010102040810204080010204081020EE
:1001D0004080050505050705080808080202020217
:1001E0000A0A0808040404040101010101010101D3
:1001F0000303030303030303040707070C0C0C0C9E
:100200000C0C0C0C02020202060606060606060686
:100210000B0B0B0B0B0B0B0B00002000230026001D
:1002200029002C002F00320000010000030106010C
:10023000090100002200250028002B002E003100BB
:10024000340002010000050108010B01000021003B
:10025000240027002A002D00300033000101000097
:10026000040107010A0111241FBECFEFD1E2DEBF56
:10027000CDBF00E00CBF12E0A0E0B2E0E2E6F6E0A5
:1002800000E00BBF02C007900D92A430B107D9F770
:1002900022E0A4E0B2E001C01D92A131B207E1F773
:1002A0000E946B020C9424030C940000CF93DF9304
:1002B00061E0809102020E94D601C0E0D2E060E0DD
:1002C00088810E94D60161E08881DF91CF910C94F2
:1002D0001202809100020E944202892B39F481E0CF
:1002E00090E0909305028093040204C010920502EE
:1002F000109204021092070210920602609104020A
:10030000809102020C94120290E0FC013197E131DD
:10031000F10508F04AC08827EE58FF4F8F4F0C9424
:100320002703809180008F7703C0809180008F7DAC
:1003300080938000089584B58F7702C084B58F7D47
:1003400084BD08958091B0008F7703C08091B00084
:100350008F7D8093B0000895809190008F7707C0C3
:10036000809190008F7D03C080919000877F809363
:10037000900008958091A0008F7707C08091A00021
:100380008F7D03C08091A000877F8093A000089597
:10039000809120018F7707C0809120018F7D03C05D
:1003A00080912001877F809320010895CF93DF9370
:1003B00090E0FC01E457FE4F2491FC01EE52FE4F09
:1003C0008491882361F190E0880F991FFC01E45B20
:1003D000FD4FC591D491FC01EE5CFD4FA591B49108
:1003E000611109C09FB7F894888120958223888382
:1003F000EC912E230BC0623061F49FB7F8943881E2
:10040000822F809583238883EC912E2B2C939FBF82
:1004100006C08FB7F894E8812E2B28838FBFDF9119
:10042000CF9108951F93CF93DF93282F30E0F901E8
:10043000EA5BFE4F8491F901E457FE4FD491F90134
:10044000EE52FE4FC491CC23C9F0162F81110E94A9
:100450008401EC2FF0E0EE0FFF1FEE5CFD4FA59145
:10046000B4918FB7F894111105C09C91ED2FE095D0
:10047000E92302C0EC91ED2BEC938FBFDF91CF917C
:100480001F910895CF93DF93282F30E0F901EA5BA5
:10049000FE4F8491F901E457FE4FD491F901EE52D9
:1004A000FE4FC491CC2391F081110E948401EC2F66
:1004B000F0E0EE0FFF1FE85EFD4FA591B491EC91C7
:1004C000ED2381E090E021F480E002C080E090E044
:1004D000DF91CF9108950E94C2020E945601C0E0B0
:1004E000D0E00E9469012097E1F30E940000F9CF5B
:1004F0001F920F920FB60F9211242F933F938F9359
:100500009F93AF93BF938091090290910A02A091AB
:100510000B02B0910C023091080223E0230F2D371B
:1005200020F40196A11DB11D05C026E8230F0296F7
:10053000A11DB11D209308028093090290930A0225
:10054000A0930B02B0930C0280910D0290910E02C9
:10055000A0910F02B09110020196A11DB11D8093D0
:100560000D0290930E02A0930F02B0931002BF9160
:10057000AF919F918F913F912F910F900FBE0F9050
:100580001F901895789484B5826084BD84B581608D
:1005900084BD85B5826085BD85B5816085BDEEE68B
:1005A000F0E0808181608083E1E8F0E0108280816A
:1005B00082608083808181608083E0E8F0E08081D8
:1005C00081608083E1EBF0E0808184608083E0EBF8
:1005D000F0E0808181608083E1E9F0E080818260E9
:1005E0008083808181608083E0E9F0E080818160A8
:1005F0008083E1EAF0E08081826080838081816095
:100600008083E0EAF0E0808181608083E1E2F1E0D4
:10061000808182608083808181608083E0E2F1E07C
:10062000808181608083EAE7F0E08081846080835C
:100630008081826080838081816080838081806806
:1006400080831092C1000895F8940C942F03EE0F4C
:10065000FF1F881F8BBF0790F691E02D1994F89427
:02066000FFCFCA
:0406620008000D007F
:00000001FF
