:100000000C9435010C9466010C9466010C94660105
:100010000C9466010C9466010C9466010C946601C4
:100020000C9466010C9466010C9466010C946601B4
:100030000C9466010C9466010C9466010C946601A4
:100040000C9466010C9466010C9466010C94660194
:100050000C9466010C9466010C9466010C94B90131
:100060000C9466010C9417050C94E3050C9466013E
:100070000C9466010C9466010C9466010C94660164
:100080000C9466010C9466010C9466010C94660154
:100090000C944A050C9422060C9466010C9466019B
:1000A0000C9466010C9466010C9466010C94660134
:1000B0000C9466010C9466010C9466010C94660124
:1000C0000C9466010C9466010C9466010C947D05F9
:1000D0000C9461060C9466010C94B0050C94A00677
:1000E0000C946601EC02EF02E202E6022603F30240
:1000F000F702FD02010305030B030F03130326039D
:1001000019031D0321030C940B030C94FD020C94A2
:1001100013030C941D030C9426030C9493030C946A
:1001200067070C94EF020C94BB040C9419030C9415
:1001300021030C9405030C94E6020C9464040C94C3
:1001400001030C9474040C9490040C94F3020C942A
:10015000F7020C94EC020C94E2020C94B0040C94A0
:100160000F030000090A02080B0C0D070603040127
:10017000000000000000000000000000000000007F
:10018000000000000000000000000000000011104E
:100190000F00000000000000000000000000000050
:1001A00000000000000000000102102020080810DC
:1001B00020401020408002010201080402010102D7
:1001C00004081020408080402010080402018004B0
:1001D000020180402010080402010804020101020B
:1001E000040810204080010204081020408005050A
:1001F0000505070508080808020202020A0A08089D
:1002000004040404010101010101010103030303CA
:1002100003030303040707070C0C0C0C0C0C0C0C59
:100220000202020206060606060606060B0B0B0B6A
:100230000B0B0B0B00002200250028002B002E00CA
:100240003100340002010000050108010B0100002B
:100250002100240027002A002D0030003300010176
:100260000000040107010A01670711241FBECFEF38
:10027000D1E2DEBFCDBF00E00CBF12E0A0E0B2E0F3
:10028000E0EDF0E100E00BBF02C007900D92A2315B
:10029000B107D9F724E0A2E1B2E001C01D92A33C6E
:1002A000B207E1F711E0C5E3D1E000E006C0219715
:1002B0000109802FFE010E945E08C433D10780E04F
:1002C0000807A9F70E94B0010C9439080C940000AB
:1002D0000F931F93CF93DF93C0E0D0E000E010E0D6
:1002E00081E00E94B002817099270C2E02C0880F15
:1002F000991F0A94E2F7082B192B62E370E080E063
:1003000090E00E9428022196C031D10549F7C8012A
:10031000DF91CF911F910F9108950E944E0260E0EE
:1003200081E00E94270361E081E00E94630340E8CE
:1003300055E260E070E081E892E00E94DF0640E86C
:1003400055E260E070E08BE192E00E94DF060E94DF
:1003500068014AE050E0BC0181E892E00C944E0450
:100360000E948D0181E892E00E94B00480E090E05C
:1003700008951F920F920FB60F9211242F933F935F
:100380008F939F93AF93BF93809113029091140228
:10039000A0911502B09116023091120223E0230FB2
:1003A0002D3720F40196A11DB11D05C026E8230FAD
:1003B0000296A11DB11D2093120280931302909307
:1003C0001402A0931502B093160280911702909127
:1003D0001802A0911902B0911A020196A11DB11D37
:1003E0008093170290931802A0931902B0931A02F7
:1003F000BF91AF919F918F913F912F910F900FBE21
:100400000F901F9018953FB7F89480911702909124
:100410001802A0911902B0911A0226B5A89B05C036
:100420002F3F19F00196A11DB11D3FBFBA2FA92F73
:10043000982F8827820F911DA11DB11DBC01CD01F0
:1004400042E0660F771F881F991F4A95D1F70895DC
:10045000CF92DF92EF92FF92CF93DF936B017C01FB
:100460000E940302EB01C114D104E104F10479F00C
:100470000E9403026C1B7D0B683E7340A0F381E079
:10048000C81AD108E108F108C851DC4FECCFDF9160
:10049000CF91FF90EF90DF90CF900895789484B53E
:1004A000826084BD84B5816084BD85B5826085BD70
:1004B00085B5816085BDEEE6F0E080818160808356
:1004C000E1E8F0E010828081826080838081816039
:1004D0008083E0E8F0E0808181608083E1EBF0E000
:1004E000808184608083E0EBF0E0808181608083A4
:1004F000E1E9F0E080818260808380818160808397
:10050000E0E9F0E0808181608083E1EAF0E08081D1
:1005100082608083808181608083E0EAF0E0808176
:1005200081608083E1E2F1E080818260808380816C
:1005300081608083E0E2F1E0808181608083EAE78E
:10054000F0E080818460808380818260808380810C
:10055000816080838081806880831092C1000895CB
:10056000863308F0865390917B00282F2870977F60
:10057000922B90937B0087702091000290E4299F3A
:1005800090011124822B80937C0080917A008064FA
:1005900080937A0080917A0086FDFCCF809178006C
:1005A0002091790090E0922B089590E0FC01319722
:1005B000E131F10508F04AC08827EE58FF4F8F4F10
:1005C0000C945E08809180008F7703C0809180003A
:1005D0008F7D80938000089584B58F7702C084B5A5
:1005E0008F7D84BD08958091B0008F7703C0809186
:1005F000B0008F7D8093B0000895809190008F7738
:1006000007C0809190008F7D03C080919000877F0C
:100610008093900008958091A0008F7707C080910B
:10062000A0008F7D03C08091A000877F8093A000F1
:100630000895809120018F7707C0809120018F7DE0
:1006400003C080912001877F809320010895CF937C
:10065000DF9390E0FC01E855FE4F2491FC01E2514C
:10066000FE4F8491882361F190E0880F991FFC016F
:10067000E25BFD4FC591D491FC01EC5CFD4FA5916F
:10068000B491611109C09FB7F894888120958223A5
:100690008883EC912E230BC0623061F49FB7F894ED
:1006A0003881822F809583238883EC912E2B2C9385
:1006B0009FBF06C08FB7F894E8812E2B28838FBF89
:1006C000DF91CF9108951F93CF93DF93282F30E0D0
:1006D000F901EE59FE4F8491F901E855FE4FD4918E
:1006E000F901E251FE4FC491CC23C9F0162F8111BC
:1006F0000E94D502EC2FF0E0EE0FFF1FEC5CFD4FE7
:10070000A591B4918FB7F894111105C09C91ED2F6C
:10071000E095E92302C0EC91ED2BEC938FBFDF91C4
:10072000CF911F910895CF92DF92EF92FF920F9396
:100730001F93CF93DF936C01EB017B01E40EF51E59
:1007400000E010E0CE15DF0561F06991D601ED9172
:10075000FC910190F081E02DC6011995080F191F39
:10076000F1CFC801DF91CF911F910F91FF90EF90D2
:10077000DF90CF9008956115710579F0FB0101902C
:100780000020E9F73197AF01461B570BDC01ED91D3
:10079000FC910280F381E02D199480E090E00895AF
:1007A000DC01ED91FC910190F081E02D19940F9303
:1007B0001F93CF93DF93EC016DE00E94D0038C0177
:1007C0006AE0CE010E94D003800F911FDF91CF918C
:1007D0001F910F9108958F929F92AF92BF92CF92E7
:1007E000DF92EF92FF920F931F93CF93DF93CDB7DA
:1007F000DEB7A1970FB6F894DEBF0FBECDBF6C0178
:10080000142FE52FCB01022F19A2223008F40AE0A1
:100810007E0121E2E20EF11C802E912CA12CB12C44
:10082000612F7E2FA50194010E943C08029F1019A0
:10083000112481E0E81AF1081A3014F4105D01C0A7
:10084000195CF7011083122FE32FCA01232B242BED
:10085000252B31F7B701C6010E94BB03A1960FB645
:10086000F894DEBF0FBECDBFDF91CF911F910F91E6
:10087000FF90EF90DF90CF90BF90AF909F908F90C0
:1008800008952115310541F4DC01ED91FC910190B1
:10089000F081E02D642F19940C94EB030F931F93B8
:1008A000CF93DF93EC019A01AB0160E070E00E940E
:1008B00041048C01CE010E94D703800F911FDF916C
:1008C000CF911F910F910895FC0124853585F90181
:1008D000E05CFF4F80819181329620813181821BC3
:1008E000930B8F7399270895DC011C96ED91FC9171
:1008F0001D97DF01A05CBF4F2D913C91119712967F
:100900008D919C9111972817390739F08D919C9101
:10091000E80FF91F808190E008958FEF9FEF089511
:10092000FC01A485B585FD01E05CFF4F208131818C
:100930003296808191812817390779F080819181E1
:10094000A80FB91F8C91208131812F5F3F4F2F73EA
:1009500033273183208390E008958FEF9FEF089530
:10096000FC0181A1882329F0A489B5898C9186FF97
:10097000FBCF11A208950F931F93CF93DF93FC0138
:10098000A685B7858D01005C1F4FE801888199819C
:1009900001968F739927AD014E5B5F4FEA01288165
:1009A000398182179307D1F3E80128813981A20F99
:1009B000B31F6C93A685B785A05CBF4F11969C931F
:1009C0008E93A689B7892C9181E090E0078C02C0B4
:1009D000880F991F0A94E2F7822B8C9381E081A300
:1009E0000488F589E02D80818064808381E090E037
:1009F000DF91CF911F910F910895FB01E05CFF4FB4
:100A0000208131812F5F3F4F2F733327DB01AE5B96
:100A1000BF4F4D915C912417350741F040815181C2
:100A2000DB01A40FB51F8C933183208308951F929F
:100A30000F920FB60F9211240BB60F922F933F9384
:100A40004F935F936F937F938F939F93AF93BF93D6
:100A5000EF93FF938091C00082FD07C08091C60094
:100A60006FE774E00E94FD0402C08091C600FF9110
:100A7000EF91BF91AF919F918F917F916F915F9116
:100A80004F913F912F910F900BBE0F900FBE0F9083
:100A90001F9018951F920F920FB60F9211240BB64C
:100AA0000F922F933F934F935F936F937F938F9307
:100AB0009F93AF93BF93EF93FF938091C80082FD04
:100AC00007C08091CE0067EF73E00E94FD0402C072
:100AD0008091CE00FF91EF91BF91AF919F918F9147
:100AE0007F916F915F914F913F912F910F900BBE2E
:100AF0000F900FBE0F901F9018951F920F920FB678
:100B00000F9211240BB60F922F933F934F935F9345
:100B10006F937F938F939F93AF93BF93EF93FF93C5
:100B20008091D00082FD07C08091D6006FE673E00F
:100B30000E94FD0402C08091D600FF91EF91BF9109
:100B4000AF919F918F917F916F915F914F913F9165
:100B50002F910F900BBE0F900FBE0F901F90189506
:100B60001F920F920FB60F9211240BB60F922F9374
:100B70003F934F935F936F937F938F939F93AF9325
:100B8000BF93EF93FF938091300182FD07C0809166
:100B9000360167EE72E00E94FD0402C080913601CA
:100BA000FF91EF91BF91AF919F918F917F916F9145
:100BB0005F914F913F912F910F900BBE0F900FBE01
:100BC0000F901F9018951F920F920FB60F9211243D
:100BD0000BB60F922F933F938F939F93EF93FF93B7
:100BE00020917B0430917C0480917D0490917E045F
:100BF0002817390731F48091C1008F7D8093C1009F
:100C000014C0E0917D04F0917E04E55CFB4F2081EF
:100C100080917D0490917E0401968F739927909323
:100C20007E0480937D042093C600FF91EF919F91F5
:100C30008F913F912F910F900BBE0F900FBE0F9091
:100C40001F9018951F920F920FB60F9211240BB69A
:100C50000F922F933F938F939F93EF93FF93209146
:100C6000F3033091F4038091F5039091F603281774
:100C7000390731F48091C9008F7D8093C90014C079
:100C8000E091F503F091F603ED54FC4F2081809143
:100C9000F5039091F60301968F7399279093F603CD
:100CA0008093F5032093CE00FF91EF919F918F9158
:100CB0003F912F910F900BBE0F900FBE0F901F9082
:100CC00018951F920F920FB60F9211240BB60F9228
:100CD0002F933F938F939F93EF93FF9320916B03F9
:100CE00030916C0380916D0390916E032817390742
:100CF00031F48091D1008F7D8093D10014C0E091B8
:100D00006D03F0916E03E55DFC4F208180916D03D2
:100D100090916E0301968F73992790936E03809341
:100D20006D032093D600FF91EF919F918F913F919A
:100D30002F910F900BBE0F900FBE0F901F90189524
:100D40001F920F920FB60F9211240BB60F922F9392
:100D50003F938F939F93EF93FF932091E302309102
:100D6000E4028091E5029091E6022817390731F4F8
:100D7000809131018F7D8093310114C0E091E502B3
:100D8000F091E602ED55FD4F20818091E5029091B2
:100D9000E60201968F7399279093E6028093E5020D
:100DA00020933601FF91EF919F918F913F912F9169
:100DB0000F900BBE0F900FBE0F901F901895CF9203
:100DC000DF92EF92FF920F931F93CF93DF93EC018B
:100DD0006A017B014115514E6105710509F1EC89EC
:100DE000FD8981E090E008A002C0880F991F0A9455
:100DF000E2F7808360E079E08DE390E0A70196015F
:100E00000E943C0889019A01015011092109310908
:100E10003695279517950795980101151041A8F06B
:100E2000EC89FD89108260E874E88EE190E0A7010A
:100E300096010E943C08DA01C9010197A109B10994
:100E4000B695A795979587959C01E889F989308390
:100E5000EA89FB89208319A2EE89FF89408181E01C
:100E600090E09C010C8C02C0220F331F0A94E2F721
:100E7000242B2083EE89FF8940819C010D8C02C0C8
:100E8000220F331F0A94E2F7242B2083EE89FF8977
:100E900040819C010E8C02C0220F331F0A94E2F79E
:100EA000242B2083EE89FF8920810F8C02C0880FBC
:100EB000991F0A94E2F7809582238083DF91CF9176
:100EC0001F910F91FF90EF90DF90CF900895CF92F8
:100ED000DF92EF92FF92E1E8F2E01382128288EE55
:100EE000C82E83E0D82EE12CF12CC482D582E68274
:100EF000F78265E072E0718360838FE794E0958705
:100F000084878BE394E09787868785EC90E0918BCC
:100F1000808B84EC90E0938B828B80EC90E0958BBF
:100F2000848B81EC90E0978B868B82EC90E0918FA4
:100F3000808F86EC90E0938F828F44E0448F33E083
:100F4000358F27E0268F95E0978F81E080A3EFE52E
:100F5000F2E013821282C482D582E682F782718324
:100F60006083A7EFB3E0B587A487A3EBB3E0B787AF
:100F7000A687ADECB0E0B18BA08BACECB0E0B38B4E
:100F8000A28BA8ECB0E0B58BA48BA9ECB0E0B78B3A
:100F9000A68BAAECB0E0B18FA08FAEECB0E0B38F1F
:100FA000A28F448F358F268F978F80A3EDE3F2E0D9
:100FB00013821282C482D582E682F78271836083B3
:100FC000AFE6B3E0B587A487ABE2B3E0B787A68707
:100FD000A5EDB0E0B18BA08BA4EDB0E0B38BA28BFC
:100FE000A0EDB0E0B58BA48BA1EDB0E0B78BA68BE4
:100FF000A2EDB0E0B18FA08FA6EDB0E0B38FA28FCD
:10100000448F358F268F978F80A3EBE1F2E0138218
:101010001282C482D582E682F7827183608367EE92
:1010200072E07587648763EA72E07787668765E3B5
:1010300071E0718B608B64E371E0738B628B60E3B2
:1010400071E0758B648B61E371E0778B668B62E393
:1010500071E0718F608F66E371E0738F628F448FF0
:10106000358F268F978F80A3FF90EF90DF90CF90E2
:101070000895F8940C946608A1E21A2EAA1BBB1BD3
:10108000FD010DC0AA1FBB1FEE1FFF1FA217B30754
:10109000E407F50720F0A21BB30BE40BF50B661F6A
:1010A000771F881F991F1A9469F76095709580952E
:1010B00090959B01AC01BD01CF010895EE0FFF1F7C
:1010C000881F8BBF0790F691E02D1994F894FFCFFD
:1010D0000100000000BB049303640490047404B096
:0210E00004000A
:00000001FF
