:100000000C9435010C9466010C9466010C94660105
:100010000C9466010C9466010C9466010C946601C4
:100020000C9466010C9466010C9466010C946601B4
:100030000C9466010C9466010C9466010C946601A4
:100040000C9466010C9466010C9466010C94660194
:100050000C9466010C9466010C9466010C94C9031F
:100060000C9466010C94AE070C947A080C9466010B
:100070000C9466010C9466010C9466010C94660164
:100080000C9466010C9466010C9466010C94660154
:100090000C94E1070C94B9080C9466010C94660169
:1000A0000C9466010C9466010C9466010C94660134
:1000B0000C9466010C9466010C9466010C94660124
:1000C0000C9466010C9466010C9466010C9414085F
:1000D0000C94F8080C9466010C9447080C943709AA
:1000E0000C946601FC04FF04F204F60436050305D3
:1000F00007050D05110515051B051F05230536050B
:1001000029052D0531050C9407050C941B050C944D
:100110001F050C9452070C94A3050C94FE090C9433
:10012000FB060C94FF040C9447070C94F2040C9407
:1001300036050C9411050C9431050C940D050C94A6
:100140000B070C94FC040C9423050C9429050C94C7
:100150002D050C9427070C9415050C9403050C949D
:10016000F6040000090A02080B0C0D07060304013F
:10017000000000000000000000000000000000007F
:10018000000000000000000000000000000011104E
:100190000F00000000000000000000000000000050
:1001A00000000000000000000102102020080810DC
:1001B00020401020408002010201080402010102D7
:1001C00004081020408080402010080402018004B0
:1001D000020180402010080402010804020101020B
:1001E000040810204080010204081020408005050A
:1001F0000505070508080808020202020A0A08089D
:1002000004040404010101010101010103030303CA
:1002100003030303040707070C0C0C0C0C0C0C0C59
:100220000202020206060606060606060B0B0B0B6A
:100230000B0B0B0B00002200250028002B002E00CA
:100240003100340002010000050108010B0100002B
:100250002100240027002A002D0030003300010176
:100260000000040107010A01FE0911241FBECFEF9F
:10027000D1E2DEBFCDBF00E00CBF12E0A0E0B2E0F3
:10028000EAE1F7E100E00BBF02C007900D92AA3A45
:10029000B107D9F725E0AAEAB2E001C01D92A13664
:1002A000B207E1F711E0C5E3D1E000E006C0219715
:1002B0000109802FFE010E94550BC433D10780E055
:1002C0000807A9F70E94B6030C94F70A0C940000E3
:1002D0000F931F93CF93DF93C0E0D0E000E010E0D6
:1002E00081E00E94C004817099270C2E02C0880F03
:1002F000991F0A94E2F7082B192B62E370E080E063
:1003000090E00E9438042196C031D10549F7C80118
:10031000DF91CF911F910F9108954F925F926F924D
:100320007F928F929F92AF92BF92CF92DF92EF9285
:10033000FF92CF93DF9300D01F92CDB7DEB74B0172
:100340006A01BA010E941F0BFC0181E090E0B60136
:100350000E941F0BBC01990F880B990B412C512C4B
:100360003201A12CB12C9F01FF0F440B550B2983A7
:100370003A834B835C830D2C000CEE08FF08481475
:1003800059046A047B0490F49B01AC0169817A8171
:100390008B819C810E940F0BA70196010E94330B59
:1003A0003FEF431A530A630A730AE9CF0F900F9085
:1003B0000F900F90DF91CF91FF90EF90DF90CF9053
:1003C000BF90AF909F908F907F906F905F904F9075
:1003D00008954F925F926F927F928F929F92AF9209
:1003E000BF92CF92DF92EF92FF924B015C01950199
:1003F00044275527AFE8BCEB0E945D0B6B017C01E5
:100400002B013C019FE076946794579447949A950A
:10041000D1F7A5019401442755270E945D0BDC010B
:10042000CB01840D951DA61DB71DE894D7F8EE24C9
:10043000FF247601DD24CC24BC01CD016C0D7D1D93
:100440008E1D9F1D97FF04C06F5F7F4F8F4F9F478B
:10045000FF90EF90DF90CF90BF90AF909F908F90E4
:100460007F906F905F904F900895EF92FF921F934F
:10047000CF93DF93182FCB017901C0E0D0E0CE15E8
:10048000DF0531F0BA010E94E901AB012196F7CFF7
:10049000812F8427DF91CF911F91FF90EF900895D6
:1004A000CF92DF92EF92FF920F931F93CF93DF9340
:1004B0007C016C01C0E0D0E08B0101501109C01734
:1004C000D1076CF48FE193E00E94FB061816190621
:1004D000B4F78FE193E00E9427078D3061F4CE0DD1
:1004E000DF1D1882DF91CF911F910F91FF90EF9048
:1004F000DF90CF900895F60181936F012196DFCFB1
:10050000CF93DF93CDB7DEB760970FB6F894DEBF19
:100510000FBECDBF60E170E0CE0101960E94500297
:10052000CE0101960E94D00ACB0160960FB6F894D6
:10053000DEBF0FBECDBFDF91CF9108954F925F9286
:100540006F927F928F929F92AF92BF92CF92DF92E3
:10055000EF92FF92CF93DF930E945E0460E081E010
:100560000E94370561E081E00E94730540E855E292
:1005700060E070E08FE193E00E94760940E855E288
:1005800060E070E089EB92E00E94760961E072E041
:100590008FE193E00E94FD050E946801EC01812C2F
:1005A000912C5401C12CD12C7601C3942E01612CC5
:1005B000712C84149504A604B704A0F4A6E0B0E05E
:1005C000A70196010E945D0B2BE03BE440E050E068
:1005D0000E94330B6B017C018FEF881A980AA80ADE
:1005E000B80AE7CF69E172E08FE193E00E94E0058D
:1005F0002AE030E0B701A6018FE193E00E94E9060E
:100600008FE193E00E94E9056EE272E08FE193E0F2
:100610000E94FD0567E572E08FE193E00E94E0052E
:100620008FE193E00E94FB06892BD1F30E948002A8
:100630007C014AE050E0BC018FE193E00E94AF06EC
:100640004BE05BE4BE01C7010E948D017093AF02D5
:100650006093AE0265E872E08FE193E00E94E005EE
:100660006091AE027091AF024AE050E08FE193E0FA
:100670000E94D3068FE193E00E94E9058FE193E0A9
:10068000DF91CF91FF90EF90DF90CF90BF90AF9030
:100690009F908F907F906F905F904F900C94E905A2
:1006A000CF938FE193E00E942707C82F682F8FE137
:1006B00093E00E9452072091AC023091AD0240912C
:1006C000AE025091AF0260E070E08C2F0E943502C4
:1006D000682F89EB92E00E9452072091AC02309182
:1006E000AD022F5F3F4F3093AD022093AC02CD306F
:1006F000E1F44091AE025091AF0260E070E08AE018
:100700000E943502682F89EB92E00E945207809187
:10071000AC029091AD0201969093AD028093AC0231
:100720008FE193E0CF910C94E905CF91089589EB87
:1007300092E00E9427072091AA023091AB024091DB
:10074000AE025091AF0260E070E00E943502682F67
:100750008FE193E00E9452078091AA029091AB0230
:1007600001969093AB028093AA0208950E949E0284
:100770008FE193E00E94FB06892B11F00E94500349
:1007800089EB92E00E94FB06892B91F30E9497036C
:10079000EFCF1F920F920FB60F9211242F933F931A
:1007A0008F939F93AF93BF938091B1029091B202C8
:1007B000A091B302B091B4023091B00223E0230FB4
:1007C0002D3720F40196A11DB11D05C026E8230F89
:1007D0000296A11DB11D2093B0028093B1029093A7
:1007E000B202A093B302B093B4028091B50290918B
:1007F000B602A091B702B091B8020196A11DB11D39
:100800008093B5029093B602A093B702B093B8025A
:10081000BF91AF919F918F913F912F910F900FBEFC
:100820000F901F9018953FB7F8948091B502909162
:10083000B602A091B702B091B80226B5A89B05C038
:100840002F3F19F00196A11DB11D3FBFBA2FA92F4F
:10085000982F8827820F911DA11DB11DBC01CD01CC
:1008600042E0660F771F881F991F4A95D1F70895B8
:10087000CF92DF92EF92FF92CF93DF936B017C01D7
:100880000E941304EB01C114D104E104F10479F0D6
:100890000E9413046C1B7D0B683E7340A0F381E043
:1008A000C81AD108E108F108C851DC4FECCFDF913C
:1008B000CF91FF90EF90DF90CF900895789484B51A
:1008C000826084BD84B5816084BD85B5826085BD4C
:1008D00085B5816085BDEEE6F0E080818160808332
:1008E000E1E8F0E010828081826080838081816015
:1008F0008083E0E8F0E0808181608083E1EBF0E0DC
:10090000808184608083E0EBF0E08081816080837F
:10091000E1E9F0E080818260808380818160808372
:10092000E0E9F0E0808181608083E1EAF0E08081AD
:1009300082608083808181608083E0EAF0E0808152
:1009400081608083E1E2F1E0808182608083808148
:1009500081608083E0E2F1E0808181608083EAE76A
:10096000F0E08081846080838081826080838081E8
:10097000816080838081806880831092C1000895A7
:10098000863308F0865390917B00282F2870977F3C
:10099000922B90937B0087702091000290E4299F16
:1009A00090011124822B80937C0080917A008064D6
:1009B00080937A0080917A0086FDFCCF8091780048
:1009C0002091790090E0922B089590E0FC013197FE
:1009D000E131F10508F04AC08827EE58FF4F8F4FEC
:1009E0000C94550B809180008F7703C0809180001C
:1009F0008F7D80938000089584B58F7702C084B581
:100A00008F7D84BD08958091B0008F7703C0809161
:100A1000B0008F7D8093B0000895809190008F7713
:100A200007C0809190008F7D03C080919000877FE8
:100A30008093900008958091A0008F7707C08091E7
:100A4000A0008F7D03C08091A000877F8093A000CD
:100A50000895809120018F7707C0809120018F7DBC
:100A600003C080912001877F809320010895CF9358
:100A7000DF9390E0FC01E855FE4F2491FC01E25128
:100A8000FE4F8491882361F190E0880F991FFC014B
:100A9000E25BFD4FC591D491FC01EC5CFD4FA5914B
:100AA000B491611109C09FB7F89488812095822381
:100AB0008883EC912E230BC0623061F49FB7F894C9
:100AC0003881822F809583238883EC912E2B2C9361
:100AD0009FBF06C08FB7F894E8812E2B28838FBF65
:100AE000DF91CF9108951F93CF93DF93282F30E0AC
:100AF000F901EE59FE4F8491F901E855FE4FD4916A
:100B0000F901E251FE4FC491CC23C9F0162F811197
:100B10000E94E504EC2FF0E0EE0FFF1FEC5CFD4FB0
:100B2000A591B4918FB7F894111105C09C91ED2F48
:100B3000E095E92302C0EC91ED2BEC938FBFDF91A0
:100B4000CF911F910895CF92DF92EF92FF920F9372
:100B50001F93CF93DF936C01EB017B01E40EF51E35
:100B600000E010E0CE15DF0561F06991D601ED914E
:100B7000FC910190F081E02DC6011995080F191F15
:100B8000F1CFC801DF91CF911F910F91FF90EF90AE
:100B9000DF90CF9008956115710579F0FB01019008
:100BA0000020E9F73197AF01461B570BDC01ED91AF
:100BB000FC910280F381E02D199480E090E008958B
:100BC0000C94CB05DC01ED91FC910190F081E02DBE
:100BD00019940F931F93CF93DF93EC016DE00E9464
:100BE000E2058C016AE0CE010E94E205800F911FB0
:100BF000DF91CF911F910F9108950F931F93CF9382
:100C0000DF93EC010E94CB058C01CE010E94E90527
:100C1000800F911FDF91CF911F910F9108958F92B7
:100C20009F92AF92BF92CF92DF92EF92FF920F937B
:100C30001F93CF93DF93CDB7DEB7A1970FB6F8948C
:100C4000DEBF0FBECDBF6C01142FE52FCB01022FED
:100C500019A2223008F40AE07E0121E2E20EF11C22
:100C6000802E912CA12CB12C612F7E2FA5019401F7
:100C70000E94330B029F1019112481E0E81AF10839
:100C80001A3014F4105D01C0195CF7011083122FA3
:100C9000E32FCA01232B242B252B31F7B701C601E3
:100CA0000E94CB05A1960FB6F894DEBF0FBECDBF54
:100CB000DF91CF911F910F91FF90EF90DF90CF9038
:100CC000BF90AF909F908F900895CF92DF92EF9258
:100CD000FF920F931F93CF93DF93EC016A017B0187
:100CE0002115310579F4E881F9810190F081E02D39
:100CF000642FDF91CF911F910F91FF90EF90DF90C4
:100D0000CF9019942A303105E9F477FF1AC06DE2CB
:100D10000E94E2058C0144275527BA014C195D0950
:100D20006E097F092AE0CE010E940F06800F911FF5
:100D3000DF91CF911F910F91FF90EF90DF90CF90B7
:100D400008952AE0B701A601CE01DF91CF911F914E
:100D50000F91FF90EF90DF90CF900C940F060F93C0
:100D60001F93CF93DF93EC019A01AB01770F660BD2
:100D7000770B0E9465068C01CE010E94E905800F69
:100D8000911FDF91CF911F910F910895211531058A
:100D900041F4DC01ED91FC910190F081E02D642F94
:100DA00019940C940F060F931F93CF93DF93EC01CC
:100DB0009A01AB0160E070E00E94C6068C01CE0192
:100DC0000E94E905800F911FDF91CF911F910F9134
:100DD00008950F931F93CF93DF93EC010E94C606F3
:100DE0008C01CE010E94E905800F911FDF91CF9108
:100DF0001F910F910895FC0124853585F901E05C70
:100E0000FF4F80819181329620813181821B930B2B
:100E10008F7399270895DC011C96ED91FC911D9725
:100E2000DF01A05CBF4F2D913C91119712968D91DF
:100E30009C9111972817390739F08D919C91E80FF3
:100E4000F91F808190E008958FEF9FEF0895FC01D6
:100E5000A485B585FD01E05CFF4F2081318132968C
:100E6000808191812817390779F080819181A80FBD
:100E7000B91F8C91208131812F5F3F4F2F73332712
:100E80003183208390E008958FEF9FEF0895FC0158
:100E900081A1882329F0A489B5898C9186FFFBCF95
:100EA00011A208950F931F93CF93DF93FC01A685A2
:100EB000B7858D01005C1F4FE801888199810196FB
:100EC0008F739927AD014E5B5F4FEA01288139810D
:100ED00082179307D1F3E80128813981A20FB31F4C
:100EE0006C93A685B785A05CBF4F11969C938E939B
:100EF000A689B7892C9181E090E0078C02C0880F09
:100F0000991F0A94E2F7822B8C9381E081A30488D5
:100F1000F589E02D80818064808381E090E0DF911D
:100F2000CF911F910F910895FB01E05CFF4F20814D
:100F300031812F5F3F4F2F733327DB01AE5BBF4FF4
:100F40004D915C912417350741F040815181DB01BF
:100F5000A40FB51F8C933183208308951F920F92A5
:100F60000FB60F9211240BB60F922F933F934F930E
:100F70005F936F937F938F939F93AF93BF93EF9301
:100F8000FF938091C00082FD07C08091C6006DE193
:100F900075E00E94940702C08091C600FF91EF9116
:100FA000BF91AF919F918F917F916F915F914F9181
:100FB0003F912F910F900BBE0F900FBE0F901F907F
:100FC00018951F920F920FB60F9211240BB60F9225
:100FD0002F933F934F935F936F937F938F939F9341
:100FE000AF93BF93EF93FF938091C80082FD07C03A
:100FF0008091CE0065E974E00E94940702C0809160
:10100000CE00FF91EF91BF91AF919F918F917F9112
:101010006F915F914F913F912F910F900BBE0F9069
:101020000FBE0F901F9018951F920F920FB60F9240
:1010300011240BB60F922F933F934F935F936F93AF
:101040007F938F939F93AF93BF93EF93FF93809181
:10105000D00082FD07C08091D6006DE074E00E9450
:10106000940702C08091D600FF91EF91BF91AF919C
:101070009F918F917F916F915F914F913F912F91B0
:101080000F900BBE0F900FBE0F901F9018951F92E0
:101090000F920FB60F9211240BB60F922F933F931E
:1010A0004F935F936F937F938F939F93AF93BF9370
:1010B000EF93FF938091300182FD07C0809136014C
:1010C00065E873E00E94940702C080913601FF91A9
:1010D000EF91BF91AF919F918F917F916F915F91B0
:1010E0004F913F912F910F900BBE0F900FBE0F901D
:1010F0001F9018951F920F920FB60F9211240BB6E6
:101100000F922F933F938F939F93EF93FF93209191
:10111000190530911A0580911B0590911C0528171F
:10112000390731F48091C1008F7D8093C10014C0D4
:10113000E0911B05F0911C05E752FB4F2081809147
:101140001B0590911C0501968F73992790931C05A0
:1011500080931B052093C600FF91EF919F918F9183
:101160003F912F910F900BBE0F900FBE0F901F90CD
:1011700018951F920F920FB60F9211240BB60F9273
:101180002F933F938F939F93EF93FF93209191041D
:101190003091920480919304909194042817390718
:1011A00031F48091C9008F7D8093C90014C0E09113
:1011B0009304F0919404EF5AFB4F208180919304A3
:1011C0009091940401968F7399279093940480933F
:1011D00093042093CE00FF91EF919F918F913F91C7
:1011E0002F910F900BBE0F900FBE0F901F90189570
:1011F0001F920F920FB60F9211240BB60F922F93DE
:101200003F938F939F93EF93FF9320910904309125
:101210000A0480910B0490910C042817390731F4CB
:101220008091D1008F7D8093D10014C0E0910B0498
:10123000F0910C04E753FC4F208180910B049091B6
:101240000C0401968F73992790930C0480930B04E0
:101250002093D600FF91EF919F918F913F912F9115
:101260000F900BBE0F900FBE0F901F9018951F92FE
:101270000F920FB60F9211240BB60F922F933F933C
:101280008F939F93EF93FF9320918103309182037B
:1012900080918303909184032817390731F480915A
:1012A00031018F7D8093310114C0E0918303F0916F
:1012B0008403EF5BFC4F2081809183039091840332
:1012C00001968F73992790938403809383032093CF
:1012D0003601FF91EF919F918F913F912F910F9048
:1012E0000BBE0F900FBE0F901F901895CF92DF92FC
:1012F000EF92FF920F931F93CF93DF93EC016A015C
:101300007B014115514E6105710509F1EC89FD899B
:1013100081E090E008A002C0880F991F0A94E2F7CC
:10132000808360E079E08DE390E0A70196010E9460
:10133000330B89019A0101501109210931093695B0
:10134000279517950795980101151041A8F0EC898C
:10135000FD89108260E874E88EE190E0A7019601B3
:101360000E94330BDA01C9010197A109B109B695B1
:10137000A795979587959C01E889F9893083EA8933
:10138000FB89208319A2EE89FF89408181E090E0EA
:101390009C010C8C02C0220F331F0A94E2F7242B0D
:1013A0002083EE89FF8940819C010D8C02C0220FB1
:1013B000331F0A94E2F7242B2083EE89FF894081B2
:1013C0009C010E8C02C0220F331F0A94E2F7242BDB
:1013D0002083EE89FF8920810F8C02C0880F991F1E
:1013E0000A94E2F7809582238083DF91CF911F9149
:1013F0000F91FF90EF90DF90CF900895CF92DF9202
:10140000EF92FF92EFE1F3E01382128288EEC82E92
:1014100083E0D82EE12CF12CC482D582E682F782BB
:101420006EE972E0718360838DE195E09587848732
:1014300089ED94E09787868785EC90E0918B808B8F
:1014400084EC90E0938B828B80EC90E0958B848B86
:1014500081EC90E0978B868B82EC90E0918F808F6F
:1014600086EC90E0938F828F44E0448F33E0358F99
:1014700027E0268F95E0978F81E080A3EDEFF2E0E3
:1014800013821282C482D582E682F78271836083DE
:10149000A5E9B4E0B587A487A1E5B4E0B787A6873E
:1014A000ADECB0E0B18BA08BACECB0E0B38BA28B19
:1014B000A8ECB0E0B58BA48BA9ECB0E0B78BA68B01
:1014C000AAECB0E0B18FA08FAEECB0E0B38FA28FEA
:1014D000448F358F268F978F80A3EBEDF2E0138238
:1014E0001282C482D582E682F78271836083ADE086
:1014F000B4E0B587A487A9ECB3E0B787A687A5EDCC
:10150000B0E0B18BA08BA4EDB0E0B38BA28BA0EDCB
:10151000B0E0B58BA48BA1EDB0E0B78BA68BA2EDAC
:10152000B0E0B18FA08FA6EDB0E0B38FA28F448F53
:10153000358F268F978F80A3E9EBF2E0138212821A
:10154000C482D582E682F7827183608365E873E0A6
:101550007587648761E473E07787668765E371E088
:10156000718B608B64E371E0738B628B60E371E07D
:10157000758B648B61E371E0778B668B62E371E05E
:10158000718F608F66E371E0738F628F448F358F48
:10159000268F978F80A3FF90EF90DF90CF900895D4
:1015A0001F93FC0199278827BC01E8941191103200
:1015B000E9F3193010F01E30C8F31B3251F01D3220
:1015C00049F4689406C00E94FA0A610F711D811DDA
:1015D000911D119110531A30B0F33EF490958095FF
:1015E000709561957F4F8F4F9F4F1F910895F8948D
:1015F0000C948B0B592F482F372F262F660F771FF0
:10160000881F991F660F771F881F991F620F731F0E
:10161000841F951F660F771F881F991F0895DB0190
:101620008F939F930E945D0BBF91AF91A29F800DFE
:10163000911DA39F900DB29F900D1124089597FBCB
:10164000072E16F4009407D077FD09D00E94680B8E
:1016500007FC05D03EF4909581959F4F08957095B5
:1016600061957F4F0895A1E21A2EAA1BBB1BFD01B5
:101670000DC0AA1FBB1FEE1FFF1FA217B307E40771
:10168000F50720F0A21BB30BE40BF50B661F771FC9
:10169000881F991F1A9469F76095709580959095A9
:1016A0009B01AC01BD01CF010895EE0FFF1F881F04
:1016B0008BBF0790F691E02D19940E947C0BA59F9B
:1016C000900DB49F900DA49F800D911D112408953D
:1016D000AA1BBB1B51E107C0AA1FBB1FA617B70758
:1016E00010F0A61BB70B881F991F5A95A9F7809574
:1016F0009095BC01CD010895A29FB001B39FC00198
:10170000A39F700D811D1124911DB29F700D811D2D
:0A1710001124911D0895F894FFCFF5
:10171A000157656C636F6D6520746F204172647543
:10172A00696E6F206368617400596F7572207075F5
:10173A00626C6963206B65792069733A20004E6F89
:10174A007720656E74657220746865206F746865A9
:10175A00722041726475696E6F2773207075626CAE
:10176A006963206B65790049742077696C6C206E17
:10177A006F7420646973706C617920756E74696C1A
:10178A0020796F75207072657373203C656E74657D
:10179A00723E3A2000596F757220736861726564EF
:1017AA00206B65792069733A200000000000520717
:0A17BA00A305FB0627070B074707EE
:00000001FF
